{
  "abi": [
    {
      "inputs": [
        {
          "internalType": "string",
          "name": "description",
          "type": "string"
        }
      ],
      "name": "createContract",
      "outputs": [],
      "stateMutability": "nonpayable",
      "type": "function"
    },
    {
      "inputs": [
        {
          "internalType": "uint256",
          "name": "",
          "type": "uint256"
        }
      ],
      "name": "deployedContracts",
      "outputs": [
        {
          "internalType": "address",
          "name": "",
          "type": "address"
        }
      ],
      "stateMutability": "view",
      "type": "function"
    },
    {
      "inputs": [],
      "name": "getDeployedContracts",
      "outputs": [
        {
          "internalType": "address[]",
          "name": "",
          "type": "address[]"
        }
      ],
      "stateMutability": "view",
      "type": "function"
    }
  ],
  "devdoc": {
    "kind": "dev",
    "methods": {},
    "version": 1
  },
  "evm": {
    "assembly": "    /* \"HealthHub.sol\":63:468  contract Factory {\r... */\n  mstore(0x40, 0x80)\n  callvalue\n  dup1\n  iszero\n  tag_1\n  jumpi\n  0x00\n  dup1\n  revert\ntag_1:\n  pop\n  dataSize(sub_0)\n  dup1\n  dataOffset(sub_0)\n  0x00\n  codecopy\n  0x00\n  return\nstop\n\nsub_0: assembly {\n        /* \"HealthHub.sol\":63:468  contract Factory {\r... */\n      mstore(0x40, 0x80)\n      callvalue\n      dup1\n      iszero\n      tag_1\n      jumpi\n      0x00\n      dup1\n      revert\n    tag_1:\n      pop\n      jumpi(tag_2, lt(calldatasize, 0x04))\n      shr(0xe0, calldataload(0x00))\n      dup1\n      0x18f80bb9\n      eq\n      tag_3\n      jumpi\n      dup1\n      0x9ad1ee10\n      eq\n      tag_4\n      jumpi\n      dup1\n      0xaa9a068f\n      eq\n      tag_5\n      jumpi\n    tag_2:\n      0x00\n      dup1\n      revert\n        /* \"HealthHub.sol\":146:346  function createContract(string memory description) public {\r... */\n    tag_3:\n      tag_6\n      0x04\n      dup1\n      calldatasize\n      sub\n      dup2\n      add\n      swap1\n      tag_7\n      swap2\n      swap1\n      tag_8\n      jump\t// in\n    tag_7:\n      tag_9\n      jump\t// in\n    tag_6:\n      stop\n        /* \"HealthHub.sol\":87:121  address[] public deployedContracts */\n    tag_4:\n      tag_10\n      0x04\n      dup1\n      calldatasize\n      sub\n      dup2\n      add\n      swap1\n      tag_11\n      swap2\n      swap1\n      tag_12\n      jump\t// in\n    tag_11:\n      tag_13\n      jump\t// in\n    tag_10:\n      mload(0x40)\n      tag_14\n      swap2\n      swap1\n      tag_15\n      jump\t// in\n    tag_14:\n      mload(0x40)\n      dup1\n      swap2\n      sub\n      swap1\n      return\n        /* \"HealthHub.sol\":352:465  function getDeployedContracts() public view returns(address[] memory) {\r... */\n    tag_5:\n      tag_16\n      tag_17\n      jump\t// in\n    tag_16:\n      mload(0x40)\n      tag_18\n      swap2\n      swap1\n      tag_19\n      jump\t// in\n    tag_18:\n      mload(0x40)\n      dup1\n      swap2\n      sub\n      swap1\n      return\n        /* \"HealthHub.sol\":146:346  function createContract(string memory description) public {\r... */\n    tag_9:\n        /* \"HealthHub.sol\":222:233  description */\n      dup1\n        /* \"HealthHub.sol\":215:219  desc */\n      0x01\n        /* \"HealthHub.sol\":215:233  desc = description */\n      swap1\n      dup1\n      mload\n      swap1\n      0x20\n      add\n      swap1\n      tag_21\n      swap3\n      swap2\n      swap1\n      tag_22\n      jump\t// in\n    tag_21:\n      pop\n        /* \"HealthHub.sol\":244:265  HealthHub newContract */\n      0x00\n        /* \"HealthHub.sol\":268:283  new HealthHub() */\n      mload(0x40)\n      tag_23\n      swap1\n      tag_24\n      jump\t// in\n    tag_23:\n      mload(0x40)\n      dup1\n      swap2\n      sub\n      swap1\n      0x00\n      create\n      dup1\n      iszero\n      dup1\n      iszero\n      tag_25\n      jumpi\n      returndatasize\n      0x00\n      dup1\n      returndatacopy\n      revert(0x00, returndatasize)\n    tag_25:\n      pop\n        /* \"HealthHub.sol\":244:283  HealthHub newContract = new HealthHub() */\n      swap1\n      pop\n        /* \"HealthHub.sol\":294:311  deployedContracts */\n      0x00\n        /* \"HealthHub.sol\":325:336  newContract */\n      dup2\n        /* \"HealthHub.sol\":294:338  deployedContracts.push(address(newContract)) */\n      swap1\n      dup1\n      0x01\n      dup2\n      sload\n      add\n      dup1\n      dup3\n      sstore\n      dup1\n      swap2\n      pop\n      pop\n      0x01\n      swap1\n      sub\n      swap1\n      0x00\n      mstore\n      keccak256(0x00, 0x20)\n      add\n      0x00\n      swap1\n      swap2\n      swap1\n      swap2\n      swap1\n      swap2\n      0x0100\n      exp\n      dup2\n      sload\n      dup2\n      0xffffffffffffffffffffffffffffffffffffffff\n      mul\n      not\n      and\n      swap1\n      dup4\n      0xffffffffffffffffffffffffffffffffffffffff\n      and\n      mul\n      or\n      swap1\n      sstore\n      pop\n        /* \"HealthHub.sol\":146:346  function createContract(string memory description) public {\r... */\n      pop\n      pop\n      jump\t// out\n        /* \"HealthHub.sol\":87:121  address[] public deployedContracts */\n    tag_13:\n      0x00\n      dup2\n      dup2\n      sload\n      dup2\n      lt\n      tag_27\n      jumpi\n      0x00\n      dup1\n      revert\n    tag_27:\n      swap1\n      0x00\n      mstore\n      keccak256(0x00, 0x20)\n      add\n      0x00\n      swap2\n      pop\n      sload\n      swap1\n      0x0100\n      exp\n      swap1\n      div\n      0xffffffffffffffffffffffffffffffffffffffff\n      and\n      dup2\n      jump\t// out\n        /* \"HealthHub.sol\":352:465  function getDeployedContracts() public view returns(address[] memory) {\r... */\n    tag_17:\n        /* \"HealthHub.sol\":404:420  address[] memory */\n      0x60\n        /* \"HealthHub.sol\":440:457  deployedContracts */\n      0x00\n        /* \"HealthHub.sol\":433:457  return deployedContracts */\n      dup1\n      sload\n      dup1\n      0x20\n      mul\n      0x20\n      add\n      mload(0x40)\n      swap1\n      dup2\n      add\n      0x40\n      mstore\n      dup1\n      swap3\n      swap2\n      swap1\n      dup2\n      dup2\n      mstore\n      0x20\n      add\n      dup3\n      dup1\n      sload\n      dup1\n      iszero\n      tag_30\n      jumpi\n      0x20\n      mul\n      dup3\n      add\n      swap2\n      swap1\n      0x00\n      mstore\n      keccak256(0x00, 0x20)\n      swap1\n    tag_31:\n      dup2\n      0x00\n      swap1\n      sload\n      swap1\n      0x0100\n      exp\n      swap1\n      div\n      0xffffffffffffffffffffffffffffffffffffffff\n      and\n      0xffffffffffffffffffffffffffffffffffffffff\n      and\n      dup2\n      mstore\n      0x20\n      add\n      swap1\n      0x01\n      add\n      swap1\n      dup1\n      dup4\n      gt\n      tag_31\n      jumpi\n    tag_30:\n      pop\n      pop\n      pop\n      pop\n      pop\n      swap1\n      pop\n        /* \"HealthHub.sol\":352:465  function getDeployedContracts() public view returns(address[] memory) {\r... */\n      swap1\n      jump\t// out\n    tag_22:\n      dup3\n      dup1\n      sload\n      tag_32\n      swap1\n      tag_33\n      jump\t// in\n    tag_32:\n      swap1\n      0x00\n      mstore\n      keccak256(0x00, 0x20)\n      swap1\n      0x1f\n      add\n      0x20\n      swap1\n      div\n      dup2\n      add\n      swap3\n      dup3\n      tag_35\n      jumpi\n      0x00\n      dup6\n      sstore\n      jump(tag_34)\n    tag_35:\n      dup3\n      0x1f\n      lt\n      tag_36\n      jumpi\n      dup1\n      mload\n      not(0xff)\n      and\n      dup4\n      dup1\n      add\n      or\n      dup6\n      sstore\n      jump(tag_34)\n    tag_36:\n      dup3\n      dup1\n      add\n      0x01\n      add\n      dup6\n      sstore\n      dup3\n      iszero\n      tag_34\n      jumpi\n      swap2\n      dup3\n      add\n    tag_37:\n      dup3\n      dup2\n      gt\n      iszero\n      tag_38\n      jumpi\n      dup3\n      mload\n      dup3\n      sstore\n      swap2\n      0x20\n      add\n      swap2\n      swap1\n      0x01\n      add\n      swap1\n      jump(tag_37)\n    tag_38:\n    tag_34:\n      pop\n      swap1\n      pop\n      tag_39\n      swap2\n      swap1\n      tag_40\n      jump\t// in\n    tag_39:\n      pop\n      swap1\n      jump\t// out\n    tag_24:\n      dataSize(sub_0)\n      dup1\n      dataOffset(sub_0)\n      dup4\n      codecopy\n      add\n      swap1\n      jump\t// out\n    tag_40:\n    tag_41:\n      dup1\n      dup3\n      gt\n      iszero\n      tag_42\n      jumpi\n      0x00\n      dup2\n      0x00\n      swap1\n      sstore\n      pop\n      0x01\n      add\n      jump(tag_41)\n    tag_42:\n      pop\n      swap1\n      jump\t// out\n        /* \"#utility.yul\":7:352   */\n    tag_44:\n        /* \"#utility.yul\":85:90   */\n      0x00\n        /* \"#utility.yul\":110:176   */\n      tag_46\n        /* \"#utility.yul\":126:175   */\n      tag_47\n        /* \"#utility.yul\":168:174   */\n      dup5\n        /* \"#utility.yul\":126:175   */\n      tag_48\n      jump\t// in\n    tag_47:\n        /* \"#utility.yul\":110:176   */\n      tag_49\n      jump\t// in\n    tag_46:\n        /* \"#utility.yul\":101:176   */\n      swap1\n      pop\n        /* \"#utility.yul\":199:205   */\n      dup3\n        /* \"#utility.yul\":192:197   */\n      dup2\n        /* \"#utility.yul\":185:206   */\n      mstore\n        /* \"#utility.yul\":237:241   */\n      0x20\n        /* \"#utility.yul\":230:235   */\n      dup2\n        /* \"#utility.yul\":226:242   */\n      add\n        /* \"#utility.yul\":275:278   */\n      dup5\n        /* \"#utility.yul\":266:272   */\n      dup5\n        /* \"#utility.yul\":261:264   */\n      dup5\n        /* \"#utility.yul\":257:273   */\n      add\n        /* \"#utility.yul\":254:279   */\n      gt\n        /* \"#utility.yul\":251:253   */\n      iszero\n      tag_50\n      jumpi\n        /* \"#utility.yul\":292:293   */\n      0x00\n        /* \"#utility.yul\":289:290   */\n      dup1\n        /* \"#utility.yul\":282:294   */\n      revert\n        /* \"#utility.yul\":251:253   */\n    tag_50:\n        /* \"#utility.yul\":305:346   */\n      tag_51\n        /* \"#utility.yul\":339:345   */\n      dup5\n        /* \"#utility.yul\":334:337   */\n      dup3\n        /* \"#utility.yul\":329:332   */\n      dup6\n        /* \"#utility.yul\":305:346   */\n      tag_52\n      jump\t// in\n    tag_51:\n        /* \"#utility.yul\":91:352   */\n      pop\n      swap4\n      swap3\n      pop\n      pop\n      pop\n      jump\t// out\n        /* \"#utility.yul\":372:645   */\n    tag_53:\n        /* \"#utility.yul\":428:433   */\n      0x00\n        /* \"#utility.yul\":477:480   */\n      dup3\n        /* \"#utility.yul\":470:474   */\n      0x1f\n        /* \"#utility.yul\":462:468   */\n      dup4\n        /* \"#utility.yul\":458:475   */\n      add\n        /* \"#utility.yul\":454:481   */\n      slt\n        /* \"#utility.yul\":444:446   */\n      tag_55\n      jumpi\n        /* \"#utility.yul\":495:496   */\n      0x00\n        /* \"#utility.yul\":492:493   */\n      dup1\n        /* \"#utility.yul\":485:497   */\n      revert\n        /* \"#utility.yul\":444:446   */\n    tag_55:\n        /* \"#utility.yul\":535:541   */\n      dup2\n        /* \"#utility.yul\":522:542   */\n      calldataload\n        /* \"#utility.yul\":560:639   */\n      tag_56\n        /* \"#utility.yul\":635:638   */\n      dup5\n        /* \"#utility.yul\":627:633   */\n      dup3\n        /* \"#utility.yul\":620:624   */\n      0x20\n        /* \"#utility.yul\":612:618   */\n      dup7\n        /* \"#utility.yul\":608:625   */\n      add\n        /* \"#utility.yul\":560:639   */\n      tag_44\n      jump\t// in\n    tag_56:\n        /* \"#utility.yul\":551:639   */\n      swap2\n      pop\n        /* \"#utility.yul\":434:645   */\n      pop\n      swap3\n      swap2\n      pop\n      pop\n      jump\t// out\n        /* \"#utility.yul\":651:790   */\n    tag_57:\n        /* \"#utility.yul\":697:702   */\n      0x00\n        /* \"#utility.yul\":735:741   */\n      dup2\n        /* \"#utility.yul\":722:742   */\n      calldataload\n        /* \"#utility.yul\":713:742   */\n      swap1\n      pop\n        /* \"#utility.yul\":751:784   */\n      tag_59\n        /* \"#utility.yul\":778:783   */\n      dup2\n        /* \"#utility.yul\":751:784   */\n      tag_60\n      jump\t// in\n    tag_59:\n        /* \"#utility.yul\":703:790   */\n      swap3\n      swap2\n      pop\n      pop\n      jump\t// out\n        /* \"#utility.yul\":796:1171   */\n    tag_8:\n        /* \"#utility.yul\":865:871   */\n      0x00\n        /* \"#utility.yul\":914:916   */\n      0x20\n        /* \"#utility.yul\":902:911   */\n      dup3\n        /* \"#utility.yul\":893:900   */\n      dup5\n        /* \"#utility.yul\":889:912   */\n      sub\n        /* \"#utility.yul\":885:917   */\n      slt\n        /* \"#utility.yul\":882:884   */\n      iszero\n      tag_62\n      jumpi\n        /* \"#utility.yul\":930:931   */\n      0x00\n        /* \"#utility.yul\":927:928   */\n      dup1\n        /* \"#utility.yul\":920:932   */\n      revert\n        /* \"#utility.yul\":882:884   */\n    tag_62:\n        /* \"#utility.yul\":1001:1002   */\n      0x00\n        /* \"#utility.yul\":990:999   */\n      dup3\n        /* \"#utility.yul\":986:1003   */\n      add\n        /* \"#utility.yul\":973:1004   */\n      calldataload\n        /* \"#utility.yul\":1031:1049   */\n      0xffffffffffffffff\n        /* \"#utility.yul\":1023:1029   */\n      dup2\n        /* \"#utility.yul\":1020:1050   */\n      gt\n        /* \"#utility.yul\":1017:1019   */\n      iszero\n      tag_63\n      jumpi\n        /* \"#utility.yul\":1063:1064   */\n      0x00\n        /* \"#utility.yul\":1060:1061   */\n      dup1\n        /* \"#utility.yul\":1053:1065   */\n      revert\n        /* \"#utility.yul\":1017:1019   */\n    tag_63:\n        /* \"#utility.yul\":1091:1154   */\n      tag_64\n        /* \"#utility.yul\":1146:1153   */\n      dup5\n        /* \"#utility.yul\":1137:1143   */\n      dup3\n        /* \"#utility.yul\":1126:1135   */\n      dup6\n        /* \"#utility.yul\":1122:1144   */\n      add\n        /* \"#utility.yul\":1091:1154   */\n      tag_53\n      jump\t// in\n    tag_64:\n        /* \"#utility.yul\":1081:1154   */\n      swap2\n      pop\n        /* \"#utility.yul\":944:1164   */\n      pop\n        /* \"#utility.yul\":872:1171   */\n      swap3\n      swap2\n      pop\n      pop\n      jump\t// out\n        /* \"#utility.yul\":1177:1439   */\n    tag_12:\n        /* \"#utility.yul\":1236:1242   */\n      0x00\n        /* \"#utility.yul\":1285:1287   */\n      0x20\n        /* \"#utility.yul\":1273:1282   */\n      dup3\n        /* \"#utility.yul\":1264:1271   */\n      dup5\n        /* \"#utility.yul\":1260:1283   */\n      sub\n        /* \"#utility.yul\":1256:1288   */\n      slt\n        /* \"#utility.yul\":1253:1255   */\n      iszero\n      tag_66\n      jumpi\n        /* \"#utility.yul\":1301:1302   */\n      0x00\n        /* \"#utility.yul\":1298:1299   */\n      dup1\n        /* \"#utility.yul\":1291:1303   */\n      revert\n        /* \"#utility.yul\":1253:1255   */\n    tag_66:\n        /* \"#utility.yul\":1344:1345   */\n      0x00\n        /* \"#utility.yul\":1369:1422   */\n      tag_67\n        /* \"#utility.yul\":1414:1421   */\n      dup5\n        /* \"#utility.yul\":1405:1411   */\n      dup3\n        /* \"#utility.yul\":1394:1403   */\n      dup6\n        /* \"#utility.yul\":1390:1412   */\n      add\n        /* \"#utility.yul\":1369:1422   */\n      tag_57\n      jump\t// in\n    tag_67:\n        /* \"#utility.yul\":1359:1422   */\n      swap2\n      pop\n        /* \"#utility.yul\":1315:1432   */\n      pop\n        /* \"#utility.yul\":1243:1439   */\n      swap3\n      swap2\n      pop\n      pop\n      jump\t// out\n        /* \"#utility.yul\":1445:1624   */\n    tag_68:\n        /* \"#utility.yul\":1514:1524   */\n      0x00\n        /* \"#utility.yul\":1535:1581   */\n      tag_70\n        /* \"#utility.yul\":1577:1580   */\n      dup4\n        /* \"#utility.yul\":1569:1575   */\n      dup4\n        /* \"#utility.yul\":1535:1581   */\n      tag_71\n      jump\t// in\n    tag_70:\n        /* \"#utility.yul\":1613:1617   */\n      0x20\n        /* \"#utility.yul\":1608:1611   */\n      dup4\n        /* \"#utility.yul\":1604:1618   */\n      add\n        /* \"#utility.yul\":1590:1618   */\n      swap1\n      pop\n        /* \"#utility.yul\":1525:1624   */\n      swap3\n      swap2\n      pop\n      pop\n      jump\t// out\n        /* \"#utility.yul\":1630:1738   */\n    tag_71:\n        /* \"#utility.yul\":1707:1731   */\n      tag_73\n        /* \"#utility.yul\":1725:1730   */\n      dup2\n        /* \"#utility.yul\":1707:1731   */\n      tag_74\n      jump\t// in\n    tag_73:\n        /* \"#utility.yul\":1702:1705   */\n      dup3\n        /* \"#utility.yul\":1695:1732   */\n      mstore\n        /* \"#utility.yul\":1685:1738   */\n      pop\n      pop\n      jump\t// out\n        /* \"#utility.yul\":1744:1862   */\n    tag_75:\n        /* \"#utility.yul\":1831:1855   */\n      tag_77\n        /* \"#utility.yul\":1849:1854   */\n      dup2\n        /* \"#utility.yul\":1831:1855   */\n      tag_74\n      jump\t// in\n    tag_77:\n        /* \"#utility.yul\":1826:1829   */\n      dup3\n        /* \"#utility.yul\":1819:1856   */\n      mstore\n        /* \"#utility.yul\":1809:1862   */\n      pop\n      pop\n      jump\t// out\n        /* \"#utility.yul\":1898:2630   */\n    tag_78:\n        /* \"#utility.yul\":2017:2020   */\n      0x00\n        /* \"#utility.yul\":2046:2100   */\n      tag_80\n        /* \"#utility.yul\":2094:2099   */\n      dup3\n        /* \"#utility.yul\":2046:2100   */\n      tag_81\n      jump\t// in\n    tag_80:\n        /* \"#utility.yul\":2116:2202   */\n      tag_82\n        /* \"#utility.yul\":2195:2201   */\n      dup2\n        /* \"#utility.yul\":2190:2193   */\n      dup6\n        /* \"#utility.yul\":2116:2202   */\n      tag_83\n      jump\t// in\n    tag_82:\n        /* \"#utility.yul\":2109:2202   */\n      swap4\n      pop\n        /* \"#utility.yul\":2226:2282   */\n      tag_84\n        /* \"#utility.yul\":2276:2281   */\n      dup4\n        /* \"#utility.yul\":2226:2282   */\n      tag_85\n      jump\t// in\n    tag_84:\n        /* \"#utility.yul\":2305:2312   */\n      dup1\n        /* \"#utility.yul\":2336:2337   */\n      0x00\n        /* \"#utility.yul\":2321:2605   */\n    tag_86:\n        /* \"#utility.yul\":2346:2352   */\n      dup4\n        /* \"#utility.yul\":2343:2344   */\n      dup2\n        /* \"#utility.yul\":2340:2353   */\n      lt\n        /* \"#utility.yul\":2321:2605   */\n      iszero\n      tag_88\n      jumpi\n        /* \"#utility.yul\":2422:2428   */\n      dup2\n        /* \"#utility.yul\":2416:2429   */\n      mload\n        /* \"#utility.yul\":2449:2512   */\n      tag_89\n        /* \"#utility.yul\":2508:2511   */\n      dup9\n        /* \"#utility.yul\":2493:2506   */\n      dup3\n        /* \"#utility.yul\":2449:2512   */\n      tag_68\n      jump\t// in\n    tag_89:\n        /* \"#utility.yul\":2442:2512   */\n      swap8\n      pop\n        /* \"#utility.yul\":2535:2595   */\n      tag_90\n        /* \"#utility.yul\":2588:2594   */\n      dup4\n        /* \"#utility.yul\":2535:2595   */\n      tag_91\n      jump\t// in\n    tag_90:\n        /* \"#utility.yul\":2525:2595   */\n      swap3\n      pop\n        /* \"#utility.yul\":2381:2605   */\n      pop\n        /* \"#utility.yul\":2368:2369   */\n      0x01\n        /* \"#utility.yul\":2365:2366   */\n      dup2\n        /* \"#utility.yul\":2361:2370   */\n      add\n        /* \"#utility.yul\":2356:2370   */\n      swap1\n      pop\n        /* \"#utility.yul\":2321:2605   */\n      jump(tag_86)\n    tag_88:\n        /* \"#utility.yul\":2325:2339   */\n      pop\n        /* \"#utility.yul\":2621:2624   */\n      dup6\n        /* \"#utility.yul\":2614:2624   */\n      swap4\n      pop\n        /* \"#utility.yul\":2022:2630   */\n      pop\n      pop\n      pop\n      swap3\n      swap2\n      pop\n      pop\n      jump\t// out\n        /* \"#utility.yul\":2636:2858   */\n    tag_15:\n        /* \"#utility.yul\":2729:2733   */\n      0x00\n        /* \"#utility.yul\":2767:2769   */\n      0x20\n        /* \"#utility.yul\":2756:2765   */\n      dup3\n        /* \"#utility.yul\":2752:2770   */\n      add\n        /* \"#utility.yul\":2744:2770   */\n      swap1\n      pop\n        /* \"#utility.yul\":2780:2851   */\n      tag_93\n        /* \"#utility.yul\":2848:2849   */\n      0x00\n        /* \"#utility.yul\":2837:2846   */\n      dup4\n        /* \"#utility.yul\":2833:2850   */\n      add\n        /* \"#utility.yul\":2824:2830   */\n      dup5\n        /* \"#utility.yul\":2780:2851   */\n      tag_75\n      jump\t// in\n    tag_93:\n        /* \"#utility.yul\":2734:2858   */\n      swap3\n      swap2\n      pop\n      pop\n      jump\t// out\n        /* \"#utility.yul\":2864:3237   */\n    tag_19:\n        /* \"#utility.yul\":3007:3011   */\n      0x00\n        /* \"#utility.yul\":3045:3047   */\n      0x20\n        /* \"#utility.yul\":3034:3043   */\n      dup3\n        /* \"#utility.yul\":3030:3048   */\n      add\n        /* \"#utility.yul\":3022:3048   */\n      swap1\n      pop\n        /* \"#utility.yul\":3094:3103   */\n      dup2\n        /* \"#utility.yul\":3088:3092   */\n      dup2\n        /* \"#utility.yul\":3084:3104   */\n      sub\n        /* \"#utility.yul\":3080:3081   */\n      0x00\n        /* \"#utility.yul\":3069:3078   */\n      dup4\n        /* \"#utility.yul\":3065:3082   */\n      add\n        /* \"#utility.yul\":3058:3105   */\n      mstore\n        /* \"#utility.yul\":3122:3230   */\n      tag_95\n        /* \"#utility.yul\":3225:3229   */\n      dup2\n        /* \"#utility.yul\":3216:3222   */\n      dup5\n        /* \"#utility.yul\":3122:3230   */\n      tag_78\n      jump\t// in\n    tag_95:\n        /* \"#utility.yul\":3114:3230   */\n      swap1\n      pop\n        /* \"#utility.yul\":3012:3237   */\n      swap3\n      swap2\n      pop\n      pop\n      jump\t// out\n        /* \"#utility.yul\":3243:3372   */\n    tag_49:\n        /* \"#utility.yul\":3277:3283   */\n      0x00\n        /* \"#utility.yul\":3304:3324   */\n      tag_97\n      tag_98\n      jump\t// in\n    tag_97:\n        /* \"#utility.yul\":3294:3324   */\n      swap1\n      pop\n        /* \"#utility.yul\":3333:3366   */\n      tag_99\n        /* \"#utility.yul\":3361:3365   */\n      dup3\n        /* \"#utility.yul\":3353:3359   */\n      dup3\n        /* \"#utility.yul\":3333:3366   */\n      tag_100\n      jump\t// in\n    tag_99:\n        /* \"#utility.yul\":3284:3372   */\n      swap2\n      swap1\n      pop\n      jump\t// out\n        /* \"#utility.yul\":3378:3453   */\n    tag_98:\n        /* \"#utility.yul\":3411:3417   */\n      0x00\n        /* \"#utility.yul\":3444:3446   */\n      0x40\n        /* \"#utility.yul\":3438:3447   */\n      mload\n        /* \"#utility.yul\":3428:3447   */\n      swap1\n      pop\n        /* \"#utility.yul\":3418:3453   */\n      swap1\n      jump\t// out\n        /* \"#utility.yul\":3459:3767   */\n    tag_48:\n        /* \"#utility.yul\":3521:3525   */\n      0x00\n        /* \"#utility.yul\":3611:3629   */\n      0xffffffffffffffff\n        /* \"#utility.yul\":3603:3609   */\n      dup3\n        /* \"#utility.yul\":3600:3630   */\n      gt\n        /* \"#utility.yul\":3597:3599   */\n      iszero\n      tag_103\n      jumpi\n        /* \"#utility.yul\":3633:3651   */\n      tag_104\n      tag_105\n      jump\t// in\n    tag_104:\n        /* \"#utility.yul\":3597:3599   */\n    tag_103:\n        /* \"#utility.yul\":3671:3700   */\n      tag_106\n        /* \"#utility.yul\":3693:3699   */\n      dup3\n        /* \"#utility.yul\":3671:3700   */\n      tag_107\n      jump\t// in\n    tag_106:\n        /* \"#utility.yul\":3663:3700   */\n      swap1\n      pop\n        /* \"#utility.yul\":3755:3759   */\n      0x20\n        /* \"#utility.yul\":3749:3753   */\n      dup2\n        /* \"#utility.yul\":3745:3760   */\n      add\n        /* \"#utility.yul\":3737:3760   */\n      swap1\n      pop\n        /* \"#utility.yul\":3526:3767   */\n      swap2\n      swap1\n      pop\n      jump\t// out\n        /* \"#utility.yul\":3773:3905   */\n    tag_85:\n        /* \"#utility.yul\":3840:3844   */\n      0x00\n        /* \"#utility.yul\":3863:3866   */\n      dup2\n        /* \"#utility.yul\":3855:3866   */\n      swap1\n      pop\n        /* \"#utility.yul\":3893:3897   */\n      0x20\n        /* \"#utility.yul\":3888:3891   */\n      dup3\n        /* \"#utility.yul\":3884:3898   */\n      add\n        /* \"#utility.yul\":3876:3898   */\n      swap1\n      pop\n        /* \"#utility.yul\":3845:3905   */\n      swap2\n      swap1\n      pop\n      jump\t// out\n        /* \"#utility.yul\":3911:4025   */\n    tag_81:\n        /* \"#utility.yul\":3978:3984   */\n      0x00\n        /* \"#utility.yul\":4012:4017   */\n      dup2\n        /* \"#utility.yul\":4006:4018   */\n      mload\n        /* \"#utility.yul\":3996:4018   */\n      swap1\n      pop\n        /* \"#utility.yul\":3985:4025   */\n      swap2\n      swap1\n      pop\n      jump\t// out\n        /* \"#utility.yul\":4031:4144   */\n    tag_91:\n        /* \"#utility.yul\":4101:4105   */\n      0x00\n        /* \"#utility.yul\":4133:4137   */\n      0x20\n        /* \"#utility.yul\":4128:4131   */\n      dup3\n        /* \"#utility.yul\":4124:4138   */\n      add\n        /* \"#utility.yul\":4116:4138   */\n      swap1\n      pop\n        /* \"#utility.yul\":4106:4144   */\n      swap2\n      swap1\n      pop\n      jump\t// out\n        /* \"#utility.yul\":4150:4334   */\n    tag_83:\n        /* \"#utility.yul\":4249:4260   */\n      0x00\n        /* \"#utility.yul\":4283:4289   */\n      dup3\n        /* \"#utility.yul\":4278:4281   */\n      dup3\n        /* \"#utility.yul\":4271:4290   */\n      mstore\n        /* \"#utility.yul\":4323:4327   */\n      0x20\n        /* \"#utility.yul\":4318:4321   */\n      dup3\n        /* \"#utility.yul\":4314:4328   */\n      add\n        /* \"#utility.yul\":4299:4328   */\n      swap1\n      pop\n        /* \"#utility.yul\":4261:4334   */\n      swap3\n      swap2\n      pop\n      pop\n      jump\t// out\n        /* \"#utility.yul\":4340:4436   */\n    tag_74:\n        /* \"#utility.yul\":4377:4384   */\n      0x00\n        /* \"#utility.yul\":4406:4430   */\n      tag_113\n        /* \"#utility.yul\":4424:4429   */\n      dup3\n        /* \"#utility.yul\":4406:4430   */\n      tag_114\n      jump\t// in\n    tag_113:\n        /* \"#utility.yul\":4395:4430   */\n      swap1\n      pop\n        /* \"#utility.yul\":4385:4436   */\n      swap2\n      swap1\n      pop\n      jump\t// out\n        /* \"#utility.yul\":4442:4568   */\n    tag_114:\n        /* \"#utility.yul\":4479:4486   */\n      0x00\n        /* \"#utility.yul\":4519:4561   */\n      0xffffffffffffffffffffffffffffffffffffffff\n        /* \"#utility.yul\":4512:4517   */\n      dup3\n        /* \"#utility.yul\":4508:4562   */\n      and\n        /* \"#utility.yul\":4497:4562   */\n      swap1\n      pop\n        /* \"#utility.yul\":4487:4568   */\n      swap2\n      swap1\n      pop\n      jump\t// out\n        /* \"#utility.yul\":4574:4651   */\n    tag_116:\n        /* \"#utility.yul\":4611:4618   */\n      0x00\n        /* \"#utility.yul\":4640:4645   */\n      dup2\n        /* \"#utility.yul\":4629:4645   */\n      swap1\n      pop\n        /* \"#utility.yul\":4619:4651   */\n      swap2\n      swap1\n      pop\n      jump\t// out\n        /* \"#utility.yul\":4657:4811   */\n    tag_52:\n        /* \"#utility.yul\":4741:4747   */\n      dup3\n        /* \"#utility.yul\":4736:4739   */\n      dup2\n        /* \"#utility.yul\":4731:4734   */\n      dup4\n        /* \"#utility.yul\":4718:4748   */\n      calldatacopy\n        /* \"#utility.yul\":4803:4804   */\n      0x00\n        /* \"#utility.yul\":4794:4800   */\n      dup4\n        /* \"#utility.yul\":4789:4792   */\n      dup4\n        /* \"#utility.yul\":4785:4801   */\n      add\n        /* \"#utility.yul\":4778:4805   */\n      mstore\n        /* \"#utility.yul\":4708:4811   */\n      pop\n      pop\n      pop\n      jump\t// out\n        /* \"#utility.yul\":4817:5137   */\n    tag_33:\n        /* \"#utility.yul\":4861:4867   */\n      0x00\n        /* \"#utility.yul\":4898:4899   */\n      0x02\n        /* \"#utility.yul\":4892:4896   */\n      dup3\n        /* \"#utility.yul\":4888:4900   */\n      div\n        /* \"#utility.yul\":4878:4900   */\n      swap1\n      pop\n        /* \"#utility.yul\":4945:4946   */\n      0x01\n        /* \"#utility.yul\":4939:4943   */\n      dup3\n        /* \"#utility.yul\":4935:4947   */\n      and\n        /* \"#utility.yul\":4966:4984   */\n      dup1\n        /* \"#utility.yul\":4956:4958   */\n      tag_120\n      jumpi\n        /* \"#utility.yul\":5022:5026   */\n      0x7f\n        /* \"#utility.yul\":5014:5020   */\n      dup3\n        /* \"#utility.yul\":5010:5027   */\n      and\n        /* \"#utility.yul\":5000:5027   */\n      swap2\n      pop\n        /* \"#utility.yul\":4956:4958   */\n    tag_120:\n        /* \"#utility.yul\":5084:5086   */\n      0x20\n        /* \"#utility.yul\":5076:5082   */\n      dup3\n        /* \"#utility.yul\":5073:5087   */\n      lt\n        /* \"#utility.yul\":5053:5071   */\n      dup2\n        /* \"#utility.yul\":5050:5088   */\n      eq\n        /* \"#utility.yul\":5047:5049   */\n      iszero\n      tag_121\n      jumpi\n        /* \"#utility.yul\":5103:5121   */\n      tag_122\n      tag_123\n      jump\t// in\n    tag_122:\n        /* \"#utility.yul\":5047:5049   */\n    tag_121:\n        /* \"#utility.yul\":4868:5137   */\n      pop\n      swap2\n      swap1\n      pop\n      jump\t// out\n        /* \"#utility.yul\":5143:5424   */\n    tag_100:\n        /* \"#utility.yul\":5226:5253   */\n      tag_125\n        /* \"#utility.yul\":5248:5252   */\n      dup3\n        /* \"#utility.yul\":5226:5253   */\n      tag_107\n      jump\t// in\n    tag_125:\n        /* \"#utility.yul\":5218:5224   */\n      dup2\n        /* \"#utility.yul\":5214:5254   */\n      add\n        /* \"#utility.yul\":5356:5362   */\n      dup2\n        /* \"#utility.yul\":5344:5354   */\n      dup2\n        /* \"#utility.yul\":5341:5363   */\n      lt\n        /* \"#utility.yul\":5320:5338   */\n      0xffffffffffffffff\n        /* \"#utility.yul\":5308:5318   */\n      dup3\n        /* \"#utility.yul\":5305:5339   */\n      gt\n        /* \"#utility.yul\":5302:5364   */\n      or\n        /* \"#utility.yul\":5299:5301   */\n      iszero\n      tag_126\n      jumpi\n        /* \"#utility.yul\":5367:5385   */\n      tag_127\n      tag_105\n      jump\t// in\n    tag_127:\n        /* \"#utility.yul\":5299:5301   */\n    tag_126:\n        /* \"#utility.yul\":5407:5417   */\n      dup1\n        /* \"#utility.yul\":5403:5405   */\n      0x40\n        /* \"#utility.yul\":5396:5418   */\n      mstore\n        /* \"#utility.yul\":5186:5424   */\n      pop\n      pop\n      pop\n      jump\t// out\n        /* \"#utility.yul\":5430:5610   */\n    tag_123:\n        /* \"#utility.yul\":5478:5555   */\n      0x4e487b7100000000000000000000000000000000000000000000000000000000\n        /* \"#utility.yul\":5475:5476   */\n      0x00\n        /* \"#utility.yul\":5468:5556   */\n      mstore\n        /* \"#utility.yul\":5575:5579   */\n      0x22\n        /* \"#utility.yul\":5572:5573   */\n      0x04\n        /* \"#utility.yul\":5565:5580   */\n      mstore\n        /* \"#utility.yul\":5599:5603   */\n      0x24\n        /* \"#utility.yul\":5596:5597   */\n      0x00\n        /* \"#utility.yul\":5589:5604   */\n      revert\n        /* \"#utility.yul\":5616:5796   */\n    tag_105:\n        /* \"#utility.yul\":5664:5741   */\n      0x4e487b7100000000000000000000000000000000000000000000000000000000\n        /* \"#utility.yul\":5661:5662   */\n      0x00\n        /* \"#utility.yul\":5654:5742   */\n      mstore\n        /* \"#utility.yul\":5761:5765   */\n      0x41\n        /* \"#utility.yul\":5758:5759   */\n      0x04\n        /* \"#utility.yul\":5751:5766   */\n      mstore\n        /* \"#utility.yul\":5785:5789   */\n      0x24\n        /* \"#utility.yul\":5782:5783   */\n      0x00\n        /* \"#utility.yul\":5775:5790   */\n      revert\n        /* \"#utility.yul\":5802:5904   */\n    tag_107:\n        /* \"#utility.yul\":5843:5849   */\n      0x00\n        /* \"#utility.yul\":5894:5896   */\n      0x1f\n        /* \"#utility.yul\":5890:5897   */\n      not\n        /* \"#utility.yul\":5885:5887   */\n      0x1f\n        /* \"#utility.yul\":5878:5883   */\n      dup4\n        /* \"#utility.yul\":5874:5888   */\n      add\n        /* \"#utility.yul\":5870:5898   */\n      and\n        /* \"#utility.yul\":5860:5898   */\n      swap1\n      pop\n        /* \"#utility.yul\":5850:5904   */\n      swap2\n      swap1\n      pop\n      jump\t// out\n        /* \"#utility.yul\":5910:6032   */\n    tag_60:\n        /* \"#utility.yul\":5983:6007   */\n      tag_132\n        /* \"#utility.yul\":6001:6006   */\n      dup2\n        /* \"#utility.yul\":5983:6007   */\n      tag_116\n      jump\t// in\n    tag_132:\n        /* \"#utility.yul\":5976:5981   */\n      dup2\n        /* \"#utility.yul\":5973:6008   */\n      eq\n        /* \"#utility.yul\":5963:5965   */\n      tag_133\n      jumpi\n        /* \"#utility.yul\":6022:6023   */\n      0x00\n        /* \"#utility.yul\":6019:6020   */\n      dup1\n        /* \"#utility.yul\":6012:6024   */\n      revert\n        /* \"#utility.yul\":5963:5965   */\n    tag_133:\n        /* \"#utility.yul\":5953:6032   */\n      pop\n      jump\t// out\n    stop\n\n    sub_0: assembly {\n            /* \"HealthHub.sol\":472:2892  contract HealthHub {\r... */\n          mstore(0x40, 0x80)\n          callvalue\n          dup1\n          iszero\n          tag_1\n          jumpi\n          0x00\n          dup1\n          revert\n        tag_1:\n          pop\n          dataSize(sub_0)\n          dup1\n          dataOffset(sub_0)\n          0x00\n          codecopy\n          0x00\n          return\n        stop\n\n        sub_0: assembly {\n                /* \"HealthHub.sol\":472:2892  contract HealthHub {\r... */\n              mstore(0x40, 0x80)\n              callvalue\n              dup1\n              iszero\n              tag_1\n              jumpi\n              0x00\n              dup1\n              revert\n            tag_1:\n              pop\n              jumpi(tag_2, lt(calldatasize, 0x04))\n              shr(0xe0, calldataload(0x00))\n              dup1\n              0xaee14460\n              gt\n              tag_14\n              jumpi\n              dup1\n              0xaee14460\n              eq\n              tag_8\n              jumpi\n              dup1\n              0xc72109d5\n              eq\n              tag_9\n              jumpi\n              dup1\n              0xd6f8307f\n              eq\n              tag_10\n              jumpi\n              dup1\n              0xde58f1b6\n              eq\n              tag_11\n              jumpi\n              dup1\n              0xeecd6bc2\n              eq\n              tag_12\n              jumpi\n              dup1\n              0xf0ba8440\n              eq\n              tag_13\n              jumpi\n              jump(tag_2)\n            tag_14:\n              dup1\n              0x19a32989\n              eq\n              tag_3\n              jumpi\n              dup1\n              0x1da000ec\n              eq\n              tag_4\n              jumpi\n              dup1\n              0x2eeca2cc\n              eq\n              tag_5\n              jumpi\n              dup1\n              0x81d12c58\n              eq\n              tag_6\n              jumpi\n              dup1\n              0x9a5e5b77\n              eq\n              tag_7\n              jumpi\n            tag_2:\n              0x00\n              dup1\n              revert\n                /* \"HealthHub.sol\":2263:2474  function dispayData(uint index) public {\r... */\n            tag_3:\n              tag_15\n              0x04\n              dup1\n              calldatasize\n              sub\n              dup2\n              add\n              swap1\n              tag_16\n              swap2\n              swap1\n              tag_17\n              jump\t// in\n            tag_16:\n              tag_18\n              jump\t// in\n            tag_15:\n              stop\n                /* \"HealthHub.sol\":1809:1977  function finalizeRequest(uint index, address req) public {\r... */\n            tag_4:\n              tag_19\n              0x04\n              dup1\n              calldatasize\n              sub\n              dup2\n              add\n              swap1\n              tag_20\n              swap2\n              swap1\n              tag_21\n              jump\t// in\n            tag_20:\n              tag_22\n              jump\t// in\n            tag_19:\n              stop\n                /* \"HealthHub.sol\":498:528  address[] public requestersAdd */\n            tag_5:\n              tag_23\n              0x04\n              dup1\n              calldatasize\n              sub\n              dup2\n              add\n              swap1\n              tag_24\n              swap2\n              swap1\n              tag_17\n              jump\t// in\n            tag_24:\n              tag_25\n              jump\t// in\n            tag_23:\n              mload(0x40)\n              tag_26\n              swap2\n              swap1\n              tag_27\n              jump\t// in\n            tag_26:\n              mload(0x40)\n              dup1\n              swap2\n              sub\n              swap1\n              return\n                /* \"HealthHub.sol\":1985:2251  function requests(uint index) public view returns(address, bool, bool) {\r... */\n            tag_6:\n              tag_28\n              0x04\n              dup1\n              calldatasize\n              sub\n              dup2\n              add\n              swap1\n              tag_29\n              swap2\n              swap1\n              tag_17\n              jump\t// in\n            tag_29:\n              tag_30\n              jump\t// in\n            tag_28:\n              mload(0x40)\n              tag_31\n              swap4\n              swap3\n              swap2\n              swap1\n              tag_32\n              jump\t// in\n            tag_31:\n              mload(0x40)\n              dup1\n              swap2\n              sub\n              swap1\n              return\n                /* \"HealthHub.sol\":2769:2889  function getRequestsCount(uint index) public view returns (uint) {\r... */\n            tag_7:\n              tag_33\n              0x04\n              dup1\n              calldatasize\n              sub\n              dup2\n              add\n              swap1\n              tag_34\n              swap2\n              swap1\n              tag_17\n              jump\t// in\n            tag_34:\n              tag_35\n              jump\t// in\n            tag_33:\n              mload(0x40)\n              tag_36\n              swap2\n              swap1\n              tag_37\n              jump\t// in\n            tag_36:\n              mload(0x40)\n              dup1\n              swap2\n              sub\n              swap1\n              return\n                /* \"HealthHub.sol\":2482:2757  function getSummary (uint index) public view returns(string memory, address, uint) {\r... */\n            tag_8:\n              tag_38\n              0x04\n              dup1\n              calldatasize\n              sub\n              dup2\n              add\n              swap1\n              tag_39\n              swap2\n              swap1\n              tag_17\n              jump\t// in\n            tag_39:\n              tag_40\n              jump\t// in\n            tag_38:\n              mload(0x40)\n              tag_41\n              swap4\n              swap3\n              swap2\n              swap1\n              tag_42\n              jump\t// in\n            tag_41:\n              mload(0x40)\n              dup1\n              swap2\n              sub\n              swap1\n              return\n                /* \"HealthHub.sol\":1304:1797  function makeRequest(address add, uint index) public {\r... */\n            tag_9:\n              tag_43\n              0x04\n              dup1\n              calldatasize\n              sub\n              dup2\n              add\n              swap1\n              tag_44\n              swap2\n              swap1\n              tag_45\n              jump\t// in\n            tag_44:\n              tag_46\n              jump\t// in\n            tag_43:\n              stop\n                /* \"HealthHub.sol\":535:577  mapping(address => bool) public requesters */\n            tag_10:\n              tag_47\n              0x04\n              dup1\n              calldatasize\n              sub\n              dup2\n              add\n              swap1\n              tag_48\n              swap2\n              swap1\n              tag_49\n              jump\t// in\n            tag_48:\n              tag_50\n              jump\t// in\n            tag_47:\n              mload(0x40)\n              tag_51\n              swap2\n              swap1\n              tag_52\n              jump\t// in\n            tag_51:\n              mload(0x40)\n              dup1\n              swap2\n              sub\n              swap1\n              return\n                /* \"HealthHub.sol\":584:611  uint public requestersCount */\n            tag_11:\n              tag_53\n              tag_54\n              jump\t// in\n            tag_53:\n              mload(0x40)\n              tag_55\n              swap2\n              swap1\n              tag_37\n              jump\t// in\n            tag_55:\n              mload(0x40)\n              dup1\n              swap2\n              sub\n              swap1\n              return\n                /* \"HealthHub.sol\":1008:1292  function createData (string memory description) public {\r... */\n            tag_12:\n              tag_56\n              0x04\n              dup1\n              calldatasize\n              sub\n              dup2\n              add\n              swap1\n              tag_57\n              swap2\n              swap1\n              tag_58\n              jump\t// in\n            tag_57:\n              tag_59\n              jump\t// in\n            tag_56:\n              stop\n                /* \"HealthHub.sol\":961:995  mapping (uint => Data) public data */\n            tag_13:\n              tag_60\n              0x04\n              dup1\n              calldatasize\n              sub\n              dup2\n              add\n              swap1\n              tag_61\n              swap2\n              swap1\n              tag_17\n              jump\t// in\n            tag_61:\n              tag_62\n              jump\t// in\n            tag_60:\n              mload(0x40)\n              tag_63\n              swap4\n              swap3\n              swap2\n              swap1\n              tag_64\n              jump\t// in\n            tag_63:\n              mload(0x40)\n              dup1\n              swap2\n              sub\n              swap1\n              return\n                /* \"HealthHub.sol\":2263:2474  function dispayData(uint index) public {\r... */\n            tag_18:\n                /* \"HealthHub.sol\":2345:2355  msg.sender */\n              caller\n                /* \"HealthHub.sol\":2322:2355  data[index].manager == msg.sender */\n              0xffffffffffffffffffffffffffffffffffffffff\n              and\n                /* \"HealthHub.sol\":2322:2326  data */\n              0x04\n                /* \"HealthHub.sol\":2322:2333  data[index] */\n              0x00\n                /* \"HealthHub.sol\":2327:2332  index */\n              dup4\n                /* \"HealthHub.sol\":2322:2333  data[index] */\n              dup2\n              mstore\n              0x20\n              add\n              swap1\n              dup2\n              mstore\n              0x20\n              add\n              0x00\n              keccak256\n                /* \"HealthHub.sol\":2322:2341  data[index].manager */\n              0x04\n              add\n              0x00\n              swap1\n              sload\n              swap1\n              0x0100\n              exp\n              swap1\n              div\n              0xffffffffffffffffffffffffffffffffffffffff\n              and\n                /* \"HealthHub.sol\":2322:2355  data[index].manager == msg.sender */\n              0xffffffffffffffffffffffffffffffffffffffff\n              and\n              eq\n                /* \"HealthHub.sol\":2321:2399  (data[index].manager == msg.sender) || (data[index].finalApproved[msg.sender]) */\n              dup1\n              tag_66\n              jumpi\n              pop\n                /* \"HealthHub.sol\":2361:2365  data */\n              0x04\n                /* \"HealthHub.sol\":2361:2372  data[index] */\n              0x00\n                /* \"HealthHub.sol\":2366:2371  index */\n              dup3\n                /* \"HealthHub.sol\":2361:2372  data[index] */\n              dup2\n              mstore\n              0x20\n              add\n              swap1\n              dup2\n              mstore\n              0x20\n              add\n              0x00\n              keccak256\n                /* \"HealthHub.sol\":2361:2386  data[index].finalApproved */\n              0x02\n              add\n                /* \"HealthHub.sol\":2361:2398  data[index].finalApproved[msg.sender] */\n              0x00\n                /* \"HealthHub.sol\":2387:2397  msg.sender */\n              caller\n                /* \"HealthHub.sol\":2361:2398  data[index].finalApproved[msg.sender] */\n              0xffffffffffffffffffffffffffffffffffffffff\n              and\n              0xffffffffffffffffffffffffffffffffffffffff\n              and\n              dup2\n              mstore\n              0x20\n              add\n              swap1\n              dup2\n              mstore\n              0x20\n              add\n              0x00\n              keccak256\n              0x00\n              swap1\n              sload\n              swap1\n              0x0100\n              exp\n              swap1\n              div\n              0xff\n              and\n                /* \"HealthHub.sol\":2321:2399  (data[index].manager == msg.sender) || (data[index].finalApproved[msg.sender]) */\n            tag_66:\n                /* \"HealthHub.sol\":2313:2400  require((data[index].manager == msg.sender) || (data[index].finalApproved[msg.sender])) */\n              tag_67\n              jumpi\n              0x00\n              dup1\n              revert\n            tag_67:\n                /* \"HealthHub.sol\":2416:2466  DATA(data[index].description, data[index].manager) */\n              0x5dd8f520b99936208713d8c2be2e573016bbd1c7ebc3bba173d637bbf9f5e880\n                /* \"HealthHub.sol\":2421:2425  data */\n              0x04\n                /* \"HealthHub.sol\":2421:2432  data[index] */\n              0x00\n                /* \"HealthHub.sol\":2426:2431  index */\n              dup4\n                /* \"HealthHub.sol\":2421:2432  data[index] */\n              dup2\n              mstore\n              0x20\n              add\n              swap1\n              dup2\n              mstore\n              0x20\n              add\n              0x00\n              keccak256\n                /* \"HealthHub.sol\":2421:2444  data[index].description */\n              0x00\n              add\n                /* \"HealthHub.sol\":2446:2450  data */\n              0x04\n                /* \"HealthHub.sol\":2446:2457  data[index] */\n              0x00\n                /* \"HealthHub.sol\":2451:2456  index */\n              dup5\n                /* \"HealthHub.sol\":2446:2457  data[index] */\n              dup2\n              mstore\n              0x20\n              add\n              swap1\n              dup2\n              mstore\n              0x20\n              add\n              0x00\n              keccak256\n                /* \"HealthHub.sol\":2446:2465  data[index].manager */\n              0x04\n              add\n              0x00\n              swap1\n              sload\n              swap1\n              0x0100\n              exp\n              swap1\n              div\n              0xffffffffffffffffffffffffffffffffffffffff\n              and\n                /* \"HealthHub.sol\":2416:2466  DATA(data[index].description, data[index].manager) */\n              mload(0x40)\n              tag_68\n              swap3\n              swap2\n              swap1\n              tag_69\n              jump\t// in\n            tag_68:\n              mload(0x40)\n              dup1\n              swap2\n              sub\n              swap1\n              log1\n                /* \"HealthHub.sol\":2263:2474  function dispayData(uint index) public {\r... */\n              pop\n              jump\t// out\n                /* \"HealthHub.sol\":1809:1977  function finalizeRequest(uint index, address req) public {\r... */\n            tag_22:\n                /* \"HealthHub.sol\":1908:1918  msg.sender */\n              caller\n                /* \"HealthHub.sol\":1885:1918  data[index].manager == msg.sender */\n              0xffffffffffffffffffffffffffffffffffffffff\n              and\n                /* \"HealthHub.sol\":1885:1889  data */\n              0x04\n                /* \"HealthHub.sol\":1885:1896  data[index] */\n              0x00\n                /* \"HealthHub.sol\":1890:1895  index */\n              dup5\n                /* \"HealthHub.sol\":1885:1896  data[index] */\n              dup2\n              mstore\n              0x20\n              add\n              swap1\n              dup2\n              mstore\n              0x20\n              add\n              0x00\n              keccak256\n                /* \"HealthHub.sol\":1885:1904  data[index].manager */\n              0x04\n              add\n              0x00\n              swap1\n              sload\n              swap1\n              0x0100\n              exp\n              swap1\n              div\n              0xffffffffffffffffffffffffffffffffffffffff\n              and\n                /* \"HealthHub.sol\":1885:1918  data[index].manager == msg.sender */\n              0xffffffffffffffffffffffffffffffffffffffff\n              and\n              eq\n                /* \"HealthHub.sol\":1877:1919  require(data[index].manager == msg.sender) */\n              tag_71\n              jumpi\n              0x00\n              dup1\n              revert\n            tag_71:\n                /* \"HealthHub.sol\":1965:1969  true */\n              0x01\n                /* \"HealthHub.sol\":1932:1936  data */\n              0x04\n                /* \"HealthHub.sol\":1932:1943  data[index] */\n              0x00\n                /* \"HealthHub.sol\":1937:1942  index */\n              dup5\n                /* \"HealthHub.sol\":1932:1943  data[index] */\n              dup2\n              mstore\n              0x20\n              add\n              swap1\n              dup2\n              mstore\n              0x20\n              add\n              0x00\n              keccak256\n                /* \"HealthHub.sol\":1932:1957  data[index].finalApproved */\n              0x02\n              add\n                /* \"HealthHub.sol\":1932:1962  data[index].finalApproved[req] */\n              0x00\n                /* \"HealthHub.sol\":1958:1961  req */\n              dup4\n                /* \"HealthHub.sol\":1932:1962  data[index].finalApproved[req] */\n              0xffffffffffffffffffffffffffffffffffffffff\n              and\n              0xffffffffffffffffffffffffffffffffffffffff\n              and\n              dup2\n              mstore\n              0x20\n              add\n              swap1\n              dup2\n              mstore\n              0x20\n              add\n              0x00\n              keccak256\n              0x00\n                /* \"HealthHub.sol\":1932:1969  data[index].finalApproved[req] = true */\n              0x0100\n              exp\n              dup2\n              sload\n              dup2\n              0xff\n              mul\n              not\n              and\n              swap1\n              dup4\n              iszero\n              iszero\n              mul\n              or\n              swap1\n              sstore\n              pop\n                /* \"HealthHub.sol\":1809:1977  function finalizeRequest(uint index, address req) public {\r... */\n              pop\n              pop\n              jump\t// out\n                /* \"HealthHub.sol\":498:528  address[] public requestersAdd */\n            tag_25:\n              0x00\n              dup2\n              dup2\n              sload\n              dup2\n              lt\n              tag_72\n              jumpi\n              0x00\n              dup1\n              revert\n            tag_72:\n              swap1\n              0x00\n              mstore\n              keccak256(0x00, 0x20)\n              add\n              0x00\n              swap2\n              pop\n              sload\n              swap1\n              0x0100\n              exp\n              swap1\n              div\n              0xffffffffffffffffffffffffffffffffffffffff\n              and\n              dup2\n              jump\t// out\n                /* \"HealthHub.sol\":1985:2251  function requests(uint index) public view returns(address, bool, bool) {\r... */\n            tag_30:\n                /* \"HealthHub.sol\":2035:2042  address */\n              0x00\n                /* \"HealthHub.sol\":2044:2048  bool */\n              dup1\n                /* \"HealthHub.sol\":2050:2054  bool */\n              0x00\n                /* \"HealthHub.sol\":2089:2102  requestersAdd */\n              dup1\n                /* \"HealthHub.sol\":2103:2108  index */\n              dup5\n                /* \"HealthHub.sol\":2089:2109  requestersAdd[index] */\n              dup2\n              sload\n              dup2\n              lt\n              tag_75\n              jumpi\n              mstore(0x00, 0x4e487b7100000000000000000000000000000000000000000000000000000000)\n              mstore(0x04, 0x32)\n              revert(0x00, 0x24)\n            tag_75:\n              swap1\n              0x00\n              mstore\n              keccak256(0x00, 0x20)\n              add\n              0x00\n              swap1\n              sload\n              swap1\n              0x0100\n              exp\n              swap1\n              div\n              0xffffffffffffffffffffffffffffffffffffffff\n              and\n                /* \"HealthHub.sol\":2124:2128  data */\n              0x04\n                /* \"HealthHub.sol\":2124:2135  data[index] */\n              0x00\n                /* \"HealthHub.sol\":2129:2134  index */\n              dup7\n                /* \"HealthHub.sol\":2124:2135  data[index] */\n              dup2\n              mstore\n              0x20\n              add\n              swap1\n              dup2\n              mstore\n              0x20\n              add\n              0x00\n              keccak256\n                /* \"HealthHub.sol\":2124:2148  data[index].requestsMade */\n              0x01\n              add\n                /* \"HealthHub.sol\":2124:2170  data[index].requestsMade[requestersAdd[index]] */\n              0x00\n                /* \"HealthHub.sol\":2149:2162  requestersAdd */\n              dup1\n                /* \"HealthHub.sol\":2163:2168  index */\n              dup8\n                /* \"HealthHub.sol\":2149:2169  requestersAdd[index] */\n              dup2\n              sload\n              dup2\n              lt\n              tag_77\n              jumpi\n              mstore(0x00, 0x4e487b7100000000000000000000000000000000000000000000000000000000)\n              mstore(0x04, 0x32)\n              revert(0x00, 0x24)\n            tag_77:\n              swap1\n              0x00\n              mstore\n              keccak256(0x00, 0x20)\n              add\n              0x00\n              swap1\n              sload\n              swap1\n              0x0100\n              exp\n              swap1\n              div\n              0xffffffffffffffffffffffffffffffffffffffff\n              and\n                /* \"HealthHub.sol\":2124:2170  data[index].requestsMade[requestersAdd[index]] */\n              0xffffffffffffffffffffffffffffffffffffffff\n              and\n              0xffffffffffffffffffffffffffffffffffffffff\n              and\n              dup2\n              mstore\n              0x20\n              add\n              swap1\n              dup2\n              mstore\n              0x20\n              add\n              0x00\n              keccak256\n              0x00\n              swap1\n              sload\n              swap1\n              0x0100\n              exp\n              swap1\n              div\n              0xff\n              and\n                /* \"HealthHub.sol\":2185:2189  data */\n              0x04\n                /* \"HealthHub.sol\":2185:2196  data[index] */\n              0x00\n                /* \"HealthHub.sol\":2190:2195  index */\n              dup8\n                /* \"HealthHub.sol\":2185:2196  data[index] */\n              dup2\n              mstore\n              0x20\n              add\n              swap1\n              dup2\n              mstore\n              0x20\n              add\n              0x00\n              keccak256\n                /* \"HealthHub.sol\":2185:2210  data[index].finalApproved */\n              0x02\n              add\n                /* \"HealthHub.sol\":2185:2232  data[index].finalApproved[requestersAdd[index]] */\n              0x00\n                /* \"HealthHub.sol\":2211:2224  requestersAdd */\n              dup1\n                /* \"HealthHub.sol\":2225:2230  index */\n              dup9\n                /* \"HealthHub.sol\":2211:2231  requestersAdd[index] */\n              dup2\n              sload\n              dup2\n              lt\n              tag_79\n              jumpi\n              mstore(0x00, 0x4e487b7100000000000000000000000000000000000000000000000000000000)\n              mstore(0x04, 0x32)\n              revert(0x00, 0x24)\n            tag_79:\n              swap1\n              0x00\n              mstore\n              keccak256(0x00, 0x20)\n              add\n              0x00\n              swap1\n              sload\n              swap1\n              0x0100\n              exp\n              swap1\n              div\n              0xffffffffffffffffffffffffffffffffffffffff\n              and\n                /* \"HealthHub.sol\":2185:2232  data[index].finalApproved[requestersAdd[index]] */\n              0xffffffffffffffffffffffffffffffffffffffff\n              and\n              0xffffffffffffffffffffffffffffffffffffffff\n              and\n              dup2\n              mstore\n              0x20\n              add\n              swap1\n              dup2\n              mstore\n              0x20\n              add\n              0x00\n              keccak256\n              0x00\n              swap1\n              sload\n              swap1\n              0x0100\n              exp\n              swap1\n              div\n              0xff\n              and\n                /* \"HealthHub.sol\":2067:2243  return (\r... */\n              swap3\n              pop\n              swap3\n              pop\n              swap3\n              pop\n                /* \"HealthHub.sol\":1985:2251  function requests(uint index) public view returns(address, bool, bool) {\r... */\n              swap2\n              swap4\n              swap1\n              swap3\n              pop\n              jump\t// out\n                /* \"HealthHub.sol\":2769:2889  function getRequestsCount(uint index) public view returns (uint) {\r... */\n            tag_35:\n                /* \"HealthHub.sol\":2828:2832  uint */\n              0x00\n                /* \"HealthHub.sol\":2852:2856  data */\n              0x04\n                /* \"HealthHub.sol\":2852:2863  data[index] */\n              0x00\n                /* \"HealthHub.sol\":2857:2862  index */\n              dup4\n                /* \"HealthHub.sol\":2852:2863  data[index] */\n              dup2\n              mstore\n              0x20\n              add\n              swap1\n              dup2\n              mstore\n              0x20\n              add\n              0x00\n              keccak256\n                /* \"HealthHub.sol\":2852:2881  data[index].requestsMadeCount */\n              0x03\n              add\n              sload\n                /* \"HealthHub.sol\":2845:2881  return data[index].requestsMadeCount */\n              swap1\n              pop\n                /* \"HealthHub.sol\":2769:2889  function getRequestsCount(uint index) public view returns (uint) {\r... */\n              swap2\n              swap1\n              pop\n              jump\t// out\n                /* \"HealthHub.sol\":2482:2757  function getSummary (uint index) public view returns(string memory, address, uint) {\r... */\n            tag_40:\n                /* \"HealthHub.sol\":2535:2548  string memory */\n              0x60\n                /* \"HealthHub.sol\":2550:2557  address */\n              0x00\n                /* \"HealthHub.sol\":2559:2563  uint */\n              dup1\n                /* \"HealthHub.sol\":2576:2590  Data storage r */\n              0x00\n                /* \"HealthHub.sol\":2593:2597  data */\n              0x04\n                /* \"HealthHub.sol\":2593:2604  data[index] */\n              0x00\n                /* \"HealthHub.sol\":2598:2603  index */\n              dup7\n                /* \"HealthHub.sol\":2593:2604  data[index] */\n              dup2\n              mstore\n              0x20\n              add\n              swap1\n              dup2\n              mstore\n              0x20\n              add\n              0x00\n              keccak256\n                /* \"HealthHub.sol\":2576:2604  Data storage r = data[index] */\n              swap1\n              pop\n                /* \"HealthHub.sol\":2667:2668  r */\n              dup1\n                /* \"HealthHub.sol\":2667:2680  r.description */\n              0x00\n              add\n                /* \"HealthHub.sol\":2695:2696  r */\n              dup2\n                /* \"HealthHub.sol\":2695:2704  r.manager */\n              0x04\n              add\n              0x00\n              swap1\n              sload\n              swap1\n              0x0100\n              exp\n              swap1\n              div\n              0xffffffffffffffffffffffffffffffffffffffff\n              and\n                /* \"HealthHub.sol\":2719:2720  r */\n              dup3\n                /* \"HealthHub.sol\":2719:2738  r.requestsMadeCount */\n              0x03\n              add\n              sload\n                /* \"HealthHub.sol\":2615:2749  return (\r... */\n              dup3\n              dup1\n              sload\n              tag_83\n              swap1\n              tag_84\n              jump\t// in\n            tag_83:\n              dup1\n              0x1f\n              add\n              0x20\n              dup1\n              swap2\n              div\n              mul\n              0x20\n              add\n              mload(0x40)\n              swap1\n              dup2\n              add\n              0x40\n              mstore\n              dup1\n              swap3\n              swap2\n              swap1\n              dup2\n              dup2\n              mstore\n              0x20\n              add\n              dup3\n              dup1\n              sload\n              tag_85\n              swap1\n              tag_84\n              jump\t// in\n            tag_85:\n              dup1\n              iszero\n              tag_86\n              jumpi\n              dup1\n              0x1f\n              lt\n              tag_87\n              jumpi\n              0x0100\n              dup1\n              dup4\n              sload\n              div\n              mul\n              dup4\n              mstore\n              swap2\n              0x20\n              add\n              swap2\n              jump(tag_86)\n            tag_87:\n              dup3\n              add\n              swap2\n              swap1\n              0x00\n              mstore\n              keccak256(0x00, 0x20)\n              swap1\n            tag_88:\n              dup2\n              sload\n              dup2\n              mstore\n              swap1\n              0x01\n              add\n              swap1\n              0x20\n              add\n              dup1\n              dup4\n              gt\n              tag_88\n              jumpi\n              dup3\n              swap1\n              sub\n              0x1f\n              and\n              dup3\n              add\n              swap2\n            tag_86:\n              pop\n              pop\n              pop\n              pop\n              pop\n              swap3\n              pop\n              swap4\n              pop\n              swap4\n              pop\n              swap4\n              pop\n              pop\n                /* \"HealthHub.sol\":2482:2757  function getSummary (uint index) public view returns(string memory, address, uint) {\r... */\n              swap2\n              swap4\n              swap1\n              swap3\n              pop\n              jump\t// out\n                /* \"HealthHub.sol\":1304:1797  function makeRequest(address add, uint index) public {\r... */\n            tag_46:\n                /* \"HealthHub.sol\":1568:1572  data */\n              0x04\n                /* \"HealthHub.sol\":1568:1579  data[index] */\n              0x00\n                /* \"HealthHub.sol\":1573:1578  index */\n              dup3\n                /* \"HealthHub.sol\":1568:1579  data[index] */\n              dup2\n              mstore\n              0x20\n              add\n              swap1\n              dup2\n              mstore\n              0x20\n              add\n              0x00\n              keccak256\n                /* \"HealthHub.sol\":1568:1592  data[index].requestsMade */\n              0x01\n              add\n                /* \"HealthHub.sol\":1568:1597  data[index].requestsMade[add] */\n              0x00\n                /* \"HealthHub.sol\":1593:1596  add */\n              dup4\n                /* \"HealthHub.sol\":1568:1597  data[index].requestsMade[add] */\n              0xffffffffffffffffffffffffffffffffffffffff\n              and\n              0xffffffffffffffffffffffffffffffffffffffff\n              and\n              dup2\n              mstore\n              0x20\n              add\n              swap1\n              dup2\n              mstore\n              0x20\n              add\n              0x00\n              keccak256\n              0x00\n              swap1\n              sload\n              swap1\n              0x0100\n              exp\n              swap1\n              div\n              0xff\n              and\n                /* \"HealthHub.sol\":1567:1597  !data[index].requestsMade[add] */\n              iszero\n                /* \"HealthHub.sol\":1559:1598  require(!data[index].requestsMade[add]) */\n              tag_90\n              jumpi\n              0x00\n              dup1\n              revert\n            tag_90:\n                /* \"HealthHub.sol\":1709:1713  true */\n              0x01\n                /* \"HealthHub.sol\":1677:1681  data */\n              0x04\n                /* \"HealthHub.sol\":1677:1688  data[index] */\n              0x00\n                /* \"HealthHub.sol\":1682:1687  index */\n              dup4\n                /* \"HealthHub.sol\":1677:1688  data[index] */\n              dup2\n              mstore\n              0x20\n              add\n              swap1\n              dup2\n              mstore\n              0x20\n              add\n              0x00\n              keccak256\n                /* \"HealthHub.sol\":1677:1701  data[index].requestsMade */\n              0x01\n              add\n                /* \"HealthHub.sol\":1677:1706  data[index].requestsMade[add] */\n              0x00\n                /* \"HealthHub.sol\":1702:1705  add */\n              dup5\n                /* \"HealthHub.sol\":1677:1706  data[index].requestsMade[add] */\n              0xffffffffffffffffffffffffffffffffffffffff\n              and\n              0xffffffffffffffffffffffffffffffffffffffff\n              and\n              dup2\n              mstore\n              0x20\n              add\n              swap1\n              dup2\n              mstore\n              0x20\n              add\n              0x00\n              keccak256\n              0x00\n                /* \"HealthHub.sol\":1677:1713  data[index].requestsMade[add] = true */\n              0x0100\n              exp\n              dup2\n              sload\n              dup2\n              0xff\n              mul\n              not\n              and\n              swap1\n              dup4\n              iszero\n              iszero\n              mul\n              or\n              swap1\n              sstore\n              pop\n                /* \"HealthHub.sol\":1724:1728  data */\n              0x04\n                /* \"HealthHub.sol\":1724:1735  data[index] */\n              0x00\n                /* \"HealthHub.sol\":1729:1734  index */\n              dup3\n                /* \"HealthHub.sol\":1724:1735  data[index] */\n              dup2\n              mstore\n              0x20\n              add\n              swap1\n              dup2\n              mstore\n              0x20\n              add\n              0x00\n              keccak256\n                /* \"HealthHub.sol\":1724:1753  data[index].requestsMadeCount */\n              0x03\n              add\n              0x00\n                /* \"HealthHub.sol\":1724:1755  data[index].requestsMadeCount++ */\n              dup2\n              sload\n              dup1\n              swap3\n              swap2\n              swap1\n              tag_91\n              swap1\n              tag_92\n              jump\t// in\n            tag_91:\n              swap2\n              swap1\n              pop\n              sstore\n              pop\n                /* \"HealthHub.sol\":1766:1779  requestersAdd */\n              0x00\n                /* \"HealthHub.sol\":1785:1788  add */\n              dup3\n                /* \"HealthHub.sol\":1766:1789  requestersAdd.push(add) */\n              swap1\n              dup1\n              0x01\n              dup2\n              sload\n              add\n              dup1\n              dup3\n              sstore\n              dup1\n              swap2\n              pop\n              pop\n              0x01\n              swap1\n              sub\n              swap1\n              0x00\n              mstore\n              keccak256(0x00, 0x20)\n              add\n              0x00\n              swap1\n              swap2\n              swap1\n              swap2\n              swap1\n              swap2\n              0x0100\n              exp\n              dup2\n              sload\n              dup2\n              0xffffffffffffffffffffffffffffffffffffffff\n              mul\n              not\n              and\n              swap1\n              dup4\n              0xffffffffffffffffffffffffffffffffffffffff\n              and\n              mul\n              or\n              swap1\n              sstore\n              pop\n                /* \"HealthHub.sol\":1304:1797  function makeRequest(address add, uint index) public {\r... */\n              pop\n              pop\n              jump\t// out\n                /* \"HealthHub.sol\":535:577  mapping(address => bool) public requesters */\n            tag_50:\n              mstore(0x20, 0x01)\n              dup1\n              0x00\n              mstore\n              keccak256(0x00, 0x40)\n              0x00\n              swap2\n              pop\n              sload\n              swap1\n              0x0100\n              exp\n              swap1\n              div\n              0xff\n              and\n              dup2\n              jump\t// out\n                /* \"HealthHub.sol\":584:611  uint public requestersCount */\n            tag_54:\n              sload(0x02)\n              dup2\n              jump\t// out\n                /* \"HealthHub.sol\":1008:1292  function createData (string memory description) public {\r... */\n            tag_59:\n                /* \"HealthHub.sol\":1099:1103  true */\n              0x01\n                /* \"HealthHub.sol\":1074:1084  requesters */\n              dup1\n                /* \"HealthHub.sol\":1074:1096  requesters[msg.sender] */\n              0x00\n                /* \"HealthHub.sol\":1085:1095  msg.sender */\n              caller\n                /* \"HealthHub.sol\":1074:1096  requesters[msg.sender] */\n              0xffffffffffffffffffffffffffffffffffffffff\n              and\n              0xffffffffffffffffffffffffffffffffffffffff\n              and\n              dup2\n              mstore\n              0x20\n              add\n              swap1\n              dup2\n              mstore\n              0x20\n              add\n              0x00\n              keccak256\n              0x00\n                /* \"HealthHub.sol\":1074:1103  requesters[msg.sender] = true */\n              0x0100\n              exp\n              dup2\n              sload\n              dup2\n              0xff\n              mul\n              not\n              and\n              swap1\n              dup4\n              iszero\n              iszero\n              mul\n              or\n              swap1\n              sstore\n              pop\n                /* \"HealthHub.sol\":1114:1129  requestersCount */\n              0x02\n              0x00\n                /* \"HealthHub.sol\":1114:1131  requestersCount++ */\n              dup2\n              sload\n              dup1\n              swap3\n              swap2\n              swap1\n              tag_95\n              swap1\n              tag_92\n              jump\t// in\n            tag_95:\n              swap2\n              swap1\n              pop\n              sstore\n              pop\n                /* \"HealthHub.sol\":1142:1156  Data storage r */\n              0x00\n                /* \"HealthHub.sol\":1159:1163  data */\n              0x04\n                /* \"HealthHub.sol\":1159:1178  data[numRequests++] */\n              0x00\n                /* \"HealthHub.sol\":1164:1175  numRequests */\n              0x03\n              0x00\n                /* \"HealthHub.sol\":1164:1177  numRequests++ */\n              dup2\n              sload\n              dup1\n              swap3\n              swap2\n              swap1\n              tag_96\n              swap1\n              tag_92\n              jump\t// in\n            tag_96:\n              swap2\n              swap1\n              pop\n              sstore\n                /* \"HealthHub.sol\":1159:1178  data[numRequests++] */\n              dup2\n              mstore\n              0x20\n              add\n              swap1\n              dup2\n              mstore\n              0x20\n              add\n              0x00\n              keccak256\n                /* \"HealthHub.sol\":1142:1178  Data storage r = data[numRequests++] */\n              swap1\n              pop\n                /* \"HealthHub.sol\":1205:1216  description */\n              dup2\n                /* \"HealthHub.sol\":1189:1190  r */\n              dup2\n                /* \"HealthHub.sol\":1189:1202  r.description */\n              0x00\n              add\n                /* \"HealthHub.sol\":1189:1216  r.description = description */\n              swap1\n              dup1\n              mload\n              swap1\n              0x20\n              add\n              swap1\n              tag_97\n              swap3\n              swap2\n              swap1\n              tag_98\n              jump\t// in\n            tag_97:\n              pop\n                /* \"HealthHub.sol\":1249:1250  0 */\n              0x00\n                /* \"HealthHub.sol\":1227:1228  r */\n              dup2\n                /* \"HealthHub.sol\":1227:1246  r.requestsMadeCount */\n              0x03\n              add\n                /* \"HealthHub.sol\":1227:1250  r.requestsMadeCount = 0 */\n              dup2\n              swap1\n              sstore\n              pop\n                /* \"HealthHub.sol\":1273:1283  msg.sender */\n              caller\n                /* \"HealthHub.sol\":1261:1262  r */\n              dup2\n                /* \"HealthHub.sol\":1261:1270  r.manager */\n              0x04\n              add\n              0x00\n                /* \"HealthHub.sol\":1261:1283  r.manager = msg.sender */\n              0x0100\n              exp\n              dup2\n              sload\n              dup2\n              0xffffffffffffffffffffffffffffffffffffffff\n              mul\n              not\n              and\n              swap1\n              dup4\n              0xffffffffffffffffffffffffffffffffffffffff\n              and\n              mul\n              or\n              swap1\n              sstore\n              pop\n                /* \"HealthHub.sol\":1008:1292  function createData (string memory description) public {\r... */\n              pop\n              pop\n              jump\t// out\n                /* \"HealthHub.sol\":961:995  mapping (uint => Data) public data */\n            tag_62:\n              mstore(0x20, 0x04)\n              dup1\n              0x00\n              mstore\n              keccak256(0x00, 0x40)\n              0x00\n              swap2\n              pop\n              swap1\n              pop\n              dup1\n              0x00\n              add\n              dup1\n              sload\n              tag_99\n              swap1\n              tag_84\n              jump\t// in\n            tag_99:\n              dup1\n              0x1f\n              add\n              0x20\n              dup1\n              swap2\n              div\n              mul\n              0x20\n              add\n              mload(0x40)\n              swap1\n              dup2\n              add\n              0x40\n              mstore\n              dup1\n              swap3\n              swap2\n              swap1\n              dup2\n              dup2\n              mstore\n              0x20\n              add\n              dup3\n              dup1\n              sload\n              tag_100\n              swap1\n              tag_84\n              jump\t// in\n            tag_100:\n              dup1\n              iszero\n              tag_101\n              jumpi\n              dup1\n              0x1f\n              lt\n              tag_102\n              jumpi\n              0x0100\n              dup1\n              dup4\n              sload\n              div\n              mul\n              dup4\n              mstore\n              swap2\n              0x20\n              add\n              swap2\n              jump(tag_101)\n            tag_102:\n              dup3\n              add\n              swap2\n              swap1\n              0x00\n              mstore\n              keccak256(0x00, 0x20)\n              swap1\n            tag_103:\n              dup2\n              sload\n              dup2\n              mstore\n              swap1\n              0x01\n              add\n              swap1\n              0x20\n              add\n              dup1\n              dup4\n              gt\n              tag_103\n              jumpi\n              dup3\n              swap1\n              sub\n              0x1f\n              and\n              dup3\n              add\n              swap2\n            tag_101:\n              pop\n              pop\n              pop\n              pop\n              pop\n              swap1\n              dup1\n              0x03\n              add\n              sload\n              swap1\n              dup1\n              0x04\n              add\n              0x00\n              swap1\n              sload\n              swap1\n              0x0100\n              exp\n              swap1\n              div\n              0xffffffffffffffffffffffffffffffffffffffff\n              and\n              swap1\n              pop\n              dup4\n              jump\t// out\n            tag_98:\n              dup3\n              dup1\n              sload\n              tag_104\n              swap1\n              tag_84\n              jump\t// in\n            tag_104:\n              swap1\n              0x00\n              mstore\n              keccak256(0x00, 0x20)\n              swap1\n              0x1f\n              add\n              0x20\n              swap1\n              div\n              dup2\n              add\n              swap3\n              dup3\n              tag_106\n              jumpi\n              0x00\n              dup6\n              sstore\n              jump(tag_105)\n            tag_106:\n              dup3\n              0x1f\n              lt\n              tag_107\n              jumpi\n              dup1\n              mload\n              not(0xff)\n              and\n              dup4\n              dup1\n              add\n              or\n              dup6\n              sstore\n              jump(tag_105)\n            tag_107:\n              dup3\n              dup1\n              add\n              0x01\n              add\n              dup6\n              sstore\n              dup3\n              iszero\n              tag_105\n              jumpi\n              swap2\n              dup3\n              add\n            tag_108:\n              dup3\n              dup2\n              gt\n              iszero\n              tag_109\n              jumpi\n              dup3\n              mload\n              dup3\n              sstore\n              swap2\n              0x20\n              add\n              swap2\n              swap1\n              0x01\n              add\n              swap1\n              jump(tag_108)\n            tag_109:\n            tag_105:\n              pop\n              swap1\n              pop\n              tag_110\n              swap2\n              swap1\n              tag_111\n              jump\t// in\n            tag_110:\n              pop\n              swap1\n              jump\t// out\n            tag_111:\n            tag_112:\n              dup1\n              dup3\n              gt\n              iszero\n              tag_113\n              jumpi\n              0x00\n              dup2\n              0x00\n              swap1\n              sstore\n              pop\n              0x01\n              add\n              jump(tag_112)\n            tag_113:\n              pop\n              swap1\n              jump\t// out\n                /* \"#utility.yul\":7:352   */\n            tag_115:\n                /* \"#utility.yul\":85:90   */\n              0x00\n                /* \"#utility.yul\":110:176   */\n              tag_117\n                /* \"#utility.yul\":126:175   */\n              tag_118\n                /* \"#utility.yul\":168:174   */\n              dup5\n                /* \"#utility.yul\":126:175   */\n              tag_119\n              jump\t// in\n            tag_118:\n                /* \"#utility.yul\":110:176   */\n              tag_120\n              jump\t// in\n            tag_117:\n                /* \"#utility.yul\":101:176   */\n              swap1\n              pop\n                /* \"#utility.yul\":199:205   */\n              dup3\n                /* \"#utility.yul\":192:197   */\n              dup2\n                /* \"#utility.yul\":185:206   */\n              mstore\n                /* \"#utility.yul\":237:241   */\n              0x20\n                /* \"#utility.yul\":230:235   */\n              dup2\n                /* \"#utility.yul\":226:242   */\n              add\n                /* \"#utility.yul\":275:278   */\n              dup5\n                /* \"#utility.yul\":266:272   */\n              dup5\n                /* \"#utility.yul\":261:264   */\n              dup5\n                /* \"#utility.yul\":257:273   */\n              add\n                /* \"#utility.yul\":254:279   */\n              gt\n                /* \"#utility.yul\":251:253   */\n              iszero\n              tag_121\n              jumpi\n                /* \"#utility.yul\":292:293   */\n              0x00\n                /* \"#utility.yul\":289:290   */\n              dup1\n                /* \"#utility.yul\":282:294   */\n              revert\n                /* \"#utility.yul\":251:253   */\n            tag_121:\n                /* \"#utility.yul\":305:346   */\n              tag_122\n                /* \"#utility.yul\":339:345   */\n              dup5\n                /* \"#utility.yul\":334:337   */\n              dup3\n                /* \"#utility.yul\":329:332   */\n              dup6\n                /* \"#utility.yul\":305:346   */\n              tag_123\n              jump\t// in\n            tag_122:\n                /* \"#utility.yul\":91:352   */\n              pop\n              swap4\n              swap3\n              pop\n              pop\n              pop\n              jump\t// out\n                /* \"#utility.yul\":358:497   */\n            tag_124:\n                /* \"#utility.yul\":404:409   */\n              0x00\n                /* \"#utility.yul\":442:448   */\n              dup2\n                /* \"#utility.yul\":429:449   */\n              calldataload\n                /* \"#utility.yul\":420:449   */\n              swap1\n              pop\n                /* \"#utility.yul\":458:491   */\n              tag_126\n                /* \"#utility.yul\":485:490   */\n              dup2\n                /* \"#utility.yul\":458:491   */\n              tag_127\n              jump\t// in\n            tag_126:\n                /* \"#utility.yul\":410:497   */\n              swap3\n              swap2\n              pop\n              pop\n              jump\t// out\n                /* \"#utility.yul\":517:790   */\n            tag_128:\n                /* \"#utility.yul\":573:578   */\n              0x00\n                /* \"#utility.yul\":622:625   */\n              dup3\n                /* \"#utility.yul\":615:619   */\n              0x1f\n                /* \"#utility.yul\":607:613   */\n              dup4\n                /* \"#utility.yul\":603:620   */\n              add\n                /* \"#utility.yul\":599:626   */\n              slt\n                /* \"#utility.yul\":589:591   */\n              tag_130\n              jumpi\n                /* \"#utility.yul\":640:641   */\n              0x00\n                /* \"#utility.yul\":637:638   */\n              dup1\n                /* \"#utility.yul\":630:642   */\n              revert\n                /* \"#utility.yul\":589:591   */\n            tag_130:\n                /* \"#utility.yul\":680:686   */\n              dup2\n                /* \"#utility.yul\":667:687   */\n              calldataload\n                /* \"#utility.yul\":705:784   */\n              tag_131\n                /* \"#utility.yul\":780:783   */\n              dup5\n                /* \"#utility.yul\":772:778   */\n              dup3\n                /* \"#utility.yul\":765:769   */\n              0x20\n                /* \"#utility.yul\":757:763   */\n              dup7\n                /* \"#utility.yul\":753:770   */\n              add\n                /* \"#utility.yul\":705:784   */\n              tag_115\n              jump\t// in\n            tag_131:\n                /* \"#utility.yul\":696:784   */\n              swap2\n              pop\n                /* \"#utility.yul\":579:790   */\n              pop\n              swap3\n              swap2\n              pop\n              pop\n              jump\t// out\n                /* \"#utility.yul\":796:935   */\n            tag_132:\n                /* \"#utility.yul\":842:847   */\n              0x00\n                /* \"#utility.yul\":880:886   */\n              dup2\n                /* \"#utility.yul\":867:887   */\n              calldataload\n                /* \"#utility.yul\":858:887   */\n              swap1\n              pop\n                /* \"#utility.yul\":896:929   */\n              tag_134\n                /* \"#utility.yul\":923:928   */\n              dup2\n                /* \"#utility.yul\":896:929   */\n              tag_135\n              jump\t// in\n            tag_134:\n                /* \"#utility.yul\":848:935   */\n              swap3\n              swap2\n              pop\n              pop\n              jump\t// out\n                /* \"#utility.yul\":941:1203   */\n            tag_49:\n                /* \"#utility.yul\":1000:1006   */\n              0x00\n                /* \"#utility.yul\":1049:1051   */\n              0x20\n                /* \"#utility.yul\":1037:1046   */\n              dup3\n                /* \"#utility.yul\":1028:1035   */\n              dup5\n                /* \"#utility.yul\":1024:1047   */\n              sub\n                /* \"#utility.yul\":1020:1052   */\n              slt\n                /* \"#utility.yul\":1017:1019   */\n              iszero\n              tag_137\n              jumpi\n                /* \"#utility.yul\":1065:1066   */\n              0x00\n                /* \"#utility.yul\":1062:1063   */\n              dup1\n                /* \"#utility.yul\":1055:1067   */\n              revert\n                /* \"#utility.yul\":1017:1019   */\n            tag_137:\n                /* \"#utility.yul\":1108:1109   */\n              0x00\n                /* \"#utility.yul\":1133:1186   */\n              tag_138\n                /* \"#utility.yul\":1178:1185   */\n              dup5\n                /* \"#utility.yul\":1169:1175   */\n              dup3\n                /* \"#utility.yul\":1158:1167   */\n              dup6\n                /* \"#utility.yul\":1154:1176   */\n              add\n                /* \"#utility.yul\":1133:1186   */\n              tag_124\n              jump\t// in\n            tag_138:\n                /* \"#utility.yul\":1123:1186   */\n              swap2\n              pop\n                /* \"#utility.yul\":1079:1196   */\n              pop\n                /* \"#utility.yul\":1007:1203   */\n              swap3\n              swap2\n              pop\n              pop\n              jump\t// out\n                /* \"#utility.yul\":1209:1616   */\n            tag_45:\n                /* \"#utility.yul\":1277:1283   */\n              0x00\n                /* \"#utility.yul\":1285:1291   */\n              dup1\n                /* \"#utility.yul\":1334:1336   */\n              0x40\n                /* \"#utility.yul\":1322:1331   */\n              dup4\n                /* \"#utility.yul\":1313:1320   */\n              dup6\n                /* \"#utility.yul\":1309:1332   */\n              sub\n                /* \"#utility.yul\":1305:1337   */\n              slt\n                /* \"#utility.yul\":1302:1304   */\n              iszero\n              tag_140\n              jumpi\n                /* \"#utility.yul\":1350:1351   */\n              0x00\n                /* \"#utility.yul\":1347:1348   */\n              dup1\n                /* \"#utility.yul\":1340:1352   */\n              revert\n                /* \"#utility.yul\":1302:1304   */\n            tag_140:\n                /* \"#utility.yul\":1393:1394   */\n              0x00\n                /* \"#utility.yul\":1418:1471   */\n              tag_141\n                /* \"#utility.yul\":1463:1470   */\n              dup6\n                /* \"#utility.yul\":1454:1460   */\n              dup3\n                /* \"#utility.yul\":1443:1452   */\n              dup7\n                /* \"#utility.yul\":1439:1461   */\n              add\n                /* \"#utility.yul\":1418:1471   */\n              tag_124\n              jump\t// in\n            tag_141:\n                /* \"#utility.yul\":1408:1471   */\n              swap3\n              pop\n                /* \"#utility.yul\":1364:1481   */\n              pop\n                /* \"#utility.yul\":1520:1522   */\n              0x20\n                /* \"#utility.yul\":1546:1599   */\n              tag_142\n                /* \"#utility.yul\":1591:1598   */\n              dup6\n                /* \"#utility.yul\":1582:1588   */\n              dup3\n                /* \"#utility.yul\":1571:1580   */\n              dup7\n                /* \"#utility.yul\":1567:1589   */\n              add\n                /* \"#utility.yul\":1546:1599   */\n              tag_132\n              jump\t// in\n            tag_142:\n                /* \"#utility.yul\":1536:1599   */\n              swap2\n              pop\n                /* \"#utility.yul\":1491:1609   */\n              pop\n                /* \"#utility.yul\":1292:1616   */\n              swap3\n              pop\n              swap3\n              swap1\n              pop\n              jump\t// out\n                /* \"#utility.yul\":1622:1997   */\n            tag_58:\n                /* \"#utility.yul\":1691:1697   */\n              0x00\n                /* \"#utility.yul\":1740:1742   */\n              0x20\n                /* \"#utility.yul\":1728:1737   */\n              dup3\n                /* \"#utility.yul\":1719:1726   */\n              dup5\n                /* \"#utility.yul\":1715:1738   */\n              sub\n                /* \"#utility.yul\":1711:1743   */\n              slt\n                /* \"#utility.yul\":1708:1710   */\n              iszero\n              tag_144\n              jumpi\n                /* \"#utility.yul\":1756:1757   */\n              0x00\n                /* \"#utility.yul\":1753:1754   */\n              dup1\n                /* \"#utility.yul\":1746:1758   */\n              revert\n                /* \"#utility.yul\":1708:1710   */\n            tag_144:\n                /* \"#utility.yul\":1827:1828   */\n              0x00\n                /* \"#utility.yul\":1816:1825   */\n              dup3\n                /* \"#utility.yul\":1812:1829   */\n              add\n                /* \"#utility.yul\":1799:1830   */\n              calldataload\n                /* \"#utility.yul\":1857:1875   */\n              0xffffffffffffffff\n                /* \"#utility.yul\":1849:1855   */\n              dup2\n                /* \"#utility.yul\":1846:1876   */\n              gt\n                /* \"#utility.yul\":1843:1845   */\n              iszero\n              tag_145\n              jumpi\n                /* \"#utility.yul\":1889:1890   */\n              0x00\n                /* \"#utility.yul\":1886:1887   */\n              dup1\n                /* \"#utility.yul\":1879:1891   */\n              revert\n                /* \"#utility.yul\":1843:1845   */\n            tag_145:\n                /* \"#utility.yul\":1917:1980   */\n              tag_146\n                /* \"#utility.yul\":1972:1979   */\n              dup5\n                /* \"#utility.yul\":1963:1969   */\n              dup3\n                /* \"#utility.yul\":1952:1961   */\n              dup6\n                /* \"#utility.yul\":1948:1970   */\n              add\n                /* \"#utility.yul\":1917:1980   */\n              tag_128\n              jump\t// in\n            tag_146:\n                /* \"#utility.yul\":1907:1980   */\n              swap2\n              pop\n                /* \"#utility.yul\":1770:1990   */\n              pop\n                /* \"#utility.yul\":1698:1997   */\n              swap3\n              swap2\n              pop\n              pop\n              jump\t// out\n                /* \"#utility.yul\":2003:2265   */\n            tag_17:\n                /* \"#utility.yul\":2062:2068   */\n              0x00\n                /* \"#utility.yul\":2111:2113   */\n              0x20\n                /* \"#utility.yul\":2099:2108   */\n              dup3\n                /* \"#utility.yul\":2090:2097   */\n              dup5\n                /* \"#utility.yul\":2086:2109   */\n              sub\n                /* \"#utility.yul\":2082:2114   */\n              slt\n                /* \"#utility.yul\":2079:2081   */\n              iszero\n              tag_148\n              jumpi\n                /* \"#utility.yul\":2127:2128   */\n              0x00\n                /* \"#utility.yul\":2124:2125   */\n              dup1\n                /* \"#utility.yul\":2117:2129   */\n              revert\n                /* \"#utility.yul\":2079:2081   */\n            tag_148:\n                /* \"#utility.yul\":2170:2171   */\n              0x00\n                /* \"#utility.yul\":2195:2248   */\n              tag_149\n                /* \"#utility.yul\":2240:2247   */\n              dup5\n                /* \"#utility.yul\":2231:2237   */\n              dup3\n                /* \"#utility.yul\":2220:2229   */\n              dup6\n                /* \"#utility.yul\":2216:2238   */\n              add\n                /* \"#utility.yul\":2195:2248   */\n              tag_132\n              jump\t// in\n            tag_149:\n                /* \"#utility.yul\":2185:2248   */\n              swap2\n              pop\n                /* \"#utility.yul\":2141:2258   */\n              pop\n                /* \"#utility.yul\":2069:2265   */\n              swap3\n              swap2\n              pop\n              pop\n              jump\t// out\n                /* \"#utility.yul\":2271:2678   */\n            tag_21:\n                /* \"#utility.yul\":2339:2345   */\n              0x00\n                /* \"#utility.yul\":2347:2353   */\n              dup1\n                /* \"#utility.yul\":2396:2398   */\n              0x40\n                /* \"#utility.yul\":2384:2393   */\n              dup4\n                /* \"#utility.yul\":2375:2382   */\n              dup6\n                /* \"#utility.yul\":2371:2394   */\n              sub\n                /* \"#utility.yul\":2367:2399   */\n              slt\n                /* \"#utility.yul\":2364:2366   */\n              iszero\n              tag_151\n              jumpi\n                /* \"#utility.yul\":2412:2413   */\n              0x00\n                /* \"#utility.yul\":2409:2410   */\n              dup1\n                /* \"#utility.yul\":2402:2414   */\n              revert\n                /* \"#utility.yul\":2364:2366   */\n            tag_151:\n                /* \"#utility.yul\":2455:2456   */\n              0x00\n                /* \"#utility.yul\":2480:2533   */\n              tag_152\n                /* \"#utility.yul\":2525:2532   */\n              dup6\n                /* \"#utility.yul\":2516:2522   */\n              dup3\n                /* \"#utility.yul\":2505:2514   */\n              dup7\n                /* \"#utility.yul\":2501:2523   */\n              add\n                /* \"#utility.yul\":2480:2533   */\n              tag_132\n              jump\t// in\n            tag_152:\n                /* \"#utility.yul\":2470:2533   */\n              swap3\n              pop\n                /* \"#utility.yul\":2426:2543   */\n              pop\n                /* \"#utility.yul\":2582:2584   */\n              0x20\n                /* \"#utility.yul\":2608:2661   */\n              tag_153\n                /* \"#utility.yul\":2653:2660   */\n              dup6\n                /* \"#utility.yul\":2644:2650   */\n              dup3\n                /* \"#utility.yul\":2633:2642   */\n              dup7\n                /* \"#utility.yul\":2629:2651   */\n              add\n                /* \"#utility.yul\":2608:2661   */\n              tag_124\n              jump\t// in\n            tag_153:\n                /* \"#utility.yul\":2598:2661   */\n              swap2\n              pop\n                /* \"#utility.yul\":2553:2671   */\n              pop\n                /* \"#utility.yul\":2354:2678   */\n              swap3\n              pop\n              swap3\n              swap1\n              pop\n              jump\t// out\n                /* \"#utility.yul\":2684:2802   */\n            tag_154:\n                /* \"#utility.yul\":2771:2795   */\n              tag_156\n                /* \"#utility.yul\":2789:2794   */\n              dup2\n                /* \"#utility.yul\":2771:2795   */\n              tag_157\n              jump\t// in\n            tag_156:\n                /* \"#utility.yul\":2766:2769   */\n              dup3\n                /* \"#utility.yul\":2759:2796   */\n              mstore\n                /* \"#utility.yul\":2749:2802   */\n              pop\n              pop\n              jump\t// out\n                /* \"#utility.yul\":2808:2917   */\n            tag_158:\n                /* \"#utility.yul\":2889:2910   */\n              tag_160\n                /* \"#utility.yul\":2904:2909   */\n              dup2\n                /* \"#utility.yul\":2889:2910   */\n              tag_161\n              jump\t// in\n            tag_160:\n                /* \"#utility.yul\":2884:2887   */\n              dup3\n                /* \"#utility.yul\":2877:2911   */\n              mstore\n                /* \"#utility.yul\":2867:2917   */\n              pop\n              pop\n              jump\t// out\n                /* \"#utility.yul\":2923:3287   */\n            tag_162:\n                /* \"#utility.yul\":3011:3014   */\n              0x00\n                /* \"#utility.yul\":3039:3078   */\n              tag_164\n                /* \"#utility.yul\":3072:3077   */\n              dup3\n                /* \"#utility.yul\":3039:3078   */\n              tag_165\n              jump\t// in\n            tag_164:\n                /* \"#utility.yul\":3094:3165   */\n              tag_166\n                /* \"#utility.yul\":3158:3164   */\n              dup2\n                /* \"#utility.yul\":3153:3156   */\n              dup6\n                /* \"#utility.yul\":3094:3165   */\n              tag_167\n              jump\t// in\n            tag_166:\n                /* \"#utility.yul\":3087:3165   */\n              swap4\n              pop\n                /* \"#utility.yul\":3174:3226   */\n              tag_168\n                /* \"#utility.yul\":3219:3225   */\n              dup2\n                /* \"#utility.yul\":3214:3217   */\n              dup6\n                /* \"#utility.yul\":3207:3211   */\n              0x20\n                /* \"#utility.yul\":3200:3205   */\n              dup7\n                /* \"#utility.yul\":3196:3212   */\n              add\n                /* \"#utility.yul\":3174:3226   */\n              tag_169\n              jump\t// in\n            tag_168:\n                /* \"#utility.yul\":3251:3280   */\n              tag_170\n                /* \"#utility.yul\":3273:3279   */\n              dup2\n                /* \"#utility.yul\":3251:3280   */\n              tag_171\n              jump\t// in\n            tag_170:\n                /* \"#utility.yul\":3246:3249   */\n              dup5\n                /* \"#utility.yul\":3242:3281   */\n              add\n                /* \"#utility.yul\":3235:3281   */\n              swap2\n              pop\n                /* \"#utility.yul\":3015:3287   */\n              pop\n              swap3\n              swap2\n              pop\n              pop\n              jump\t// out\n                /* \"#utility.yul\":3317:4119   */\n            tag_172:\n                /* \"#utility.yul\":3402:3405   */\n              0x00\n                /* \"#utility.yul\":3439:3444   */\n              dup2\n                /* \"#utility.yul\":3433:3445   */\n              sload\n                /* \"#utility.yul\":3468:3504   */\n              tag_174\n                /* \"#utility.yul\":3494:3503   */\n              dup2\n                /* \"#utility.yul\":3468:3504   */\n              tag_84\n              jump\t// in\n            tag_174:\n                /* \"#utility.yul\":3520:3591   */\n              tag_175\n                /* \"#utility.yul\":3584:3590   */\n              dup2\n                /* \"#utility.yul\":3579:3582   */\n              dup7\n                /* \"#utility.yul\":3520:3591   */\n              tag_167\n              jump\t// in\n            tag_175:\n                /* \"#utility.yul\":3513:3591   */\n              swap5\n              pop\n                /* \"#utility.yul\":3622:3623   */\n              0x01\n                /* \"#utility.yul\":3611:3620   */\n              dup3\n                /* \"#utility.yul\":3607:3624   */\n              and\n                /* \"#utility.yul\":3638:3639   */\n              0x00\n                /* \"#utility.yul\":3633:3768   */\n              dup2\n              eq\n              tag_177\n              jumpi\n                /* \"#utility.yul\":3782:3783   */\n              0x01\n                /* \"#utility.yul\":3777:4113   */\n              dup2\n              eq\n              tag_178\n              jumpi\n                /* \"#utility.yul\":3600:4113   */\n              jump(tag_176)\n                /* \"#utility.yul\":3633:3768   */\n            tag_177:\n                /* \"#utility.yul\":3717:3721   */\n              0xff\n                /* \"#utility.yul\":3713:3722   */\n              not\n                /* \"#utility.yul\":3702:3711   */\n              dup4\n                /* \"#utility.yul\":3698:3723   */\n              and\n                /* \"#utility.yul\":3693:3696   */\n              dup7\n                /* \"#utility.yul\":3686:3724   */\n              mstore\n                /* \"#utility.yul\":3753:3757   */\n              0x20\n                /* \"#utility.yul\":3748:3751   */\n              dup7\n                /* \"#utility.yul\":3744:3758   */\n              add\n                /* \"#utility.yul\":3737:3758   */\n              swap4\n              pop\n                /* \"#utility.yul\":3633:3768   */\n              jump(tag_176)\n                /* \"#utility.yul\":3777:4113   */\n            tag_178:\n                /* \"#utility.yul\":3844:3882   */\n              tag_179\n                /* \"#utility.yul\":3876:3881   */\n              dup6\n                /* \"#utility.yul\":3844:3882   */\n              tag_180\n              jump\t// in\n            tag_179:\n                /* \"#utility.yul\":3904:3905   */\n              0x00\n                /* \"#utility.yul\":3918:4072   */\n            tag_181:\n                /* \"#utility.yul\":3932:3938   */\n              dup4\n                /* \"#utility.yul\":3929:3930   */\n              dup2\n                /* \"#utility.yul\":3926:3939   */\n              lt\n                /* \"#utility.yul\":3918:4072   */\n              iszero\n              tag_183\n              jumpi\n                /* \"#utility.yul\":4006:4013   */\n              dup2\n                /* \"#utility.yul\":4000:4014   */\n              sload\n                /* \"#utility.yul\":3996:3997   */\n              dup2\n                /* \"#utility.yul\":3991:3994   */\n              dup10\n                /* \"#utility.yul\":3987:3998   */\n              add\n                /* \"#utility.yul\":3980:4015   */\n              mstore\n                /* \"#utility.yul\":4056:4057   */\n              0x01\n                /* \"#utility.yul\":4047:4054   */\n              dup3\n                /* \"#utility.yul\":4043:4058   */\n              add\n                /* \"#utility.yul\":4032:4058   */\n              swap2\n              pop\n                /* \"#utility.yul\":3954:3958   */\n              0x20\n                /* \"#utility.yul\":3951:3952   */\n              dup2\n                /* \"#utility.yul\":3947:3959   */\n              add\n                /* \"#utility.yul\":3942:3959   */\n              swap1\n              pop\n                /* \"#utility.yul\":3918:4072   */\n              jump(tag_181)\n            tag_183:\n                /* \"#utility.yul\":4101:4102   */\n              dup1\n                /* \"#utility.yul\":4096:4099   */\n              dup9\n                /* \"#utility.yul\":4092:4103   */\n              add\n                /* \"#utility.yul\":4085:4103   */\n              swap6\n              pop\n                /* \"#utility.yul\":3784:4113   */\n              pop\n              pop\n                /* \"#utility.yul\":3600:4113   */\n            tag_176:\n              pop\n                /* \"#utility.yul\":3406:4119   */\n              pop\n              pop\n              swap3\n              swap2\n              pop\n              pop\n              jump\t// out\n                /* \"#utility.yul\":4125:4243   */\n            tag_184:\n                /* \"#utility.yul\":4212:4236   */\n              tag_186\n                /* \"#utility.yul\":4230:4235   */\n              dup2\n                /* \"#utility.yul\":4212:4236   */\n              tag_187\n              jump\t// in\n            tag_186:\n                /* \"#utility.yul\":4207:4210   */\n              dup3\n                /* \"#utility.yul\":4200:4237   */\n              mstore\n                /* \"#utility.yul\":4190:4243   */\n              pop\n              pop\n              jump\t// out\n                /* \"#utility.yul\":4249:4471   */\n            tag_27:\n                /* \"#utility.yul\":4342:4346   */\n              0x00\n                /* \"#utility.yul\":4380:4382   */\n              0x20\n                /* \"#utility.yul\":4369:4378   */\n              dup3\n                /* \"#utility.yul\":4365:4383   */\n              add\n                /* \"#utility.yul\":4357:4383   */\n              swap1\n              pop\n                /* \"#utility.yul\":4393:4464   */\n              tag_189\n                /* \"#utility.yul\":4461:4462   */\n              0x00\n                /* \"#utility.yul\":4450:4459   */\n              dup4\n                /* \"#utility.yul\":4446:4463   */\n              add\n                /* \"#utility.yul\":4437:4443   */\n              dup5\n                /* \"#utility.yul\":4393:4464   */\n              tag_154\n              jump\t// in\n            tag_189:\n                /* \"#utility.yul\":4347:4471   */\n              swap3\n              swap2\n              pop\n              pop\n              jump\t// out\n                /* \"#utility.yul\":4477:4895   */\n            tag_32:\n                /* \"#utility.yul\":4614:4618   */\n              0x00\n                /* \"#utility.yul\":4652:4654   */\n              0x60\n                /* \"#utility.yul\":4641:4650   */\n              dup3\n                /* \"#utility.yul\":4637:4655   */\n              add\n                /* \"#utility.yul\":4629:4655   */\n              swap1\n              pop\n                /* \"#utility.yul\":4665:4736   */\n              tag_191\n                /* \"#utility.yul\":4733:4734   */\n              0x00\n                /* \"#utility.yul\":4722:4731   */\n              dup4\n                /* \"#utility.yul\":4718:4735   */\n              add\n                /* \"#utility.yul\":4709:4715   */\n              dup7\n                /* \"#utility.yul\":4665:4736   */\n              tag_154\n              jump\t// in\n            tag_191:\n                /* \"#utility.yul\":4746:4812   */\n              tag_192\n                /* \"#utility.yul\":4808:4810   */\n              0x20\n                /* \"#utility.yul\":4797:4806   */\n              dup4\n                /* \"#utility.yul\":4793:4811   */\n              add\n                /* \"#utility.yul\":4784:4790   */\n              dup6\n                /* \"#utility.yul\":4746:4812   */\n              tag_158\n              jump\t// in\n            tag_192:\n                /* \"#utility.yul\":4822:4888   */\n              tag_193\n                /* \"#utility.yul\":4884:4886   */\n              0x40\n                /* \"#utility.yul\":4873:4882   */\n              dup4\n                /* \"#utility.yul\":4869:4887   */\n              add\n                /* \"#utility.yul\":4860:4866   */\n              dup5\n                /* \"#utility.yul\":4822:4888   */\n              tag_158\n              jump\t// in\n            tag_193:\n                /* \"#utility.yul\":4619:4895   */\n              swap5\n              swap4\n              pop\n              pop\n              pop\n              pop\n              jump\t// out\n                /* \"#utility.yul\":4901:5111   */\n            tag_52:\n                /* \"#utility.yul\":4988:4992   */\n              0x00\n                /* \"#utility.yul\":5026:5028   */\n              0x20\n                /* \"#utility.yul\":5015:5024   */\n              dup3\n                /* \"#utility.yul\":5011:5029   */\n              add\n                /* \"#utility.yul\":5003:5029   */\n              swap1\n              pop\n                /* \"#utility.yul\":5039:5104   */\n              tag_195\n                /* \"#utility.yul\":5101:5102   */\n              0x00\n                /* \"#utility.yul\":5090:5099   */\n              dup4\n                /* \"#utility.yul\":5086:5103   */\n              add\n                /* \"#utility.yul\":5077:5083   */\n              dup5\n                /* \"#utility.yul\":5039:5104   */\n              tag_158\n              jump\t// in\n            tag_195:\n                /* \"#utility.yul\":4993:5111   */\n              swap3\n              swap2\n              pop\n              pop\n              jump\t// out\n                /* \"#utility.yul\":5117:5650   */\n            tag_42:\n                /* \"#utility.yul\":5286:5290   */\n              0x00\n                /* \"#utility.yul\":5324:5326   */\n              0x60\n                /* \"#utility.yul\":5313:5322   */\n              dup3\n                /* \"#utility.yul\":5309:5327   */\n              add\n                /* \"#utility.yul\":5301:5327   */\n              swap1\n              pop\n                /* \"#utility.yul\":5373:5382   */\n              dup2\n                /* \"#utility.yul\":5367:5371   */\n              dup2\n                /* \"#utility.yul\":5363:5383   */\n              sub\n                /* \"#utility.yul\":5359:5360   */\n              0x00\n                /* \"#utility.yul\":5348:5357   */\n              dup4\n                /* \"#utility.yul\":5344:5361   */\n              add\n                /* \"#utility.yul\":5337:5384   */\n              mstore\n                /* \"#utility.yul\":5401:5479   */\n              tag_197\n                /* \"#utility.yul\":5474:5478   */\n              dup2\n                /* \"#utility.yul\":5465:5471   */\n              dup7\n                /* \"#utility.yul\":5401:5479   */\n              tag_162\n              jump\t// in\n            tag_197:\n                /* \"#utility.yul\":5393:5479   */\n              swap1\n              pop\n                /* \"#utility.yul\":5489:5561   */\n              tag_198\n                /* \"#utility.yul\":5557:5559   */\n              0x20\n                /* \"#utility.yul\":5546:5555   */\n              dup4\n                /* \"#utility.yul\":5542:5560   */\n              add\n                /* \"#utility.yul\":5533:5539   */\n              dup6\n                /* \"#utility.yul\":5489:5561   */\n              tag_154\n              jump\t// in\n            tag_198:\n                /* \"#utility.yul\":5571:5643   */\n              tag_199\n                /* \"#utility.yul\":5639:5641   */\n              0x40\n                /* \"#utility.yul\":5628:5637   */\n              dup4\n                /* \"#utility.yul\":5624:5642   */\n              add\n                /* \"#utility.yul\":5615:5621   */\n              dup5\n                /* \"#utility.yul\":5571:5643   */\n              tag_184\n              jump\t// in\n            tag_199:\n                /* \"#utility.yul\":5291:5650   */\n              swap5\n              swap4\n              pop\n              pop\n              pop\n              pop\n              jump\t// out\n                /* \"#utility.yul\":5656:6189   */\n            tag_64:\n                /* \"#utility.yul\":5825:5829   */\n              0x00\n                /* \"#utility.yul\":5863:5865   */\n              0x60\n                /* \"#utility.yul\":5852:5861   */\n              dup3\n                /* \"#utility.yul\":5848:5866   */\n              add\n                /* \"#utility.yul\":5840:5866   */\n              swap1\n              pop\n                /* \"#utility.yul\":5912:5921   */\n              dup2\n                /* \"#utility.yul\":5906:5910   */\n              dup2\n                /* \"#utility.yul\":5902:5922   */\n              sub\n                /* \"#utility.yul\":5898:5899   */\n              0x00\n                /* \"#utility.yul\":5887:5896   */\n              dup4\n                /* \"#utility.yul\":5883:5900   */\n              add\n                /* \"#utility.yul\":5876:5923   */\n              mstore\n                /* \"#utility.yul\":5940:6018   */\n              tag_201\n                /* \"#utility.yul\":6013:6017   */\n              dup2\n                /* \"#utility.yul\":6004:6010   */\n              dup7\n                /* \"#utility.yul\":5940:6018   */\n              tag_162\n              jump\t// in\n            tag_201:\n                /* \"#utility.yul\":5932:6018   */\n              swap1\n              pop\n                /* \"#utility.yul\":6028:6100   */\n              tag_202\n                /* \"#utility.yul\":6096:6098   */\n              0x20\n                /* \"#utility.yul\":6085:6094   */\n              dup4\n                /* \"#utility.yul\":6081:6099   */\n              add\n                /* \"#utility.yul\":6072:6078   */\n              dup6\n                /* \"#utility.yul\":6028:6100   */\n              tag_184\n              jump\t// in\n            tag_202:\n                /* \"#utility.yul\":6110:6182   */\n              tag_203\n                /* \"#utility.yul\":6178:6180   */\n              0x40\n                /* \"#utility.yul\":6167:6176   */\n              dup4\n                /* \"#utility.yul\":6163:6181   */\n              add\n                /* \"#utility.yul\":6154:6160   */\n              dup5\n                /* \"#utility.yul\":6110:6182   */\n              tag_154\n              jump\t// in\n            tag_203:\n                /* \"#utility.yul\":5830:6189   */\n              swap5\n              swap4\n              pop\n              pop\n              pop\n              pop\n              jump\t// out\n                /* \"#utility.yul\":6195:6612   */\n            tag_69:\n                /* \"#utility.yul\":6333:6337   */\n              0x00\n                /* \"#utility.yul\":6371:6373   */\n              0x40\n                /* \"#utility.yul\":6360:6369   */\n              dup3\n                /* \"#utility.yul\":6356:6374   */\n              add\n                /* \"#utility.yul\":6348:6374   */\n              swap1\n              pop\n                /* \"#utility.yul\":6420:6429   */\n              dup2\n                /* \"#utility.yul\":6414:6418   */\n              dup2\n                /* \"#utility.yul\":6410:6430   */\n              sub\n                /* \"#utility.yul\":6406:6407   */\n              0x00\n                /* \"#utility.yul\":6395:6404   */\n              dup4\n                /* \"#utility.yul\":6391:6408   */\n              add\n                /* \"#utility.yul\":6384:6431   */\n              mstore\n                /* \"#utility.yul\":6448:6523   */\n              tag_205\n                /* \"#utility.yul\":6518:6522   */\n              dup2\n                /* \"#utility.yul\":6509:6515   */\n              dup6\n                /* \"#utility.yul\":6448:6523   */\n              tag_172\n              jump\t// in\n            tag_205:\n                /* \"#utility.yul\":6440:6523   */\n              swap1\n              pop\n                /* \"#utility.yul\":6533:6605   */\n              tag_206\n                /* \"#utility.yul\":6601:6603   */\n              0x20\n                /* \"#utility.yul\":6590:6599   */\n              dup4\n                /* \"#utility.yul\":6586:6604   */\n              add\n                /* \"#utility.yul\":6577:6583   */\n              dup5\n                /* \"#utility.yul\":6533:6605   */\n              tag_154\n              jump\t// in\n            tag_206:\n                /* \"#utility.yul\":6338:6612   */\n              swap4\n              swap3\n              pop\n              pop\n              pop\n              jump\t// out\n                /* \"#utility.yul\":6618:6840   */\n            tag_37:\n                /* \"#utility.yul\":6711:6715   */\n              0x00\n                /* \"#utility.yul\":6749:6751   */\n              0x20\n                /* \"#utility.yul\":6738:6747   */\n              dup3\n                /* \"#utility.yul\":6734:6752   */\n              add\n                /* \"#utility.yul\":6726:6752   */\n              swap1\n              pop\n                /* \"#utility.yul\":6762:6833   */\n              tag_208\n                /* \"#utility.yul\":6830:6831   */\n              0x00\n                /* \"#utility.yul\":6819:6828   */\n              dup4\n                /* \"#utility.yul\":6815:6832   */\n              add\n                /* \"#utility.yul\":6806:6812   */\n              dup5\n                /* \"#utility.yul\":6762:6833   */\n              tag_184\n              jump\t// in\n            tag_208:\n                /* \"#utility.yul\":6716:6840   */\n              swap3\n              swap2\n              pop\n              pop\n              jump\t// out\n                /* \"#utility.yul\":6846:6975   */\n            tag_120:\n                /* \"#utility.yul\":6880:6886   */\n              0x00\n                /* \"#utility.yul\":6907:6927   */\n              tag_210\n              tag_211\n              jump\t// in\n            tag_210:\n                /* \"#utility.yul\":6897:6927   */\n              swap1\n              pop\n                /* \"#utility.yul\":6936:6969   */\n              tag_212\n                /* \"#utility.yul\":6964:6968   */\n              dup3\n                /* \"#utility.yul\":6956:6962   */\n              dup3\n                /* \"#utility.yul\":6936:6969   */\n              tag_213\n              jump\t// in\n            tag_212:\n                /* \"#utility.yul\":6887:6975   */\n              swap2\n              swap1\n              pop\n              jump\t// out\n                /* \"#utility.yul\":6981:7056   */\n            tag_211:\n                /* \"#utility.yul\":7014:7020   */\n              0x00\n                /* \"#utility.yul\":7047:7049   */\n              0x40\n                /* \"#utility.yul\":7041:7050   */\n              mload\n                /* \"#utility.yul\":7031:7050   */\n              swap1\n              pop\n                /* \"#utility.yul\":7021:7056   */\n              swap1\n              jump\t// out\n                /* \"#utility.yul\":7062:7370   */\n            tag_119:\n                /* \"#utility.yul\":7124:7128   */\n              0x00\n                /* \"#utility.yul\":7214:7232   */\n              0xffffffffffffffff\n                /* \"#utility.yul\":7206:7212   */\n              dup3\n                /* \"#utility.yul\":7203:7233   */\n              gt\n                /* \"#utility.yul\":7200:7202   */\n              iszero\n              tag_216\n              jumpi\n                /* \"#utility.yul\":7236:7254   */\n              tag_217\n              tag_218\n              jump\t// in\n            tag_217:\n                /* \"#utility.yul\":7200:7202   */\n            tag_216:\n                /* \"#utility.yul\":7274:7303   */\n              tag_219\n                /* \"#utility.yul\":7296:7302   */\n              dup3\n                /* \"#utility.yul\":7274:7303   */\n              tag_171\n              jump\t// in\n            tag_219:\n                /* \"#utility.yul\":7266:7303   */\n              swap1\n              pop\n                /* \"#utility.yul\":7358:7362   */\n              0x20\n                /* \"#utility.yul\":7352:7356   */\n              dup2\n                /* \"#utility.yul\":7348:7363   */\n              add\n                /* \"#utility.yul\":7340:7363   */\n              swap1\n              pop\n                /* \"#utility.yul\":7129:7370   */\n              swap2\n              swap1\n              pop\n              jump\t// out\n                /* \"#utility.yul\":7376:7517   */\n            tag_180:\n                /* \"#utility.yul\":7425:7429   */\n              0x00\n                /* \"#utility.yul\":7448:7451   */\n              dup2\n                /* \"#utility.yul\":7440:7451   */\n              swap1\n              pop\n                /* \"#utility.yul\":7471:7474   */\n              dup2\n                /* \"#utility.yul\":7468:7469   */\n              0x00\n                /* \"#utility.yul\":7461:7475   */\n              mstore\n                /* \"#utility.yul\":7505:7509   */\n              0x20\n                /* \"#utility.yul\":7502:7503   */\n              0x00\n                /* \"#utility.yul\":7492:7510   */\n              keccak256\n                /* \"#utility.yul\":7484:7510   */\n              swap1\n              pop\n                /* \"#utility.yul\":7430:7517   */\n              swap2\n              swap1\n              pop\n              jump\t// out\n                /* \"#utility.yul\":7523:7622   */\n            tag_165:\n                /* \"#utility.yul\":7575:7581   */\n              0x00\n                /* \"#utility.yul\":7609:7614   */\n              dup2\n                /* \"#utility.yul\":7603:7615   */\n              mload\n                /* \"#utility.yul\":7593:7615   */\n              swap1\n              pop\n                /* \"#utility.yul\":7582:7622   */\n              swap2\n              swap1\n              pop\n              jump\t// out\n                /* \"#utility.yul\":7628:7797   */\n            tag_167:\n                /* \"#utility.yul\":7712:7723   */\n              0x00\n                /* \"#utility.yul\":7746:7752   */\n              dup3\n                /* \"#utility.yul\":7741:7744   */\n              dup3\n                /* \"#utility.yul\":7734:7753   */\n              mstore\n                /* \"#utility.yul\":7786:7790   */\n              0x20\n                /* \"#utility.yul\":7781:7784   */\n              dup3\n                /* \"#utility.yul\":7777:7791   */\n              add\n                /* \"#utility.yul\":7762:7791   */\n              swap1\n              pop\n                /* \"#utility.yul\":7724:7797   */\n              swap3\n              swap2\n              pop\n              pop\n              jump\t// out\n                /* \"#utility.yul\":7803:7899   */\n            tag_157:\n                /* \"#utility.yul\":7840:7847   */\n              0x00\n                /* \"#utility.yul\":7869:7893   */\n              tag_224\n                /* \"#utility.yul\":7887:7892   */\n              dup3\n                /* \"#utility.yul\":7869:7893   */\n              tag_225\n              jump\t// in\n            tag_224:\n                /* \"#utility.yul\":7858:7893   */\n              swap1\n              pop\n                /* \"#utility.yul\":7848:7899   */\n              swap2\n              swap1\n              pop\n              jump\t// out\n                /* \"#utility.yul\":7905:7995   */\n            tag_161:\n                /* \"#utility.yul\":7939:7946   */\n              0x00\n                /* \"#utility.yul\":7982:7987   */\n              dup2\n                /* \"#utility.yul\":7975:7988   */\n              iszero\n                /* \"#utility.yul\":7968:7989   */\n              iszero\n                /* \"#utility.yul\":7957:7989   */\n              swap1\n              pop\n                /* \"#utility.yul\":7947:7995   */\n              swap2\n              swap1\n              pop\n              jump\t// out\n                /* \"#utility.yul\":8001:8127   */\n            tag_225:\n                /* \"#utility.yul\":8038:8045   */\n              0x00\n                /* \"#utility.yul\":8078:8120   */\n              0xffffffffffffffffffffffffffffffffffffffff\n                /* \"#utility.yul\":8071:8076   */\n              dup3\n                /* \"#utility.yul\":8067:8121   */\n              and\n                /* \"#utility.yul\":8056:8121   */\n              swap1\n              pop\n                /* \"#utility.yul\":8046:8127   */\n              swap2\n              swap1\n              pop\n              jump\t// out\n                /* \"#utility.yul\":8133:8210   */\n            tag_187:\n                /* \"#utility.yul\":8170:8177   */\n              0x00\n                /* \"#utility.yul\":8199:8204   */\n              dup2\n                /* \"#utility.yul\":8188:8204   */\n              swap1\n              pop\n                /* \"#utility.yul\":8178:8210   */\n              swap2\n              swap1\n              pop\n              jump\t// out\n                /* \"#utility.yul\":8216:8370   */\n            tag_123:\n                /* \"#utility.yul\":8300:8306   */\n              dup3\n                /* \"#utility.yul\":8295:8298   */\n              dup2\n                /* \"#utility.yul\":8290:8293   */\n              dup4\n                /* \"#utility.yul\":8277:8307   */\n              calldatacopy\n                /* \"#utility.yul\":8362:8363   */\n              0x00\n                /* \"#utility.yul\":8353:8359   */\n              dup4\n                /* \"#utility.yul\":8348:8351   */\n              dup4\n                /* \"#utility.yul\":8344:8360   */\n              add\n                /* \"#utility.yul\":8337:8364   */\n              mstore\n                /* \"#utility.yul\":8267:8370   */\n              pop\n              pop\n              pop\n              jump\t// out\n                /* \"#utility.yul\":8376:8683   */\n            tag_169:\n                /* \"#utility.yul\":8444:8445   */\n              0x00\n                /* \"#utility.yul\":8454:8567   */\n            tag_231:\n                /* \"#utility.yul\":8468:8474   */\n              dup4\n                /* \"#utility.yul\":8465:8466   */\n              dup2\n                /* \"#utility.yul\":8462:8475   */\n              lt\n                /* \"#utility.yul\":8454:8567   */\n              iszero\n              tag_233\n              jumpi\n                /* \"#utility.yul\":8553:8554   */\n              dup1\n                /* \"#utility.yul\":8548:8551   */\n              dup3\n                /* \"#utility.yul\":8544:8555   */\n              add\n                /* \"#utility.yul\":8538:8556   */\n              mload\n                /* \"#utility.yul\":8534:8535   */\n              dup2\n                /* \"#utility.yul\":8529:8532   */\n              dup5\n                /* \"#utility.yul\":8525:8536   */\n              add\n                /* \"#utility.yul\":8518:8557   */\n              mstore\n                /* \"#utility.yul\":8490:8492   */\n              0x20\n                /* \"#utility.yul\":8487:8488   */\n              dup2\n                /* \"#utility.yul\":8483:8493   */\n              add\n                /* \"#utility.yul\":8478:8493   */\n              swap1\n              pop\n                /* \"#utility.yul\":8454:8567   */\n              jump(tag_231)\n            tag_233:\n                /* \"#utility.yul\":8585:8591   */\n              dup4\n                /* \"#utility.yul\":8582:8583   */\n              dup2\n                /* \"#utility.yul\":8579:8592   */\n              gt\n                /* \"#utility.yul\":8576:8578   */\n              iszero\n              tag_234\n              jumpi\n                /* \"#utility.yul\":8665:8666   */\n              0x00\n                /* \"#utility.yul\":8656:8662   */\n              dup5\n                /* \"#utility.yul\":8651:8654   */\n              dup5\n                /* \"#utility.yul\":8647:8663   */\n              add\n                /* \"#utility.yul\":8640:8667   */\n              mstore\n                /* \"#utility.yul\":8576:8578   */\n            tag_234:\n                /* \"#utility.yul\":8425:8683   */\n              pop\n              pop\n              pop\n              pop\n              jump\t// out\n                /* \"#utility.yul\":8689:9009   */\n            tag_84:\n                /* \"#utility.yul\":8733:8739   */\n              0x00\n                /* \"#utility.yul\":8770:8771   */\n              0x02\n                /* \"#utility.yul\":8764:8768   */\n              dup3\n                /* \"#utility.yul\":8760:8772   */\n              div\n                /* \"#utility.yul\":8750:8772   */\n              swap1\n              pop\n                /* \"#utility.yul\":8817:8818   */\n              0x01\n                /* \"#utility.yul\":8811:8815   */\n              dup3\n                /* \"#utility.yul\":8807:8819   */\n              and\n                /* \"#utility.yul\":8838:8856   */\n              dup1\n                /* \"#utility.yul\":8828:8830   */\n              tag_236\n              jumpi\n                /* \"#utility.yul\":8894:8898   */\n              0x7f\n                /* \"#utility.yul\":8886:8892   */\n              dup3\n                /* \"#utility.yul\":8882:8899   */\n              and\n                /* \"#utility.yul\":8872:8899   */\n              swap2\n              pop\n                /* \"#utility.yul\":8828:8830   */\n            tag_236:\n                /* \"#utility.yul\":8956:8958   */\n              0x20\n                /* \"#utility.yul\":8948:8954   */\n              dup3\n                /* \"#utility.yul\":8945:8959   */\n              lt\n                /* \"#utility.yul\":8925:8943   */\n              dup2\n                /* \"#utility.yul\":8922:8960   */\n              eq\n                /* \"#utility.yul\":8919:8921   */\n              iszero\n              tag_237\n              jumpi\n                /* \"#utility.yul\":8975:8993   */\n              tag_238\n              tag_239\n              jump\t// in\n            tag_238:\n                /* \"#utility.yul\":8919:8921   */\n            tag_237:\n                /* \"#utility.yul\":8740:9009   */\n              pop\n              swap2\n              swap1\n              pop\n              jump\t// out\n                /* \"#utility.yul\":9015:9296   */\n            tag_213:\n                /* \"#utility.yul\":9098:9125   */\n              tag_241\n                /* \"#utility.yul\":9120:9124   */\n              dup3\n                /* \"#utility.yul\":9098:9125   */\n              tag_171\n              jump\t// in\n            tag_241:\n                /* \"#utility.yul\":9090:9096   */\n              dup2\n                /* \"#utility.yul\":9086:9126   */\n              add\n                /* \"#utility.yul\":9228:9234   */\n              dup2\n                /* \"#utility.yul\":9216:9226   */\n              dup2\n                /* \"#utility.yul\":9213:9235   */\n              lt\n                /* \"#utility.yul\":9192:9210   */\n              0xffffffffffffffff\n                /* \"#utility.yul\":9180:9190   */\n              dup3\n                /* \"#utility.yul\":9177:9211   */\n              gt\n                /* \"#utility.yul\":9174:9236   */\n              or\n                /* \"#utility.yul\":9171:9173   */\n              iszero\n              tag_242\n              jumpi\n                /* \"#utility.yul\":9239:9257   */\n              tag_243\n              tag_218\n              jump\t// in\n            tag_243:\n                /* \"#utility.yul\":9171:9173   */\n            tag_242:\n                /* \"#utility.yul\":9279:9289   */\n              dup1\n                /* \"#utility.yul\":9275:9277   */\n              0x40\n                /* \"#utility.yul\":9268:9290   */\n              mstore\n                /* \"#utility.yul\":9058:9296   */\n              pop\n              pop\n              pop\n              jump\t// out\n                /* \"#utility.yul\":9302:9535   */\n            tag_92:\n                /* \"#utility.yul\":9341:9344   */\n              0x00\n                /* \"#utility.yul\":9364:9388   */\n              tag_245\n                /* \"#utility.yul\":9382:9387   */\n              dup3\n                /* \"#utility.yul\":9364:9388   */\n              tag_187\n              jump\t// in\n            tag_245:\n                /* \"#utility.yul\":9355:9388   */\n              swap2\n              pop\n                /* \"#utility.yul\":9410:9476   */\n              0xffffffffffffffffffffffffffffffffffffffffffffffffffffffffffffffff\n                /* \"#utility.yul\":9403:9408   */\n              dup3\n                /* \"#utility.yul\":9400:9477   */\n              eq\n                /* \"#utility.yul\":9397:9399   */\n              iszero\n              tag_246\n              jumpi\n                /* \"#utility.yul\":9480:9498   */\n              tag_247\n              tag_248\n              jump\t// in\n            tag_247:\n                /* \"#utility.yul\":9397:9399   */\n            tag_246:\n                /* \"#utility.yul\":9527:9528   */\n              0x01\n                /* \"#utility.yul\":9520:9525   */\n              dup3\n                /* \"#utility.yul\":9516:9529   */\n              add\n                /* \"#utility.yul\":9509:9529   */\n              swap1\n              pop\n                /* \"#utility.yul\":9345:9535   */\n              swap2\n              swap1\n              pop\n              jump\t// out\n                /* \"#utility.yul\":9541:9721   */\n            tag_248:\n                /* \"#utility.yul\":9589:9666   */\n              0x4e487b7100000000000000000000000000000000000000000000000000000000\n                /* \"#utility.yul\":9586:9587   */\n              0x00\n                /* \"#utility.yul\":9579:9667   */\n              mstore\n                /* \"#utility.yul\":9686:9690   */\n              0x11\n                /* \"#utility.yul\":9683:9684   */\n              0x04\n                /* \"#utility.yul\":9676:9691   */\n              mstore\n                /* \"#utility.yul\":9710:9714   */\n              0x24\n                /* \"#utility.yul\":9707:9708   */\n              0x00\n                /* \"#utility.yul\":9700:9715   */\n              revert\n                /* \"#utility.yul\":9727:9907   */\n            tag_239:\n                /* \"#utility.yul\":9775:9852   */\n              0x4e487b7100000000000000000000000000000000000000000000000000000000\n                /* \"#utility.yul\":9772:9773   */\n              0x00\n                /* \"#utility.yul\":9765:9853   */\n              mstore\n                /* \"#utility.yul\":9872:9876   */\n              0x22\n                /* \"#utility.yul\":9869:9870   */\n              0x04\n                /* \"#utility.yul\":9862:9877   */\n              mstore\n                /* \"#utility.yul\":9896:9900   */\n              0x24\n                /* \"#utility.yul\":9893:9894   */\n              0x00\n                /* \"#utility.yul\":9886:9901   */\n              revert\n                /* \"#utility.yul\":9913:10093   */\n            tag_218:\n                /* \"#utility.yul\":9961:10038   */\n              0x4e487b7100000000000000000000000000000000000000000000000000000000\n                /* \"#utility.yul\":9958:9959   */\n              0x00\n                /* \"#utility.yul\":9951:10039   */\n              mstore\n                /* \"#utility.yul\":10058:10062   */\n              0x41\n                /* \"#utility.yul\":10055:10056   */\n              0x04\n                /* \"#utility.yul\":10048:10063   */\n              mstore\n                /* \"#utility.yul\":10082:10086   */\n              0x24\n                /* \"#utility.yul\":10079:10080   */\n              0x00\n                /* \"#utility.yul\":10072:10087   */\n              revert\n                /* \"#utility.yul\":10099:10201   */\n            tag_171:\n                /* \"#utility.yul\":10140:10146   */\n              0x00\n                /* \"#utility.yul\":10191:10193   */\n              0x1f\n                /* \"#utility.yul\":10187:10194   */\n              not\n                /* \"#utility.yul\":10182:10184   */\n              0x1f\n                /* \"#utility.yul\":10175:10180   */\n              dup4\n                /* \"#utility.yul\":10171:10185   */\n              add\n                /* \"#utility.yul\":10167:10195   */\n              and\n                /* \"#utility.yul\":10157:10195   */\n              swap1\n              pop\n                /* \"#utility.yul\":10147:10201   */\n              swap2\n              swap1\n              pop\n              jump\t// out\n                /* \"#utility.yul\":10207:10329   */\n            tag_127:\n                /* \"#utility.yul\":10280:10304   */\n              tag_254\n                /* \"#utility.yul\":10298:10303   */\n              dup2\n                /* \"#utility.yul\":10280:10304   */\n              tag_157\n              jump\t// in\n            tag_254:\n                /* \"#utility.yul\":10273:10278   */\n              dup2\n                /* \"#utility.yul\":10270:10305   */\n              eq\n                /* \"#utility.yul\":10260:10262   */\n              tag_255\n              jumpi\n                /* \"#utility.yul\":10319:10320   */\n              0x00\n                /* \"#utility.yul\":10316:10317   */\n              dup1\n                /* \"#utility.yul\":10309:10321   */\n              revert\n                /* \"#utility.yul\":10260:10262   */\n            tag_255:\n                /* \"#utility.yul\":10250:10329   */\n              pop\n              jump\t// out\n                /* \"#utility.yul\":10335:10457   */\n            tag_135:\n                /* \"#utility.yul\":10408:10432   */\n              tag_257\n                /* \"#utility.yul\":10426:10431   */\n              dup2\n                /* \"#utility.yul\":10408:10432   */\n              tag_187\n              jump\t// in\n            tag_257:\n                /* \"#utility.yul\":10401:10406   */\n              dup2\n                /* \"#utility.yul\":10398:10433   */\n              eq\n                /* \"#utility.yul\":10388:10390   */\n              tag_258\n              jumpi\n                /* \"#utility.yul\":10447:10448   */\n              0x00\n                /* \"#utility.yul\":10444:10445   */\n              dup1\n                /* \"#utility.yul\":10437:10449   */\n              revert\n                /* \"#utility.yul\":10388:10390   */\n            tag_258:\n                /* \"#utility.yul\":10378:10457   */\n              pop\n              jump\t// out\n\n            auxdata: 0xa2646970667358221220a95299f45be984f4d7f5294d9a6f99c948e7812c8df962005c40d452de4541d064736f6c63430008040033\n        }\n    }\n\n    auxdata: 0xa2646970667358221220db18946f3d68d5c5c6d3a30e14d10a27dab0e978a867f968de7e8760c371910764736f6c63430008040033\n}\n",
    "bytecode": {
      "linkReferences": {},
      "object": "608060405234801561001057600080fd5b50611908806100206000396000f3fe608060405234801561001057600080fd5b50600436106100415760003560e01c806318f80bb9146100465780639ad1ee1014610062578063aa9a068f14610092575b600080fd5b610060600480360381019061005b9190610355565b6100b0565b005b61007c60048036038101906100779190610396565b61015b565b6040516100899190610453565b60405180910390f35b61009a61019a565b6040516100a7919061046e565b60405180910390f35b80600190805190602001906100c6929190610228565b5060006040516100d5906102ae565b604051809103906000f0801580156100f1573d6000803e3d6000fd5b5090506000819080600181540180825580915050600190039060005260206000200160009091909190916101000a81548173ffffffffffffffffffffffffffffffffffffffff021916908373ffffffffffffffffffffffffffffffffffffffff1602179055505050565b6000818154811061016b57600080fd5b906000526020600020016000915054906101000a900473ffffffffffffffffffffffffffffffffffffffff1681565b6060600080548060200260200160405190810160405280929190818152602001828054801561021e57602002820191906000526020600020905b8160009054906101000a900473ffffffffffffffffffffffffffffffffffffffff1673ffffffffffffffffffffffffffffffffffffffff16815260200190600101908083116101d4575b5050505050905090565b8280546102349061056a565b90600052602060002090601f016020900481019282610256576000855561029d565b82601f1061026f57805160ff191683800117855561029d565b8280016001018555821561029d579182015b8281111561029c578251825591602001919060010190610281565b5b5090506102aa91906102bb565b5090565b61127f8061065483390190565b5b808211156102d45760008160009055506001016102bc565b5090565b60006102eb6102e6846104b5565b610490565b90508281526020810184848401111561030357600080fd5b61030e84828561055b565b509392505050565b600082601f83011261032757600080fd5b81356103378482602086016102d8565b91505092915050565b60008135905061034f8161063c565b92915050565b60006020828403121561036757600080fd5b600082013567ffffffffffffffff81111561038157600080fd5b61038d84828501610316565b91505092915050565b6000602082840312156103a857600080fd5b60006103b684828501610340565b91505092915050565b60006103cb83836103d7565b60208301905092915050565b6103e08161051f565b82525050565b6103ef8161051f565b82525050565b6000610400826104f6565b61040a818561050e565b9350610415836104e6565b8060005b8381101561044657815161042d88826103bf565b975061043883610501565b925050600181019050610419565b5085935050505092915050565b600060208201905061046860008301846103e6565b92915050565b6000602082019050818103600083015261048881846103f5565b905092915050565b600061049a6104ab565b90506104a6828261059c565b919050565b6000604051905090565b600067ffffffffffffffff8211156104d0576104cf6105fc565b5b6104d98261062b565b9050602081019050919050565b6000819050602082019050919050565b600081519050919050565b6000602082019050919050565b600082825260208201905092915050565b600061052a82610531565b9050919050565b600073ffffffffffffffffffffffffffffffffffffffff82169050919050565b6000819050919050565b82818337600083830152505050565b6000600282049050600182168061058257607f821691505b60208210811415610596576105956105cd565b5b50919050565b6105a58261062b565b810181811067ffffffffffffffff821117156105c4576105c36105fc565b5b80604052505050565b7f4e487b7100000000000000000000000000000000000000000000000000000000600052602260045260246000fd5b7f4e487b7100000000000000000000000000000000000000000000000000000000600052604160045260246000fd5b6000601f19601f8301169050919050565b61064581610551565b811461065057600080fd5b5056fe608060405234801561001057600080fd5b5061125f806100206000396000f3fe608060405234801561001057600080fd5b50600436106100a95760003560e01c8063aee1446011610071578063aee1446014610178578063c72109d5146101aa578063d6f8307f146101c6578063de58f1b6146101f6578063eecd6bc214610214578063f0ba844014610230576100a9565b806319a32989146100ae5780631da000ec146100ca5780632eeca2cc146100e657806381d12c58146101165780639a5e5b7714610148575b600080fd5b6100c860048036038101906100c39190610d21565b610262565b005b6100e460048036038101906100df9190610d4a565b6103bf565b005b61010060048036038101906100fb9190610d21565b61049d565b60405161010d9190610e6c565b60405180910390f35b610130600480360381019061012b9190610d21565b6104dc565b60405161013f93929190610e87565b60405180910390f35b610162600480360381019061015d9190610d21565b6106da565b60405161016f9190610f85565b60405180910390f35b610192600480360381019061018d9190610d21565b6106fa565b6040516101a193929190610ed9565b60405180910390f35b6101c460048036038101906101bf9190610ca4565b6107de565b005b6101e060048036038101906101db9190610c7b565b610948565b6040516101ed9190610ebe565b60405180910390f35b6101fe610968565b60405161020b9190610f85565b60405180910390f35b61022e60048036038101906102299190610ce0565b61096e565b005b61024a60048036038101906102459190610d21565b610a74565b60405161025993929190610f17565b60405180910390f35b3373ffffffffffffffffffffffffffffffffffffffff166004600083815260200190815260200160002060040160009054906101000a900473ffffffffffffffffffffffffffffffffffffffff1673ffffffffffffffffffffffffffffffffffffffff16148061032f57506004600082815260200190815260200160002060020160003373ffffffffffffffffffffffffffffffffffffffff1673ffffffffffffffffffffffffffffffffffffffff16815260200190815260200160002060009054906101000a900460ff165b61033857600080fd5b7f5dd8f520b99936208713d8c2be2e573016bbd1c7ebc3bba173d637bbf9f5e880600460008381526020019081526020016000206000016004600084815260200190815260200160002060040160009054906101000a900473ffffffffffffffffffffffffffffffffffffffff166040516103b4929190610f55565b60405180910390a150565b3373ffffffffffffffffffffffffffffffffffffffff166004600084815260200190815260200160002060040160009054906101000a900473ffffffffffffffffffffffffffffffffffffffff1673ffffffffffffffffffffffffffffffffffffffff161461042d57600080fd5b60016004600084815260200190815260200160002060020160008373ffffffffffffffffffffffffffffffffffffffff1673ffffffffffffffffffffffffffffffffffffffff16815260200190815260200160002060006101000a81548160ff0219169083151502179055505050565b600081815481106104ad57600080fd5b906000526020600020016000915054906101000a900473ffffffffffffffffffffffffffffffffffffffff1681565b600080600080848154811061051a577f4e487b7100000000000000000000000000000000000000000000000000000000600052603260045260246000fd5b9060005260206000200160009054906101000a900473ffffffffffffffffffffffffffffffffffffffff16600460008681526020019081526020016000206001016000808781548110610596577f4e487b7100000000000000000000000000000000000000000000000000000000600052603260045260246000fd5b9060005260206000200160009054906101000a900473ffffffffffffffffffffffffffffffffffffffff1673ffffffffffffffffffffffffffffffffffffffff1673ffffffffffffffffffffffffffffffffffffffff16815260200190815260200160002060009054906101000a900460ff1660046000878152602001908152602001600020600201600080888154811061065a577f4e487b7100000000000000000000000000000000000000000000000000000000600052603260045260246000fd5b9060005260206000200160009054906101000a900473ffffffffffffffffffffffffffffffffffffffff1673ffffffffffffffffffffffffffffffffffffffff1673ffffffffffffffffffffffffffffffffffffffff16815260200190815260200160002060009054906101000a900460ff169250925092509193909250565b600060046000838152602001908152602001600020600301549050919050565b60606000806000600460008681526020019081526020016000209050806000018160040160009054906101000a900473ffffffffffffffffffffffffffffffffffffffff168260030154828054610750906110b1565b80601f016020809104026020016040519081016040528092919081815260200182805461077c906110b1565b80156107c95780601f1061079e576101008083540402835291602001916107c9565b820191906000526020600020905b8154815290600101906020018083116107ac57829003601f168201915b50505050509250935093509350509193909250565b6004600082815260200190815260200160002060010160008373ffffffffffffffffffffffffffffffffffffffff1673ffffffffffffffffffffffffffffffffffffffff16815260200190815260200160002060009054906101000a900460ff161561084957600080fd5b60016004600083815260200190815260200160002060010160008473ffffffffffffffffffffffffffffffffffffffff1673ffffffffffffffffffffffffffffffffffffffff16815260200190815260200160002060006101000a81548160ff0219169083151502179055506004600082815260200190815260200160002060030160008154809291906108dc90611114565b91905055506000829080600181540180825580915050600190039060005260206000200160009091909190916101000a81548173ffffffffffffffffffffffffffffffffffffffff021916908373ffffffffffffffffffffffffffffffffffffffff1602179055505050565b60016020528060005260406000206000915054906101000a900460ff1681565b60025481565b60018060003373ffffffffffffffffffffffffffffffffffffffff1673ffffffffffffffffffffffffffffffffffffffff16815260200190815260200160002060006101000a81548160ff021916908315150217905550600260008154809291906109d890611114565b9190505550600060046000600360008154809291906109f690611114565b919050558152602001908152602001600020905081816000019080519060200190610a22929190610b46565b5060008160030181905550338160040160006101000a81548173ffffffffffffffffffffffffffffffffffffffff021916908373ffffffffffffffffffffffffffffffffffffffff1602179055505050565b6004602052806000526040600020600091509050806000018054610a97906110b1565b80601f0160208091040260200160405190810160405280929190818152602001828054610ac3906110b1565b8015610b105780601f10610ae557610100808354040283529160200191610b10565b820191906000526020600020905b815481529060010190602001808311610af357829003601f168201915b5050505050908060030154908060040160009054906101000a900473ffffffffffffffffffffffffffffffffffffffff16905083565b828054610b52906110b1565b90600052602060002090601f016020900481019282610b745760008555610bbb565b82601f10610b8d57805160ff1916838001178555610bbb565b82800160010185558215610bbb579182015b82811115610bba578251825591602001919060010190610b9f565b5b509050610bc89190610bcc565b5090565b5b80821115610be5576000816000905550600101610bcd565b5090565b6000610bfc610bf784610fc5565b610fa0565b905082815260208101848484011115610c1457600080fd5b610c1f84828561106f565b509392505050565b600081359050610c36816111fb565b92915050565b600082601f830112610c4d57600080fd5b8135610c5d848260208601610be9565b91505092915050565b600081359050610c7581611212565b92915050565b600060208284031215610c8d57600080fd5b6000610c9b84828501610c27565b91505092915050565b60008060408385031215610cb757600080fd5b6000610cc585828601610c27565b9250506020610cd685828601610c66565b9150509250929050565b600060208284031215610cf257600080fd5b600082013567ffffffffffffffff811115610d0c57600080fd5b610d1884828501610c3c565b91505092915050565b600060208284031215610d3357600080fd5b6000610d4184828501610c66565b91505092915050565b60008060408385031215610d5d57600080fd5b6000610d6b85828601610c66565b9250506020610d7c85828601610c27565b9150509250929050565b610d8f81611027565b82525050565b610d9e81611039565b82525050565b6000610daf8261100b565b610db98185611016565b9350610dc981856020860161107e565b610dd2816111ea565b840191505092915050565b60008154610dea816110b1565b610df48186611016565b94506001821660008114610e0f5760018114610e2157610e54565b60ff1983168652602086019350610e54565b610e2a85610ff6565b60005b83811015610e4c57815481890152600182019150602081019050610e2d565b808801955050505b50505092915050565b610e6681611065565b82525050565b6000602082019050610e816000830184610d86565b92915050565b6000606082019050610e9c6000830186610d86565b610ea96020830185610d95565b610eb66040830184610d95565b949350505050565b6000602082019050610ed36000830184610d95565b92915050565b60006060820190508181036000830152610ef38186610da4565b9050610f026020830185610d86565b610f0f6040830184610e5d565b949350505050565b60006060820190508181036000830152610f318186610da4565b9050610f406020830185610e5d565b610f4d6040830184610d86565b949350505050565b60006040820190508181036000830152610f6f8185610ddd565b9050610f7e6020830184610d86565b9392505050565b6000602082019050610f9a6000830184610e5d565b92915050565b6000610faa610fbb565b9050610fb682826110e3565b919050565b6000604051905090565b600067ffffffffffffffff821115610fe057610fdf6111bb565b5b610fe9826111ea565b9050602081019050919050565b60008190508160005260206000209050919050565b600081519050919050565b600082825260208201905092915050565b600061103282611045565b9050919050565b60008115159050919050565b600073ffffffffffffffffffffffffffffffffffffffff82169050919050565b6000819050919050565b82818337600083830152505050565b60005b8381101561109c578082015181840152602081019050611081565b838111156110ab576000848401525b50505050565b600060028204905060018216806110c957607f821691505b602082108114156110dd576110dc61118c565b5b50919050565b6110ec826111ea565b810181811067ffffffffffffffff8211171561110b5761110a6111bb565b5b80604052505050565b600061111f82611065565b91507fffffffffffffffffffffffffffffffffffffffffffffffffffffffffffffffff8214156111525761115161115d565b5b600182019050919050565b7f4e487b7100000000000000000000000000000000000000000000000000000000600052601160045260246000fd5b7f4e487b7100000000000000000000000000000000000000000000000000000000600052602260045260246000fd5b7f4e487b7100000000000000000000000000000000000000000000000000000000600052604160045260246000fd5b6000601f19601f8301169050919050565b61120481611027565b811461120f57600080fd5b50565b61121b81611065565b811461122657600080fd5b5056fea2646970667358221220a95299f45be984f4d7f5294d9a6f99c948e7812c8df962005c40d452de4541d064736f6c63430008040033a2646970667358221220db18946f3d68d5c5c6d3a30e14d10a27dab0e978a867f968de7e8760c371910764736f6c63430008040033",
      "opcodes": "PUSH1 0x80 PUSH1 0x40 MSTORE CALLVALUE DUP1 ISZERO PUSH2 0x10 JUMPI PUSH1 0x0 DUP1 REVERT JUMPDEST POP PUSH2 0x1908 DUP1 PUSH2 0x20 PUSH1 0x0 CODECOPY PUSH1 0x0 RETURN INVALID PUSH1 0x80 PUSH1 0x40 MSTORE CALLVALUE DUP1 ISZERO PUSH2 0x10 JUMPI PUSH1 0x0 DUP1 REVERT JUMPDEST POP PUSH1 0x4 CALLDATASIZE LT PUSH2 0x41 JUMPI PUSH1 0x0 CALLDATALOAD PUSH1 0xE0 SHR DUP1 PUSH4 0x18F80BB9 EQ PUSH2 0x46 JUMPI DUP1 PUSH4 0x9AD1EE10 EQ PUSH2 0x62 JUMPI DUP1 PUSH4 0xAA9A068F EQ PUSH2 0x92 JUMPI JUMPDEST PUSH1 0x0 DUP1 REVERT JUMPDEST PUSH2 0x60 PUSH1 0x4 DUP1 CALLDATASIZE SUB DUP2 ADD SWAP1 PUSH2 0x5B SWAP2 SWAP1 PUSH2 0x355 JUMP JUMPDEST PUSH2 0xB0 JUMP JUMPDEST STOP JUMPDEST PUSH2 0x7C PUSH1 0x4 DUP1 CALLDATASIZE SUB DUP2 ADD SWAP1 PUSH2 0x77 SWAP2 SWAP1 PUSH2 0x396 JUMP JUMPDEST PUSH2 0x15B JUMP JUMPDEST PUSH1 0x40 MLOAD PUSH2 0x89 SWAP2 SWAP1 PUSH2 0x453 JUMP JUMPDEST PUSH1 0x40 MLOAD DUP1 SWAP2 SUB SWAP1 RETURN JUMPDEST PUSH2 0x9A PUSH2 0x19A JUMP JUMPDEST PUSH1 0x40 MLOAD PUSH2 0xA7 SWAP2 SWAP1 PUSH2 0x46E JUMP JUMPDEST PUSH1 0x40 MLOAD DUP1 SWAP2 SUB SWAP1 RETURN JUMPDEST DUP1 PUSH1 0x1 SWAP1 DUP1 MLOAD SWAP1 PUSH1 0x20 ADD SWAP1 PUSH2 0xC6 SWAP3 SWAP2 SWAP1 PUSH2 0x228 JUMP JUMPDEST POP PUSH1 0x0 PUSH1 0x40 MLOAD PUSH2 0xD5 SWAP1 PUSH2 0x2AE JUMP JUMPDEST PUSH1 0x40 MLOAD DUP1 SWAP2 SUB SWAP1 PUSH1 0x0 CREATE DUP1 ISZERO DUP1 ISZERO PUSH2 0xF1 JUMPI RETURNDATASIZE PUSH1 0x0 DUP1 RETURNDATACOPY RETURNDATASIZE PUSH1 0x0 REVERT JUMPDEST POP SWAP1 POP PUSH1 0x0 DUP2 SWAP1 DUP1 PUSH1 0x1 DUP2 SLOAD ADD DUP1 DUP3 SSTORE DUP1 SWAP2 POP POP PUSH1 0x1 SWAP1 SUB SWAP1 PUSH1 0x0 MSTORE PUSH1 0x20 PUSH1 0x0 KECCAK256 ADD PUSH1 0x0 SWAP1 SWAP2 SWAP1 SWAP2 SWAP1 SWAP2 PUSH2 0x100 EXP DUP2 SLOAD DUP2 PUSH20 0xFFFFFFFFFFFFFFFFFFFFFFFFFFFFFFFFFFFFFFFF MUL NOT AND SWAP1 DUP4 PUSH20 0xFFFFFFFFFFFFFFFFFFFFFFFFFFFFFFFFFFFFFFFF AND MUL OR SWAP1 SSTORE POP POP POP JUMP JUMPDEST PUSH1 0x0 DUP2 DUP2 SLOAD DUP2 LT PUSH2 0x16B JUMPI PUSH1 0x0 DUP1 REVERT JUMPDEST SWAP1 PUSH1 0x0 MSTORE PUSH1 0x20 PUSH1 0x0 KECCAK256 ADD PUSH1 0x0 SWAP2 POP SLOAD SWAP1 PUSH2 0x100 EXP SWAP1 DIV PUSH20 0xFFFFFFFFFFFFFFFFFFFFFFFFFFFFFFFFFFFFFFFF AND DUP2 JUMP JUMPDEST PUSH1 0x60 PUSH1 0x0 DUP1 SLOAD DUP1 PUSH1 0x20 MUL PUSH1 0x20 ADD PUSH1 0x40 MLOAD SWAP1 DUP2 ADD PUSH1 0x40 MSTORE DUP1 SWAP3 SWAP2 SWAP1 DUP2 DUP2 MSTORE PUSH1 0x20 ADD DUP3 DUP1 SLOAD DUP1 ISZERO PUSH2 0x21E JUMPI PUSH1 0x20 MUL DUP3 ADD SWAP2 SWAP1 PUSH1 0x0 MSTORE PUSH1 0x20 PUSH1 0x0 KECCAK256 SWAP1 JUMPDEST DUP2 PUSH1 0x0 SWAP1 SLOAD SWAP1 PUSH2 0x100 EXP SWAP1 DIV PUSH20 0xFFFFFFFFFFFFFFFFFFFFFFFFFFFFFFFFFFFFFFFF AND PUSH20 0xFFFFFFFFFFFFFFFFFFFFFFFFFFFFFFFFFFFFFFFF AND DUP2 MSTORE PUSH1 0x20 ADD SWAP1 PUSH1 0x1 ADD SWAP1 DUP1 DUP4 GT PUSH2 0x1D4 JUMPI JUMPDEST POP POP POP POP POP SWAP1 POP SWAP1 JUMP JUMPDEST DUP3 DUP1 SLOAD PUSH2 0x234 SWAP1 PUSH2 0x56A JUMP JUMPDEST SWAP1 PUSH1 0x0 MSTORE PUSH1 0x20 PUSH1 0x0 KECCAK256 SWAP1 PUSH1 0x1F ADD PUSH1 0x20 SWAP1 DIV DUP2 ADD SWAP3 DUP3 PUSH2 0x256 JUMPI PUSH1 0x0 DUP6 SSTORE PUSH2 0x29D JUMP JUMPDEST DUP3 PUSH1 0x1F LT PUSH2 0x26F JUMPI DUP1 MLOAD PUSH1 0xFF NOT AND DUP4 DUP1 ADD OR DUP6 SSTORE PUSH2 0x29D JUMP JUMPDEST DUP3 DUP1 ADD PUSH1 0x1 ADD DUP6 SSTORE DUP3 ISZERO PUSH2 0x29D JUMPI SWAP2 DUP3 ADD JUMPDEST DUP3 DUP2 GT ISZERO PUSH2 0x29C JUMPI DUP3 MLOAD DUP3 SSTORE SWAP2 PUSH1 0x20 ADD SWAP2 SWAP1 PUSH1 0x1 ADD SWAP1 PUSH2 0x281 JUMP JUMPDEST JUMPDEST POP SWAP1 POP PUSH2 0x2AA SWAP2 SWAP1 PUSH2 0x2BB JUMP JUMPDEST POP SWAP1 JUMP JUMPDEST PUSH2 0x127F DUP1 PUSH2 0x654 DUP4 CODECOPY ADD SWAP1 JUMP JUMPDEST JUMPDEST DUP1 DUP3 GT ISZERO PUSH2 0x2D4 JUMPI PUSH1 0x0 DUP2 PUSH1 0x0 SWAP1 SSTORE POP PUSH1 0x1 ADD PUSH2 0x2BC JUMP JUMPDEST POP SWAP1 JUMP JUMPDEST PUSH1 0x0 PUSH2 0x2EB PUSH2 0x2E6 DUP5 PUSH2 0x4B5 JUMP JUMPDEST PUSH2 0x490 JUMP JUMPDEST SWAP1 POP DUP3 DUP2 MSTORE PUSH1 0x20 DUP2 ADD DUP5 DUP5 DUP5 ADD GT ISZERO PUSH2 0x303 JUMPI PUSH1 0x0 DUP1 REVERT JUMPDEST PUSH2 0x30E DUP5 DUP3 DUP6 PUSH2 0x55B JUMP JUMPDEST POP SWAP4 SWAP3 POP POP POP JUMP JUMPDEST PUSH1 0x0 DUP3 PUSH1 0x1F DUP4 ADD SLT PUSH2 0x327 JUMPI PUSH1 0x0 DUP1 REVERT JUMPDEST DUP2 CALLDATALOAD PUSH2 0x337 DUP5 DUP3 PUSH1 0x20 DUP7 ADD PUSH2 0x2D8 JUMP JUMPDEST SWAP2 POP POP SWAP3 SWAP2 POP POP JUMP JUMPDEST PUSH1 0x0 DUP2 CALLDATALOAD SWAP1 POP PUSH2 0x34F DUP2 PUSH2 0x63C JUMP JUMPDEST SWAP3 SWAP2 POP POP JUMP JUMPDEST PUSH1 0x0 PUSH1 0x20 DUP3 DUP5 SUB SLT ISZERO PUSH2 0x367 JUMPI PUSH1 0x0 DUP1 REVERT JUMPDEST PUSH1 0x0 DUP3 ADD CALLDATALOAD PUSH8 0xFFFFFFFFFFFFFFFF DUP2 GT ISZERO PUSH2 0x381 JUMPI PUSH1 0x0 DUP1 REVERT JUMPDEST PUSH2 0x38D DUP5 DUP3 DUP6 ADD PUSH2 0x316 JUMP JUMPDEST SWAP2 POP POP SWAP3 SWAP2 POP POP JUMP JUMPDEST PUSH1 0x0 PUSH1 0x20 DUP3 DUP5 SUB SLT ISZERO PUSH2 0x3A8 JUMPI PUSH1 0x0 DUP1 REVERT JUMPDEST PUSH1 0x0 PUSH2 0x3B6 DUP5 DUP3 DUP6 ADD PUSH2 0x340 JUMP JUMPDEST SWAP2 POP POP SWAP3 SWAP2 POP POP JUMP JUMPDEST PUSH1 0x0 PUSH2 0x3CB DUP4 DUP4 PUSH2 0x3D7 JUMP JUMPDEST PUSH1 0x20 DUP4 ADD SWAP1 POP SWAP3 SWAP2 POP POP JUMP JUMPDEST PUSH2 0x3E0 DUP2 PUSH2 0x51F JUMP JUMPDEST DUP3 MSTORE POP POP JUMP JUMPDEST PUSH2 0x3EF DUP2 PUSH2 0x51F JUMP JUMPDEST DUP3 MSTORE POP POP JUMP JUMPDEST PUSH1 0x0 PUSH2 0x400 DUP3 PUSH2 0x4F6 JUMP JUMPDEST PUSH2 0x40A DUP2 DUP6 PUSH2 0x50E JUMP JUMPDEST SWAP4 POP PUSH2 0x415 DUP4 PUSH2 0x4E6 JUMP JUMPDEST DUP1 PUSH1 0x0 JUMPDEST DUP4 DUP2 LT ISZERO PUSH2 0x446 JUMPI DUP2 MLOAD PUSH2 0x42D DUP9 DUP3 PUSH2 0x3BF JUMP JUMPDEST SWAP8 POP PUSH2 0x438 DUP4 PUSH2 0x501 JUMP JUMPDEST SWAP3 POP POP PUSH1 0x1 DUP2 ADD SWAP1 POP PUSH2 0x419 JUMP JUMPDEST POP DUP6 SWAP4 POP POP POP POP SWAP3 SWAP2 POP POP JUMP JUMPDEST PUSH1 0x0 PUSH1 0x20 DUP3 ADD SWAP1 POP PUSH2 0x468 PUSH1 0x0 DUP4 ADD DUP5 PUSH2 0x3E6 JUMP JUMPDEST SWAP3 SWAP2 POP POP JUMP JUMPDEST PUSH1 0x0 PUSH1 0x20 DUP3 ADD SWAP1 POP DUP2 DUP2 SUB PUSH1 0x0 DUP4 ADD MSTORE PUSH2 0x488 DUP2 DUP5 PUSH2 0x3F5 JUMP JUMPDEST SWAP1 POP SWAP3 SWAP2 POP POP JUMP JUMPDEST PUSH1 0x0 PUSH2 0x49A PUSH2 0x4AB JUMP JUMPDEST SWAP1 POP PUSH2 0x4A6 DUP3 DUP3 PUSH2 0x59C JUMP JUMPDEST SWAP2 SWAP1 POP JUMP JUMPDEST PUSH1 0x0 PUSH1 0x40 MLOAD SWAP1 POP SWAP1 JUMP JUMPDEST PUSH1 0x0 PUSH8 0xFFFFFFFFFFFFFFFF DUP3 GT ISZERO PUSH2 0x4D0 JUMPI PUSH2 0x4CF PUSH2 0x5FC JUMP JUMPDEST JUMPDEST PUSH2 0x4D9 DUP3 PUSH2 0x62B JUMP JUMPDEST SWAP1 POP PUSH1 0x20 DUP2 ADD SWAP1 POP SWAP2 SWAP1 POP JUMP JUMPDEST PUSH1 0x0 DUP2 SWAP1 POP PUSH1 0x20 DUP3 ADD SWAP1 POP SWAP2 SWAP1 POP JUMP JUMPDEST PUSH1 0x0 DUP2 MLOAD SWAP1 POP SWAP2 SWAP1 POP JUMP JUMPDEST PUSH1 0x0 PUSH1 0x20 DUP3 ADD SWAP1 POP SWAP2 SWAP1 POP JUMP JUMPDEST PUSH1 0x0 DUP3 DUP3 MSTORE PUSH1 0x20 DUP3 ADD SWAP1 POP SWAP3 SWAP2 POP POP JUMP JUMPDEST PUSH1 0x0 PUSH2 0x52A DUP3 PUSH2 0x531 JUMP JUMPDEST SWAP1 POP SWAP2 SWAP1 POP JUMP JUMPDEST PUSH1 0x0 PUSH20 0xFFFFFFFFFFFFFFFFFFFFFFFFFFFFFFFFFFFFFFFF DUP3 AND SWAP1 POP SWAP2 SWAP1 POP JUMP JUMPDEST PUSH1 0x0 DUP2 SWAP1 POP SWAP2 SWAP1 POP JUMP JUMPDEST DUP3 DUP2 DUP4 CALLDATACOPY PUSH1 0x0 DUP4 DUP4 ADD MSTORE POP POP POP JUMP JUMPDEST PUSH1 0x0 PUSH1 0x2 DUP3 DIV SWAP1 POP PUSH1 0x1 DUP3 AND DUP1 PUSH2 0x582 JUMPI PUSH1 0x7F DUP3 AND SWAP2 POP JUMPDEST PUSH1 0x20 DUP3 LT DUP2 EQ ISZERO PUSH2 0x596 JUMPI PUSH2 0x595 PUSH2 0x5CD JUMP JUMPDEST JUMPDEST POP SWAP2 SWAP1 POP JUMP JUMPDEST PUSH2 0x5A5 DUP3 PUSH2 0x62B JUMP JUMPDEST DUP2 ADD DUP2 DUP2 LT PUSH8 0xFFFFFFFFFFFFFFFF DUP3 GT OR ISZERO PUSH2 0x5C4 JUMPI PUSH2 0x5C3 PUSH2 0x5FC JUMP JUMPDEST JUMPDEST DUP1 PUSH1 0x40 MSTORE POP POP POP JUMP JUMPDEST PUSH32 0x4E487B7100000000000000000000000000000000000000000000000000000000 PUSH1 0x0 MSTORE PUSH1 0x22 PUSH1 0x4 MSTORE PUSH1 0x24 PUSH1 0x0 REVERT JUMPDEST PUSH32 0x4E487B7100000000000000000000000000000000000000000000000000000000 PUSH1 0x0 MSTORE PUSH1 0x41 PUSH1 0x4 MSTORE PUSH1 0x24 PUSH1 0x0 REVERT JUMPDEST PUSH1 0x0 PUSH1 0x1F NOT PUSH1 0x1F DUP4 ADD AND SWAP1 POP SWAP2 SWAP1 POP JUMP JUMPDEST PUSH2 0x645 DUP2 PUSH2 0x551 JUMP JUMPDEST DUP2 EQ PUSH2 0x650 JUMPI PUSH1 0x0 DUP1 REVERT JUMPDEST POP JUMP INVALID PUSH1 0x80 PUSH1 0x40 MSTORE CALLVALUE DUP1 ISZERO PUSH2 0x10 JUMPI PUSH1 0x0 DUP1 REVERT JUMPDEST POP PUSH2 0x125F DUP1 PUSH2 0x20 PUSH1 0x0 CODECOPY PUSH1 0x0 RETURN INVALID PUSH1 0x80 PUSH1 0x40 MSTORE CALLVALUE DUP1 ISZERO PUSH2 0x10 JUMPI PUSH1 0x0 DUP1 REVERT JUMPDEST POP PUSH1 0x4 CALLDATASIZE LT PUSH2 0xA9 JUMPI PUSH1 0x0 CALLDATALOAD PUSH1 0xE0 SHR DUP1 PUSH4 0xAEE14460 GT PUSH2 0x71 JUMPI DUP1 PUSH4 0xAEE14460 EQ PUSH2 0x178 JUMPI DUP1 PUSH4 0xC72109D5 EQ PUSH2 0x1AA JUMPI DUP1 PUSH4 0xD6F8307F EQ PUSH2 0x1C6 JUMPI DUP1 PUSH4 0xDE58F1B6 EQ PUSH2 0x1F6 JUMPI DUP1 PUSH4 0xEECD6BC2 EQ PUSH2 0x214 JUMPI DUP1 PUSH4 0xF0BA8440 EQ PUSH2 0x230 JUMPI PUSH2 0xA9 JUMP JUMPDEST DUP1 PUSH4 0x19A32989 EQ PUSH2 0xAE JUMPI DUP1 PUSH4 0x1DA000EC EQ PUSH2 0xCA JUMPI DUP1 PUSH4 0x2EECA2CC EQ PUSH2 0xE6 JUMPI DUP1 PUSH4 0x81D12C58 EQ PUSH2 0x116 JUMPI DUP1 PUSH4 0x9A5E5B77 EQ PUSH2 0x148 JUMPI JUMPDEST PUSH1 0x0 DUP1 REVERT JUMPDEST PUSH2 0xC8 PUSH1 0x4 DUP1 CALLDATASIZE SUB DUP2 ADD SWAP1 PUSH2 0xC3 SWAP2 SWAP1 PUSH2 0xD21 JUMP JUMPDEST PUSH2 0x262 JUMP JUMPDEST STOP JUMPDEST PUSH2 0xE4 PUSH1 0x4 DUP1 CALLDATASIZE SUB DUP2 ADD SWAP1 PUSH2 0xDF SWAP2 SWAP1 PUSH2 0xD4A JUMP JUMPDEST PUSH2 0x3BF JUMP JUMPDEST STOP JUMPDEST PUSH2 0x100 PUSH1 0x4 DUP1 CALLDATASIZE SUB DUP2 ADD SWAP1 PUSH2 0xFB SWAP2 SWAP1 PUSH2 0xD21 JUMP JUMPDEST PUSH2 0x49D JUMP JUMPDEST PUSH1 0x40 MLOAD PUSH2 0x10D SWAP2 SWAP1 PUSH2 0xE6C JUMP JUMPDEST PUSH1 0x40 MLOAD DUP1 SWAP2 SUB SWAP1 RETURN JUMPDEST PUSH2 0x130 PUSH1 0x4 DUP1 CALLDATASIZE SUB DUP2 ADD SWAP1 PUSH2 0x12B SWAP2 SWAP1 PUSH2 0xD21 JUMP JUMPDEST PUSH2 0x4DC JUMP JUMPDEST PUSH1 0x40 MLOAD PUSH2 0x13F SWAP4 SWAP3 SWAP2 SWAP1 PUSH2 0xE87 JUMP JUMPDEST PUSH1 0x40 MLOAD DUP1 SWAP2 SUB SWAP1 RETURN JUMPDEST PUSH2 0x162 PUSH1 0x4 DUP1 CALLDATASIZE SUB DUP2 ADD SWAP1 PUSH2 0x15D SWAP2 SWAP1 PUSH2 0xD21 JUMP JUMPDEST PUSH2 0x6DA JUMP JUMPDEST PUSH1 0x40 MLOAD PUSH2 0x16F SWAP2 SWAP1 PUSH2 0xF85 JUMP JUMPDEST PUSH1 0x40 MLOAD DUP1 SWAP2 SUB SWAP1 RETURN JUMPDEST PUSH2 0x192 PUSH1 0x4 DUP1 CALLDATASIZE SUB DUP2 ADD SWAP1 PUSH2 0x18D SWAP2 SWAP1 PUSH2 0xD21 JUMP JUMPDEST PUSH2 0x6FA JUMP JUMPDEST PUSH1 0x40 MLOAD PUSH2 0x1A1 SWAP4 SWAP3 SWAP2 SWAP1 PUSH2 0xED9 JUMP JUMPDEST PUSH1 0x40 MLOAD DUP1 SWAP2 SUB SWAP1 RETURN JUMPDEST PUSH2 0x1C4 PUSH1 0x4 DUP1 CALLDATASIZE SUB DUP2 ADD SWAP1 PUSH2 0x1BF SWAP2 SWAP1 PUSH2 0xCA4 JUMP JUMPDEST PUSH2 0x7DE JUMP JUMPDEST STOP JUMPDEST PUSH2 0x1E0 PUSH1 0x4 DUP1 CALLDATASIZE SUB DUP2 ADD SWAP1 PUSH2 0x1DB SWAP2 SWAP1 PUSH2 0xC7B JUMP JUMPDEST PUSH2 0x948 JUMP JUMPDEST PUSH1 0x40 MLOAD PUSH2 0x1ED SWAP2 SWAP1 PUSH2 0xEBE JUMP JUMPDEST PUSH1 0x40 MLOAD DUP1 SWAP2 SUB SWAP1 RETURN JUMPDEST PUSH2 0x1FE PUSH2 0x968 JUMP JUMPDEST PUSH1 0x40 MLOAD PUSH2 0x20B SWAP2 SWAP1 PUSH2 0xF85 JUMP JUMPDEST PUSH1 0x40 MLOAD DUP1 SWAP2 SUB SWAP1 RETURN JUMPDEST PUSH2 0x22E PUSH1 0x4 DUP1 CALLDATASIZE SUB DUP2 ADD SWAP1 PUSH2 0x229 SWAP2 SWAP1 PUSH2 0xCE0 JUMP JUMPDEST PUSH2 0x96E JUMP JUMPDEST STOP JUMPDEST PUSH2 0x24A PUSH1 0x4 DUP1 CALLDATASIZE SUB DUP2 ADD SWAP1 PUSH2 0x245 SWAP2 SWAP1 PUSH2 0xD21 JUMP JUMPDEST PUSH2 0xA74 JUMP JUMPDEST PUSH1 0x40 MLOAD PUSH2 0x259 SWAP4 SWAP3 SWAP2 SWAP1 PUSH2 0xF17 JUMP JUMPDEST PUSH1 0x40 MLOAD DUP1 SWAP2 SUB SWAP1 RETURN JUMPDEST CALLER PUSH20 0xFFFFFFFFFFFFFFFFFFFFFFFFFFFFFFFFFFFFFFFF AND PUSH1 0x4 PUSH1 0x0 DUP4 DUP2 MSTORE PUSH1 0x20 ADD SWAP1 DUP2 MSTORE PUSH1 0x20 ADD PUSH1 0x0 KECCAK256 PUSH1 0x4 ADD PUSH1 0x0 SWAP1 SLOAD SWAP1 PUSH2 0x100 EXP SWAP1 DIV PUSH20 0xFFFFFFFFFFFFFFFFFFFFFFFFFFFFFFFFFFFFFFFF AND PUSH20 0xFFFFFFFFFFFFFFFFFFFFFFFFFFFFFFFFFFFFFFFF AND EQ DUP1 PUSH2 0x32F JUMPI POP PUSH1 0x4 PUSH1 0x0 DUP3 DUP2 MSTORE PUSH1 0x20 ADD SWAP1 DUP2 MSTORE PUSH1 0x20 ADD PUSH1 0x0 KECCAK256 PUSH1 0x2 ADD PUSH1 0x0 CALLER PUSH20 0xFFFFFFFFFFFFFFFFFFFFFFFFFFFFFFFFFFFFFFFF AND PUSH20 0xFFFFFFFFFFFFFFFFFFFFFFFFFFFFFFFFFFFFFFFF AND DUP2 MSTORE PUSH1 0x20 ADD SWAP1 DUP2 MSTORE PUSH1 0x20 ADD PUSH1 0x0 KECCAK256 PUSH1 0x0 SWAP1 SLOAD SWAP1 PUSH2 0x100 EXP SWAP1 DIV PUSH1 0xFF AND JUMPDEST PUSH2 0x338 JUMPI PUSH1 0x0 DUP1 REVERT JUMPDEST PUSH32 0x5DD8F520B99936208713D8C2BE2E573016BBD1C7EBC3BBA173D637BBF9F5E880 PUSH1 0x4 PUSH1 0x0 DUP4 DUP2 MSTORE PUSH1 0x20 ADD SWAP1 DUP2 MSTORE PUSH1 0x20 ADD PUSH1 0x0 KECCAK256 PUSH1 0x0 ADD PUSH1 0x4 PUSH1 0x0 DUP5 DUP2 MSTORE PUSH1 0x20 ADD SWAP1 DUP2 MSTORE PUSH1 0x20 ADD PUSH1 0x0 KECCAK256 PUSH1 0x4 ADD PUSH1 0x0 SWAP1 SLOAD SWAP1 PUSH2 0x100 EXP SWAP1 DIV PUSH20 0xFFFFFFFFFFFFFFFFFFFFFFFFFFFFFFFFFFFFFFFF AND PUSH1 0x40 MLOAD PUSH2 0x3B4 SWAP3 SWAP2 SWAP1 PUSH2 0xF55 JUMP JUMPDEST PUSH1 0x40 MLOAD DUP1 SWAP2 SUB SWAP1 LOG1 POP JUMP JUMPDEST CALLER PUSH20 0xFFFFFFFFFFFFFFFFFFFFFFFFFFFFFFFFFFFFFFFF AND PUSH1 0x4 PUSH1 0x0 DUP5 DUP2 MSTORE PUSH1 0x20 ADD SWAP1 DUP2 MSTORE PUSH1 0x20 ADD PUSH1 0x0 KECCAK256 PUSH1 0x4 ADD PUSH1 0x0 SWAP1 SLOAD SWAP1 PUSH2 0x100 EXP SWAP1 DIV PUSH20 0xFFFFFFFFFFFFFFFFFFFFFFFFFFFFFFFFFFFFFFFF AND PUSH20 0xFFFFFFFFFFFFFFFFFFFFFFFFFFFFFFFFFFFFFFFF AND EQ PUSH2 0x42D JUMPI PUSH1 0x0 DUP1 REVERT JUMPDEST PUSH1 0x1 PUSH1 0x4 PUSH1 0x0 DUP5 DUP2 MSTORE PUSH1 0x20 ADD SWAP1 DUP2 MSTORE PUSH1 0x20 ADD PUSH1 0x0 KECCAK256 PUSH1 0x2 ADD PUSH1 0x0 DUP4 PUSH20 0xFFFFFFFFFFFFFFFFFFFFFFFFFFFFFFFFFFFFFFFF AND PUSH20 0xFFFFFFFFFFFFFFFFFFFFFFFFFFFFFFFFFFFFFFFF AND DUP2 MSTORE PUSH1 0x20 ADD SWAP1 DUP2 MSTORE PUSH1 0x20 ADD PUSH1 0x0 KECCAK256 PUSH1 0x0 PUSH2 0x100 EXP DUP2 SLOAD DUP2 PUSH1 0xFF MUL NOT AND SWAP1 DUP4 ISZERO ISZERO MUL OR SWAP1 SSTORE POP POP POP JUMP JUMPDEST PUSH1 0x0 DUP2 DUP2 SLOAD DUP2 LT PUSH2 0x4AD JUMPI PUSH1 0x0 DUP1 REVERT JUMPDEST SWAP1 PUSH1 0x0 MSTORE PUSH1 0x20 PUSH1 0x0 KECCAK256 ADD PUSH1 0x0 SWAP2 POP SLOAD SWAP1 PUSH2 0x100 EXP SWAP1 DIV PUSH20 0xFFFFFFFFFFFFFFFFFFFFFFFFFFFFFFFFFFFFFFFF AND DUP2 JUMP JUMPDEST PUSH1 0x0 DUP1 PUSH1 0x0 DUP1 DUP5 DUP2 SLOAD DUP2 LT PUSH2 0x51A JUMPI PUSH32 0x4E487B7100000000000000000000000000000000000000000000000000000000 PUSH1 0x0 MSTORE PUSH1 0x32 PUSH1 0x4 MSTORE PUSH1 0x24 PUSH1 0x0 REVERT JUMPDEST SWAP1 PUSH1 0x0 MSTORE PUSH1 0x20 PUSH1 0x0 KECCAK256 ADD PUSH1 0x0 SWAP1 SLOAD SWAP1 PUSH2 0x100 EXP SWAP1 DIV PUSH20 0xFFFFFFFFFFFFFFFFFFFFFFFFFFFFFFFFFFFFFFFF AND PUSH1 0x4 PUSH1 0x0 DUP7 DUP2 MSTORE PUSH1 0x20 ADD SWAP1 DUP2 MSTORE PUSH1 0x20 ADD PUSH1 0x0 KECCAK256 PUSH1 0x1 ADD PUSH1 0x0 DUP1 DUP8 DUP2 SLOAD DUP2 LT PUSH2 0x596 JUMPI PUSH32 0x4E487B7100000000000000000000000000000000000000000000000000000000 PUSH1 0x0 MSTORE PUSH1 0x32 PUSH1 0x4 MSTORE PUSH1 0x24 PUSH1 0x0 REVERT JUMPDEST SWAP1 PUSH1 0x0 MSTORE PUSH1 0x20 PUSH1 0x0 KECCAK256 ADD PUSH1 0x0 SWAP1 SLOAD SWAP1 PUSH2 0x100 EXP SWAP1 DIV PUSH20 0xFFFFFFFFFFFFFFFFFFFFFFFFFFFFFFFFFFFFFFFF AND PUSH20 0xFFFFFFFFFFFFFFFFFFFFFFFFFFFFFFFFFFFFFFFF AND PUSH20 0xFFFFFFFFFFFFFFFFFFFFFFFFFFFFFFFFFFFFFFFF AND DUP2 MSTORE PUSH1 0x20 ADD SWAP1 DUP2 MSTORE PUSH1 0x20 ADD PUSH1 0x0 KECCAK256 PUSH1 0x0 SWAP1 SLOAD SWAP1 PUSH2 0x100 EXP SWAP1 DIV PUSH1 0xFF AND PUSH1 0x4 PUSH1 0x0 DUP8 DUP2 MSTORE PUSH1 0x20 ADD SWAP1 DUP2 MSTORE PUSH1 0x20 ADD PUSH1 0x0 KECCAK256 PUSH1 0x2 ADD PUSH1 0x0 DUP1 DUP9 DUP2 SLOAD DUP2 LT PUSH2 0x65A JUMPI PUSH32 0x4E487B7100000000000000000000000000000000000000000000000000000000 PUSH1 0x0 MSTORE PUSH1 0x32 PUSH1 0x4 MSTORE PUSH1 0x24 PUSH1 0x0 REVERT JUMPDEST SWAP1 PUSH1 0x0 MSTORE PUSH1 0x20 PUSH1 0x0 KECCAK256 ADD PUSH1 0x0 SWAP1 SLOAD SWAP1 PUSH2 0x100 EXP SWAP1 DIV PUSH20 0xFFFFFFFFFFFFFFFFFFFFFFFFFFFFFFFFFFFFFFFF AND PUSH20 0xFFFFFFFFFFFFFFFFFFFFFFFFFFFFFFFFFFFFFFFF AND PUSH20 0xFFFFFFFFFFFFFFFFFFFFFFFFFFFFFFFFFFFFFFFF AND DUP2 MSTORE PUSH1 0x20 ADD SWAP1 DUP2 MSTORE PUSH1 0x20 ADD PUSH1 0x0 KECCAK256 PUSH1 0x0 SWAP1 SLOAD SWAP1 PUSH2 0x100 EXP SWAP1 DIV PUSH1 0xFF AND SWAP3 POP SWAP3 POP SWAP3 POP SWAP2 SWAP4 SWAP1 SWAP3 POP JUMP JUMPDEST PUSH1 0x0 PUSH1 0x4 PUSH1 0x0 DUP4 DUP2 MSTORE PUSH1 0x20 ADD SWAP1 DUP2 MSTORE PUSH1 0x20 ADD PUSH1 0x0 KECCAK256 PUSH1 0x3 ADD SLOAD SWAP1 POP SWAP2 SWAP1 POP JUMP JUMPDEST PUSH1 0x60 PUSH1 0x0 DUP1 PUSH1 0x0 PUSH1 0x4 PUSH1 0x0 DUP7 DUP2 MSTORE PUSH1 0x20 ADD SWAP1 DUP2 MSTORE PUSH1 0x20 ADD PUSH1 0x0 KECCAK256 SWAP1 POP DUP1 PUSH1 0x0 ADD DUP2 PUSH1 0x4 ADD PUSH1 0x0 SWAP1 SLOAD SWAP1 PUSH2 0x100 EXP SWAP1 DIV PUSH20 0xFFFFFFFFFFFFFFFFFFFFFFFFFFFFFFFFFFFFFFFF AND DUP3 PUSH1 0x3 ADD SLOAD DUP3 DUP1 SLOAD PUSH2 0x750 SWAP1 PUSH2 0x10B1 JUMP JUMPDEST DUP1 PUSH1 0x1F ADD PUSH1 0x20 DUP1 SWAP2 DIV MUL PUSH1 0x20 ADD PUSH1 0x40 MLOAD SWAP1 DUP2 ADD PUSH1 0x40 MSTORE DUP1 SWAP3 SWAP2 SWAP1 DUP2 DUP2 MSTORE PUSH1 0x20 ADD DUP3 DUP1 SLOAD PUSH2 0x77C SWAP1 PUSH2 0x10B1 JUMP JUMPDEST DUP1 ISZERO PUSH2 0x7C9 JUMPI DUP1 PUSH1 0x1F LT PUSH2 0x79E JUMPI PUSH2 0x100 DUP1 DUP4 SLOAD DIV MUL DUP4 MSTORE SWAP2 PUSH1 0x20 ADD SWAP2 PUSH2 0x7C9 JUMP JUMPDEST DUP3 ADD SWAP2 SWAP1 PUSH1 0x0 MSTORE PUSH1 0x20 PUSH1 0x0 KECCAK256 SWAP1 JUMPDEST DUP2 SLOAD DUP2 MSTORE SWAP1 PUSH1 0x1 ADD SWAP1 PUSH1 0x20 ADD DUP1 DUP4 GT PUSH2 0x7AC JUMPI DUP3 SWAP1 SUB PUSH1 0x1F AND DUP3 ADD SWAP2 JUMPDEST POP POP POP POP POP SWAP3 POP SWAP4 POP SWAP4 POP SWAP4 POP POP SWAP2 SWAP4 SWAP1 SWAP3 POP JUMP JUMPDEST PUSH1 0x4 PUSH1 0x0 DUP3 DUP2 MSTORE PUSH1 0x20 ADD SWAP1 DUP2 MSTORE PUSH1 0x20 ADD PUSH1 0x0 KECCAK256 PUSH1 0x1 ADD PUSH1 0x0 DUP4 PUSH20 0xFFFFFFFFFFFFFFFFFFFFFFFFFFFFFFFFFFFFFFFF AND PUSH20 0xFFFFFFFFFFFFFFFFFFFFFFFFFFFFFFFFFFFFFFFF AND DUP2 MSTORE PUSH1 0x20 ADD SWAP1 DUP2 MSTORE PUSH1 0x20 ADD PUSH1 0x0 KECCAK256 PUSH1 0x0 SWAP1 SLOAD SWAP1 PUSH2 0x100 EXP SWAP1 DIV PUSH1 0xFF AND ISZERO PUSH2 0x849 JUMPI PUSH1 0x0 DUP1 REVERT JUMPDEST PUSH1 0x1 PUSH1 0x4 PUSH1 0x0 DUP4 DUP2 MSTORE PUSH1 0x20 ADD SWAP1 DUP2 MSTORE PUSH1 0x20 ADD PUSH1 0x0 KECCAK256 PUSH1 0x1 ADD PUSH1 0x0 DUP5 PUSH20 0xFFFFFFFFFFFFFFFFFFFFFFFFFFFFFFFFFFFFFFFF AND PUSH20 0xFFFFFFFFFFFFFFFFFFFFFFFFFFFFFFFFFFFFFFFF AND DUP2 MSTORE PUSH1 0x20 ADD SWAP1 DUP2 MSTORE PUSH1 0x20 ADD PUSH1 0x0 KECCAK256 PUSH1 0x0 PUSH2 0x100 EXP DUP2 SLOAD DUP2 PUSH1 0xFF MUL NOT AND SWAP1 DUP4 ISZERO ISZERO MUL OR SWAP1 SSTORE POP PUSH1 0x4 PUSH1 0x0 DUP3 DUP2 MSTORE PUSH1 0x20 ADD SWAP1 DUP2 MSTORE PUSH1 0x20 ADD PUSH1 0x0 KECCAK256 PUSH1 0x3 ADD PUSH1 0x0 DUP2 SLOAD DUP1 SWAP3 SWAP2 SWAP1 PUSH2 0x8DC SWAP1 PUSH2 0x1114 JUMP JUMPDEST SWAP2 SWAP1 POP SSTORE POP PUSH1 0x0 DUP3 SWAP1 DUP1 PUSH1 0x1 DUP2 SLOAD ADD DUP1 DUP3 SSTORE DUP1 SWAP2 POP POP PUSH1 0x1 SWAP1 SUB SWAP1 PUSH1 0x0 MSTORE PUSH1 0x20 PUSH1 0x0 KECCAK256 ADD PUSH1 0x0 SWAP1 SWAP2 SWAP1 SWAP2 SWAP1 SWAP2 PUSH2 0x100 EXP DUP2 SLOAD DUP2 PUSH20 0xFFFFFFFFFFFFFFFFFFFFFFFFFFFFFFFFFFFFFFFF MUL NOT AND SWAP1 DUP4 PUSH20 0xFFFFFFFFFFFFFFFFFFFFFFFFFFFFFFFFFFFFFFFF AND MUL OR SWAP1 SSTORE POP POP POP JUMP JUMPDEST PUSH1 0x1 PUSH1 0x20 MSTORE DUP1 PUSH1 0x0 MSTORE PUSH1 0x40 PUSH1 0x0 KECCAK256 PUSH1 0x0 SWAP2 POP SLOAD SWAP1 PUSH2 0x100 EXP SWAP1 DIV PUSH1 0xFF AND DUP2 JUMP JUMPDEST PUSH1 0x2 SLOAD DUP2 JUMP JUMPDEST PUSH1 0x1 DUP1 PUSH1 0x0 CALLER PUSH20 0xFFFFFFFFFFFFFFFFFFFFFFFFFFFFFFFFFFFFFFFF AND PUSH20 0xFFFFFFFFFFFFFFFFFFFFFFFFFFFFFFFFFFFFFFFF AND DUP2 MSTORE PUSH1 0x20 ADD SWAP1 DUP2 MSTORE PUSH1 0x20 ADD PUSH1 0x0 KECCAK256 PUSH1 0x0 PUSH2 0x100 EXP DUP2 SLOAD DUP2 PUSH1 0xFF MUL NOT AND SWAP1 DUP4 ISZERO ISZERO MUL OR SWAP1 SSTORE POP PUSH1 0x2 PUSH1 0x0 DUP2 SLOAD DUP1 SWAP3 SWAP2 SWAP1 PUSH2 0x9D8 SWAP1 PUSH2 0x1114 JUMP JUMPDEST SWAP2 SWAP1 POP SSTORE POP PUSH1 0x0 PUSH1 0x4 PUSH1 0x0 PUSH1 0x3 PUSH1 0x0 DUP2 SLOAD DUP1 SWAP3 SWAP2 SWAP1 PUSH2 0x9F6 SWAP1 PUSH2 0x1114 JUMP JUMPDEST SWAP2 SWAP1 POP SSTORE DUP2 MSTORE PUSH1 0x20 ADD SWAP1 DUP2 MSTORE PUSH1 0x20 ADD PUSH1 0x0 KECCAK256 SWAP1 POP DUP2 DUP2 PUSH1 0x0 ADD SWAP1 DUP1 MLOAD SWAP1 PUSH1 0x20 ADD SWAP1 PUSH2 0xA22 SWAP3 SWAP2 SWAP1 PUSH2 0xB46 JUMP JUMPDEST POP PUSH1 0x0 DUP2 PUSH1 0x3 ADD DUP2 SWAP1 SSTORE POP CALLER DUP2 PUSH1 0x4 ADD PUSH1 0x0 PUSH2 0x100 EXP DUP2 SLOAD DUP2 PUSH20 0xFFFFFFFFFFFFFFFFFFFFFFFFFFFFFFFFFFFFFFFF MUL NOT AND SWAP1 DUP4 PUSH20 0xFFFFFFFFFFFFFFFFFFFFFFFFFFFFFFFFFFFFFFFF AND MUL OR SWAP1 SSTORE POP POP POP JUMP JUMPDEST PUSH1 0x4 PUSH1 0x20 MSTORE DUP1 PUSH1 0x0 MSTORE PUSH1 0x40 PUSH1 0x0 KECCAK256 PUSH1 0x0 SWAP2 POP SWAP1 POP DUP1 PUSH1 0x0 ADD DUP1 SLOAD PUSH2 0xA97 SWAP1 PUSH2 0x10B1 JUMP JUMPDEST DUP1 PUSH1 0x1F ADD PUSH1 0x20 DUP1 SWAP2 DIV MUL PUSH1 0x20 ADD PUSH1 0x40 MLOAD SWAP1 DUP2 ADD PUSH1 0x40 MSTORE DUP1 SWAP3 SWAP2 SWAP1 DUP2 DUP2 MSTORE PUSH1 0x20 ADD DUP3 DUP1 SLOAD PUSH2 0xAC3 SWAP1 PUSH2 0x10B1 JUMP JUMPDEST DUP1 ISZERO PUSH2 0xB10 JUMPI DUP1 PUSH1 0x1F LT PUSH2 0xAE5 JUMPI PUSH2 0x100 DUP1 DUP4 SLOAD DIV MUL DUP4 MSTORE SWAP2 PUSH1 0x20 ADD SWAP2 PUSH2 0xB10 JUMP JUMPDEST DUP3 ADD SWAP2 SWAP1 PUSH1 0x0 MSTORE PUSH1 0x20 PUSH1 0x0 KECCAK256 SWAP1 JUMPDEST DUP2 SLOAD DUP2 MSTORE SWAP1 PUSH1 0x1 ADD SWAP1 PUSH1 0x20 ADD DUP1 DUP4 GT PUSH2 0xAF3 JUMPI DUP3 SWAP1 SUB PUSH1 0x1F AND DUP3 ADD SWAP2 JUMPDEST POP POP POP POP POP SWAP1 DUP1 PUSH1 0x3 ADD SLOAD SWAP1 DUP1 PUSH1 0x4 ADD PUSH1 0x0 SWAP1 SLOAD SWAP1 PUSH2 0x100 EXP SWAP1 DIV PUSH20 0xFFFFFFFFFFFFFFFFFFFFFFFFFFFFFFFFFFFFFFFF AND SWAP1 POP DUP4 JUMP JUMPDEST DUP3 DUP1 SLOAD PUSH2 0xB52 SWAP1 PUSH2 0x10B1 JUMP JUMPDEST SWAP1 PUSH1 0x0 MSTORE PUSH1 0x20 PUSH1 0x0 KECCAK256 SWAP1 PUSH1 0x1F ADD PUSH1 0x20 SWAP1 DIV DUP2 ADD SWAP3 DUP3 PUSH2 0xB74 JUMPI PUSH1 0x0 DUP6 SSTORE PUSH2 0xBBB JUMP JUMPDEST DUP3 PUSH1 0x1F LT PUSH2 0xB8D JUMPI DUP1 MLOAD PUSH1 0xFF NOT AND DUP4 DUP1 ADD OR DUP6 SSTORE PUSH2 0xBBB JUMP JUMPDEST DUP3 DUP1 ADD PUSH1 0x1 ADD DUP6 SSTORE DUP3 ISZERO PUSH2 0xBBB JUMPI SWAP2 DUP3 ADD JUMPDEST DUP3 DUP2 GT ISZERO PUSH2 0xBBA JUMPI DUP3 MLOAD DUP3 SSTORE SWAP2 PUSH1 0x20 ADD SWAP2 SWAP1 PUSH1 0x1 ADD SWAP1 PUSH2 0xB9F JUMP JUMPDEST JUMPDEST POP SWAP1 POP PUSH2 0xBC8 SWAP2 SWAP1 PUSH2 0xBCC JUMP JUMPDEST POP SWAP1 JUMP JUMPDEST JUMPDEST DUP1 DUP3 GT ISZERO PUSH2 0xBE5 JUMPI PUSH1 0x0 DUP2 PUSH1 0x0 SWAP1 SSTORE POP PUSH1 0x1 ADD PUSH2 0xBCD JUMP JUMPDEST POP SWAP1 JUMP JUMPDEST PUSH1 0x0 PUSH2 0xBFC PUSH2 0xBF7 DUP5 PUSH2 0xFC5 JUMP JUMPDEST PUSH2 0xFA0 JUMP JUMPDEST SWAP1 POP DUP3 DUP2 MSTORE PUSH1 0x20 DUP2 ADD DUP5 DUP5 DUP5 ADD GT ISZERO PUSH2 0xC14 JUMPI PUSH1 0x0 DUP1 REVERT JUMPDEST PUSH2 0xC1F DUP5 DUP3 DUP6 PUSH2 0x106F JUMP JUMPDEST POP SWAP4 SWAP3 POP POP POP JUMP JUMPDEST PUSH1 0x0 DUP2 CALLDATALOAD SWAP1 POP PUSH2 0xC36 DUP2 PUSH2 0x11FB JUMP JUMPDEST SWAP3 SWAP2 POP POP JUMP JUMPDEST PUSH1 0x0 DUP3 PUSH1 0x1F DUP4 ADD SLT PUSH2 0xC4D JUMPI PUSH1 0x0 DUP1 REVERT JUMPDEST DUP2 CALLDATALOAD PUSH2 0xC5D DUP5 DUP3 PUSH1 0x20 DUP7 ADD PUSH2 0xBE9 JUMP JUMPDEST SWAP2 POP POP SWAP3 SWAP2 POP POP JUMP JUMPDEST PUSH1 0x0 DUP2 CALLDATALOAD SWAP1 POP PUSH2 0xC75 DUP2 PUSH2 0x1212 JUMP JUMPDEST SWAP3 SWAP2 POP POP JUMP JUMPDEST PUSH1 0x0 PUSH1 0x20 DUP3 DUP5 SUB SLT ISZERO PUSH2 0xC8D JUMPI PUSH1 0x0 DUP1 REVERT JUMPDEST PUSH1 0x0 PUSH2 0xC9B DUP5 DUP3 DUP6 ADD PUSH2 0xC27 JUMP JUMPDEST SWAP2 POP POP SWAP3 SWAP2 POP POP JUMP JUMPDEST PUSH1 0x0 DUP1 PUSH1 0x40 DUP4 DUP6 SUB SLT ISZERO PUSH2 0xCB7 JUMPI PUSH1 0x0 DUP1 REVERT JUMPDEST PUSH1 0x0 PUSH2 0xCC5 DUP6 DUP3 DUP7 ADD PUSH2 0xC27 JUMP JUMPDEST SWAP3 POP POP PUSH1 0x20 PUSH2 0xCD6 DUP6 DUP3 DUP7 ADD PUSH2 0xC66 JUMP JUMPDEST SWAP2 POP POP SWAP3 POP SWAP3 SWAP1 POP JUMP JUMPDEST PUSH1 0x0 PUSH1 0x20 DUP3 DUP5 SUB SLT ISZERO PUSH2 0xCF2 JUMPI PUSH1 0x0 DUP1 REVERT JUMPDEST PUSH1 0x0 DUP3 ADD CALLDATALOAD PUSH8 0xFFFFFFFFFFFFFFFF DUP2 GT ISZERO PUSH2 0xD0C JUMPI PUSH1 0x0 DUP1 REVERT JUMPDEST PUSH2 0xD18 DUP5 DUP3 DUP6 ADD PUSH2 0xC3C JUMP JUMPDEST SWAP2 POP POP SWAP3 SWAP2 POP POP JUMP JUMPDEST PUSH1 0x0 PUSH1 0x20 DUP3 DUP5 SUB SLT ISZERO PUSH2 0xD33 JUMPI PUSH1 0x0 DUP1 REVERT JUMPDEST PUSH1 0x0 PUSH2 0xD41 DUP5 DUP3 DUP6 ADD PUSH2 0xC66 JUMP JUMPDEST SWAP2 POP POP SWAP3 SWAP2 POP POP JUMP JUMPDEST PUSH1 0x0 DUP1 PUSH1 0x40 DUP4 DUP6 SUB SLT ISZERO PUSH2 0xD5D JUMPI PUSH1 0x0 DUP1 REVERT JUMPDEST PUSH1 0x0 PUSH2 0xD6B DUP6 DUP3 DUP7 ADD PUSH2 0xC66 JUMP JUMPDEST SWAP3 POP POP PUSH1 0x20 PUSH2 0xD7C DUP6 DUP3 DUP7 ADD PUSH2 0xC27 JUMP JUMPDEST SWAP2 POP POP SWAP3 POP SWAP3 SWAP1 POP JUMP JUMPDEST PUSH2 0xD8F DUP2 PUSH2 0x1027 JUMP JUMPDEST DUP3 MSTORE POP POP JUMP JUMPDEST PUSH2 0xD9E DUP2 PUSH2 0x1039 JUMP JUMPDEST DUP3 MSTORE POP POP JUMP JUMPDEST PUSH1 0x0 PUSH2 0xDAF DUP3 PUSH2 0x100B JUMP JUMPDEST PUSH2 0xDB9 DUP2 DUP6 PUSH2 0x1016 JUMP JUMPDEST SWAP4 POP PUSH2 0xDC9 DUP2 DUP6 PUSH1 0x20 DUP7 ADD PUSH2 0x107E JUMP JUMPDEST PUSH2 0xDD2 DUP2 PUSH2 0x11EA JUMP JUMPDEST DUP5 ADD SWAP2 POP POP SWAP3 SWAP2 POP POP JUMP JUMPDEST PUSH1 0x0 DUP2 SLOAD PUSH2 0xDEA DUP2 PUSH2 0x10B1 JUMP JUMPDEST PUSH2 0xDF4 DUP2 DUP7 PUSH2 0x1016 JUMP JUMPDEST SWAP5 POP PUSH1 0x1 DUP3 AND PUSH1 0x0 DUP2 EQ PUSH2 0xE0F JUMPI PUSH1 0x1 DUP2 EQ PUSH2 0xE21 JUMPI PUSH2 0xE54 JUMP JUMPDEST PUSH1 0xFF NOT DUP4 AND DUP7 MSTORE PUSH1 0x20 DUP7 ADD SWAP4 POP PUSH2 0xE54 JUMP JUMPDEST PUSH2 0xE2A DUP6 PUSH2 0xFF6 JUMP JUMPDEST PUSH1 0x0 JUMPDEST DUP4 DUP2 LT ISZERO PUSH2 0xE4C JUMPI DUP2 SLOAD DUP2 DUP10 ADD MSTORE PUSH1 0x1 DUP3 ADD SWAP2 POP PUSH1 0x20 DUP2 ADD SWAP1 POP PUSH2 0xE2D JUMP JUMPDEST DUP1 DUP9 ADD SWAP6 POP POP POP JUMPDEST POP POP POP SWAP3 SWAP2 POP POP JUMP JUMPDEST PUSH2 0xE66 DUP2 PUSH2 0x1065 JUMP JUMPDEST DUP3 MSTORE POP POP JUMP JUMPDEST PUSH1 0x0 PUSH1 0x20 DUP3 ADD SWAP1 POP PUSH2 0xE81 PUSH1 0x0 DUP4 ADD DUP5 PUSH2 0xD86 JUMP JUMPDEST SWAP3 SWAP2 POP POP JUMP JUMPDEST PUSH1 0x0 PUSH1 0x60 DUP3 ADD SWAP1 POP PUSH2 0xE9C PUSH1 0x0 DUP4 ADD DUP7 PUSH2 0xD86 JUMP JUMPDEST PUSH2 0xEA9 PUSH1 0x20 DUP4 ADD DUP6 PUSH2 0xD95 JUMP JUMPDEST PUSH2 0xEB6 PUSH1 0x40 DUP4 ADD DUP5 PUSH2 0xD95 JUMP JUMPDEST SWAP5 SWAP4 POP POP POP POP JUMP JUMPDEST PUSH1 0x0 PUSH1 0x20 DUP3 ADD SWAP1 POP PUSH2 0xED3 PUSH1 0x0 DUP4 ADD DUP5 PUSH2 0xD95 JUMP JUMPDEST SWAP3 SWAP2 POP POP JUMP JUMPDEST PUSH1 0x0 PUSH1 0x60 DUP3 ADD SWAP1 POP DUP2 DUP2 SUB PUSH1 0x0 DUP4 ADD MSTORE PUSH2 0xEF3 DUP2 DUP7 PUSH2 0xDA4 JUMP JUMPDEST SWAP1 POP PUSH2 0xF02 PUSH1 0x20 DUP4 ADD DUP6 PUSH2 0xD86 JUMP JUMPDEST PUSH2 0xF0F PUSH1 0x40 DUP4 ADD DUP5 PUSH2 0xE5D JUMP JUMPDEST SWAP5 SWAP4 POP POP POP POP JUMP JUMPDEST PUSH1 0x0 PUSH1 0x60 DUP3 ADD SWAP1 POP DUP2 DUP2 SUB PUSH1 0x0 DUP4 ADD MSTORE PUSH2 0xF31 DUP2 DUP7 PUSH2 0xDA4 JUMP JUMPDEST SWAP1 POP PUSH2 0xF40 PUSH1 0x20 DUP4 ADD DUP6 PUSH2 0xE5D JUMP JUMPDEST PUSH2 0xF4D PUSH1 0x40 DUP4 ADD DUP5 PUSH2 0xD86 JUMP JUMPDEST SWAP5 SWAP4 POP POP POP POP JUMP JUMPDEST PUSH1 0x0 PUSH1 0x40 DUP3 ADD SWAP1 POP DUP2 DUP2 SUB PUSH1 0x0 DUP4 ADD MSTORE PUSH2 0xF6F DUP2 DUP6 PUSH2 0xDDD JUMP JUMPDEST SWAP1 POP PUSH2 0xF7E PUSH1 0x20 DUP4 ADD DUP5 PUSH2 0xD86 JUMP JUMPDEST SWAP4 SWAP3 POP POP POP JUMP JUMPDEST PUSH1 0x0 PUSH1 0x20 DUP3 ADD SWAP1 POP PUSH2 0xF9A PUSH1 0x0 DUP4 ADD DUP5 PUSH2 0xE5D JUMP JUMPDEST SWAP3 SWAP2 POP POP JUMP JUMPDEST PUSH1 0x0 PUSH2 0xFAA PUSH2 0xFBB JUMP JUMPDEST SWAP1 POP PUSH2 0xFB6 DUP3 DUP3 PUSH2 0x10E3 JUMP JUMPDEST SWAP2 SWAP1 POP JUMP JUMPDEST PUSH1 0x0 PUSH1 0x40 MLOAD SWAP1 POP SWAP1 JUMP JUMPDEST PUSH1 0x0 PUSH8 0xFFFFFFFFFFFFFFFF DUP3 GT ISZERO PUSH2 0xFE0 JUMPI PUSH2 0xFDF PUSH2 0x11BB JUMP JUMPDEST JUMPDEST PUSH2 0xFE9 DUP3 PUSH2 0x11EA JUMP JUMPDEST SWAP1 POP PUSH1 0x20 DUP2 ADD SWAP1 POP SWAP2 SWAP1 POP JUMP JUMPDEST PUSH1 0x0 DUP2 SWAP1 POP DUP2 PUSH1 0x0 MSTORE PUSH1 0x20 PUSH1 0x0 KECCAK256 SWAP1 POP SWAP2 SWAP1 POP JUMP JUMPDEST PUSH1 0x0 DUP2 MLOAD SWAP1 POP SWAP2 SWAP1 POP JUMP JUMPDEST PUSH1 0x0 DUP3 DUP3 MSTORE PUSH1 0x20 DUP3 ADD SWAP1 POP SWAP3 SWAP2 POP POP JUMP JUMPDEST PUSH1 0x0 PUSH2 0x1032 DUP3 PUSH2 0x1045 JUMP JUMPDEST SWAP1 POP SWAP2 SWAP1 POP JUMP JUMPDEST PUSH1 0x0 DUP2 ISZERO ISZERO SWAP1 POP SWAP2 SWAP1 POP JUMP JUMPDEST PUSH1 0x0 PUSH20 0xFFFFFFFFFFFFFFFFFFFFFFFFFFFFFFFFFFFFFFFF DUP3 AND SWAP1 POP SWAP2 SWAP1 POP JUMP JUMPDEST PUSH1 0x0 DUP2 SWAP1 POP SWAP2 SWAP1 POP JUMP JUMPDEST DUP3 DUP2 DUP4 CALLDATACOPY PUSH1 0x0 DUP4 DUP4 ADD MSTORE POP POP POP JUMP JUMPDEST PUSH1 0x0 JUMPDEST DUP4 DUP2 LT ISZERO PUSH2 0x109C JUMPI DUP1 DUP3 ADD MLOAD DUP2 DUP5 ADD MSTORE PUSH1 0x20 DUP2 ADD SWAP1 POP PUSH2 0x1081 JUMP JUMPDEST DUP4 DUP2 GT ISZERO PUSH2 0x10AB JUMPI PUSH1 0x0 DUP5 DUP5 ADD MSTORE JUMPDEST POP POP POP POP JUMP JUMPDEST PUSH1 0x0 PUSH1 0x2 DUP3 DIV SWAP1 POP PUSH1 0x1 DUP3 AND DUP1 PUSH2 0x10C9 JUMPI PUSH1 0x7F DUP3 AND SWAP2 POP JUMPDEST PUSH1 0x20 DUP3 LT DUP2 EQ ISZERO PUSH2 0x10DD JUMPI PUSH2 0x10DC PUSH2 0x118C JUMP JUMPDEST JUMPDEST POP SWAP2 SWAP1 POP JUMP JUMPDEST PUSH2 0x10EC DUP3 PUSH2 0x11EA JUMP JUMPDEST DUP2 ADD DUP2 DUP2 LT PUSH8 0xFFFFFFFFFFFFFFFF DUP3 GT OR ISZERO PUSH2 0x110B JUMPI PUSH2 0x110A PUSH2 0x11BB JUMP JUMPDEST JUMPDEST DUP1 PUSH1 0x40 MSTORE POP POP POP JUMP JUMPDEST PUSH1 0x0 PUSH2 0x111F DUP3 PUSH2 0x1065 JUMP JUMPDEST SWAP2 POP PUSH32 0xFFFFFFFFFFFFFFFFFFFFFFFFFFFFFFFFFFFFFFFFFFFFFFFFFFFFFFFFFFFFFFFF DUP3 EQ ISZERO PUSH2 0x1152 JUMPI PUSH2 0x1151 PUSH2 0x115D JUMP JUMPDEST JUMPDEST PUSH1 0x1 DUP3 ADD SWAP1 POP SWAP2 SWAP1 POP JUMP JUMPDEST PUSH32 0x4E487B7100000000000000000000000000000000000000000000000000000000 PUSH1 0x0 MSTORE PUSH1 0x11 PUSH1 0x4 MSTORE PUSH1 0x24 PUSH1 0x0 REVERT JUMPDEST PUSH32 0x4E487B7100000000000000000000000000000000000000000000000000000000 PUSH1 0x0 MSTORE PUSH1 0x22 PUSH1 0x4 MSTORE PUSH1 0x24 PUSH1 0x0 REVERT JUMPDEST PUSH32 0x4E487B7100000000000000000000000000000000000000000000000000000000 PUSH1 0x0 MSTORE PUSH1 0x41 PUSH1 0x4 MSTORE PUSH1 0x24 PUSH1 0x0 REVERT JUMPDEST PUSH1 0x0 PUSH1 0x1F NOT PUSH1 0x1F DUP4 ADD AND SWAP1 POP SWAP2 SWAP1 POP JUMP JUMPDEST PUSH2 0x1204 DUP2 PUSH2 0x1027 JUMP JUMPDEST DUP2 EQ PUSH2 0x120F JUMPI PUSH1 0x0 DUP1 REVERT JUMPDEST POP JUMP JUMPDEST PUSH2 0x121B DUP2 PUSH2 0x1065 JUMP JUMPDEST DUP2 EQ PUSH2 0x1226 JUMPI PUSH1 0x0 DUP1 REVERT JUMPDEST POP JUMP INVALID LOG2 PUSH5 0x6970667358 0x22 SLT KECCAK256 0xA9 MSTORE SWAP10 DELEGATECALL JUMPDEST 0xE9 DUP5 DELEGATECALL 0xD7 CREATE2 0x29 0x4D SWAP11 PUSH16 0x99C948E7812C8DF962005C40D452DE45 COINBASE 0xD0 PUSH5 0x736F6C6343 STOP ADDMOD DIV STOP CALLER LOG2 PUSH5 0x6970667358 0x22 SLT KECCAK256 0xDB XOR SWAP5 PUSH16 0x3D68D5C5C6D3A30E14D10A27DAB0E978 0xA8 PUSH8 0xF968DE7E8760C371 SWAP2 SMOD PUSH5 0x736F6C6343 STOP ADDMOD DIV STOP CALLER "
    },
    "gasEstimates": {
      "creation": {
        "codeDepositCost": "1281600",
        "executionCost": "1335",
        "totalCost": "1282935"
      },
      "external": {
        "createContract(string)": "infinite",
        "deployedContracts(uint256)": "2356",
        "getDeployedContracts()": "infinite"
      }
    },
    "methodIdentifiers": {
      "createContract(string)": "18f80bb9",
      "deployedContracts(uint256)": "9ad1ee10",
      "getDeployedContracts()": "aa9a068f"
    }
  },
  "storageLayout": {
    "storage": [
      {
        "astId": 4,
        "contract": "HealthHub.sol:Factory",
        "label": "deployedContracts",
        "offset": 0,
        "slot": "0",
        "type": "t_array(t_address)dyn_storage"
      },
      {
        "astId": 6,
        "contract": "HealthHub.sol:Factory",
        "label": "desc",
        "offset": 0,
        "slot": "1",
        "type": "t_string_storage"
      }
    ],
    "types": {
      "t_address": {
        "encoding": "inplace",
        "label": "address",
        "numberOfBytes": "20"
      },
      "t_array(t_address)dyn_storage": {
        "base": "t_address",
        "encoding": "dynamic_array",
        "label": "address[]",
        "numberOfBytes": "32"
      },
      "t_string_storage": {
        "encoding": "bytes",
        "label": "string",
        "numberOfBytes": "32"
      }
    }
  },
  "userdoc": {
    "kind": "user",
    "methods": {},
    "version": 1
  }
}