{
  "abi": [
    {
      "anonymous": false,
      "inputs": [
        {
          "indexed": false,
          "internalType": "string",
          "name": "description",
          "type": "string"
        },
        {
          "indexed": false,
          "internalType": "address",
          "name": "manager",
          "type": "address"
        }
      ],
      "name": "DATA",
      "type": "event"
    },
    {
      "inputs": [
        {
          "internalType": "string",
          "name": "description",
          "type": "string"
        }
      ],
      "name": "createData",
      "outputs": [],
      "stateMutability": "nonpayable",
      "type": "function"
    },
    {
      "inputs": [
        {
          "internalType": "uint256",
          "name": "",
          "type": "uint256"
        }
      ],
      "name": "data",
      "outputs": [
        {
          "internalType": "string",
          "name": "description",
          "type": "string"
        },
        {
          "internalType": "uint256",
          "name": "requestsMadeCount",
          "type": "uint256"
        },
        {
          "internalType": "address",
          "name": "manager",
          "type": "address"
        }
      ],
      "stateMutability": "view",
      "type": "function"
    },
    {
      "inputs": [
        {
          "internalType": "uint256",
          "name": "index",
          "type": "uint256"
        }
      ],
      "name": "dispayData",
      "outputs": [],
      "stateMutability": "nonpayable",
      "type": "function"
    },
    {
      "inputs": [
        {
          "internalType": "uint256",
          "name": "index",
          "type": "uint256"
        },
        {
          "internalType": "address",
          "name": "req",
          "type": "address"
        }
      ],
      "name": "finalizeRequest",
      "outputs": [],
      "stateMutability": "nonpayable",
      "type": "function"
    },
    {
      "inputs": [
        {
          "internalType": "uint256",
          "name": "index",
          "type": "uint256"
        }
      ],
      "name": "getRequestsCount",
      "outputs": [
        {
          "internalType": "uint256",
          "name": "",
          "type": "uint256"
        }
      ],
      "stateMutability": "view",
      "type": "function"
    },
    {
      "inputs": [
        {
          "internalType": "uint256",
          "name": "index",
          "type": "uint256"
        }
      ],
      "name": "getSummary",
      "outputs": [
        {
          "internalType": "string",
          "name": "",
          "type": "string"
        },
        {
          "internalType": "address",
          "name": "",
          "type": "address"
        },
        {
          "internalType": "uint256",
          "name": "",
          "type": "uint256"
        }
      ],
      "stateMutability": "view",
      "type": "function"
    },
    {
      "inputs": [
        {
          "internalType": "string",
          "name": "desc",
          "type": "string"
        },
        {
          "internalType": "address",
          "name": "add",
          "type": "address"
        },
        {
          "internalType": "uint256",
          "name": "index",
          "type": "uint256"
        }
      ],
      "name": "makeRequest",
      "outputs": [],
      "stateMutability": "nonpayable",
      "type": "function"
    },
    {
      "inputs": [
        {
          "internalType": "address",
          "name": "",
          "type": "address"
        }
      ],
      "name": "requesters",
      "outputs": [
        {
          "internalType": "bool",
          "name": "",
          "type": "bool"
        }
      ],
      "stateMutability": "view",
      "type": "function"
    },
    {
      "inputs": [
        {
          "internalType": "uint256",
          "name": "",
          "type": "uint256"
        }
      ],
      "name": "requestersAdd",
      "outputs": [
        {
          "internalType": "address",
          "name": "",
          "type": "address"
        }
      ],
      "stateMutability": "view",
      "type": "function"
    },
    {
      "inputs": [],
      "name": "requestersCount",
      "outputs": [
        {
          "internalType": "uint256",
          "name": "",
          "type": "uint256"
        }
      ],
      "stateMutability": "view",
      "type": "function"
    },
    {
      "inputs": [
        {
          "internalType": "uint256",
          "name": "id",
          "type": "uint256"
        },
        {
          "internalType": "uint256",
          "name": "index",
          "type": "uint256"
        }
      ],
      "name": "requests",
      "outputs": [
        {
          "internalType": "string",
          "name": "",
          "type": "string"
        },
        {
          "internalType": "address",
          "name": "",
          "type": "address"
        },
        {
          "internalType": "bool",
          "name": "",
          "type": "bool"
        }
      ],
      "stateMutability": "view",
      "type": "function"
    }
  ],
  "devdoc": {
    "kind": "dev",
    "methods": {},
    "version": 1
  },
  "evm": {
    "assembly": "    /* \"HealthHub.sol\":472:3013  contract HealthHub {\r... */\n  mstore(0x40, 0x80)\n  callvalue\n  dup1\n  iszero\n  tag_1\n  jumpi\n  0x00\n  dup1\n  revert\ntag_1:\n  pop\n  dataSize(sub_0)\n  dup1\n  dataOffset(sub_0)\n  0x00\n  codecopy\n  0x00\n  return\nstop\n\nsub_0: assembly {\n        /* \"HealthHub.sol\":472:3013  contract HealthHub {\r... */\n      mstore(0x40, 0x80)\n      callvalue\n      dup1\n      iszero\n      tag_1\n      jumpi\n      0x00\n      dup1\n      revert\n    tag_1:\n      pop\n      jumpi(tag_2, lt(calldatasize, 0x04))\n      shr(0xe0, calldataload(0x00))\n      dup1\n      0xaee14460\n      gt\n      tag_14\n      jumpi\n      dup1\n      0xaee14460\n      eq\n      tag_8\n      jumpi\n      dup1\n      0xb5fdcfa3\n      eq\n      tag_9\n      jumpi\n      dup1\n      0xd6f8307f\n      eq\n      tag_10\n      jumpi\n      dup1\n      0xde58f1b6\n      eq\n      tag_11\n      jumpi\n      dup1\n      0xeecd6bc2\n      eq\n      tag_12\n      jumpi\n      dup1\n      0xf0ba8440\n      eq\n      tag_13\n      jumpi\n      jump(tag_2)\n    tag_14:\n      dup1\n      0x19a32989\n      eq\n      tag_3\n      jumpi\n      dup1\n      0x1da000ec\n      eq\n      tag_4\n      jumpi\n      dup1\n      0x2eeca2cc\n      eq\n      tag_5\n      jumpi\n      dup1\n      0x9089add8\n      eq\n      tag_6\n      jumpi\n      dup1\n      0x9a5e5b77\n      eq\n      tag_7\n      jumpi\n    tag_2:\n      0x00\n      dup1\n      revert\n        /* \"HealthHub.sol\":2384:2595  function dispayData(uint index) public {\r... */\n    tag_3:\n      tag_15\n      0x04\n      dup1\n      calldatasize\n      sub\n      dup2\n      add\n      swap1\n      tag_16\n      swap2\n      swap1\n      tag_17\n      jump\t// in\n    tag_16:\n      tag_18\n      jump\t// in\n    tag_15:\n      stop\n        /* \"HealthHub.sol\":1922:2088  function finalizeRequest(uint index, address req) public {\r... */\n    tag_4:\n      tag_19\n      0x04\n      dup1\n      calldatasize\n      sub\n      dup2\n      add\n      swap1\n      tag_20\n      swap2\n      swap1\n      tag_21\n      jump\t// in\n    tag_20:\n      tag_22\n      jump\t// in\n    tag_19:\n      stop\n        /* \"HealthHub.sol\":498:528  address[] public requestersAdd */\n    tag_5:\n      tag_23\n      0x04\n      dup1\n      calldatasize\n      sub\n      dup2\n      add\n      swap1\n      tag_24\n      swap2\n      swap1\n      tag_17\n      jump\t// in\n    tag_24:\n      tag_25\n      jump\t// in\n    tag_23:\n      mload(0x40)\n      tag_26\n      swap2\n      swap1\n      tag_27\n      jump\t// in\n    tag_26:\n      mload(0x40)\n      dup1\n      swap2\n      sub\n      swap1\n      return\n        /* \"HealthHub.sol\":2096:2376  function requests(uint id, uint index) public view returns(string memory, address, bool) {\r... */\n    tag_6:\n      tag_28\n      0x04\n      dup1\n      calldatasize\n      sub\n      dup2\n      add\n      swap1\n      tag_29\n      swap2\n      swap1\n      tag_30\n      jump\t// in\n    tag_29:\n      tag_31\n      jump\t// in\n    tag_28:\n      mload(0x40)\n      tag_32\n      swap4\n      swap3\n      swap2\n      swap1\n      tag_33\n      jump\t// in\n    tag_32:\n      mload(0x40)\n      dup1\n      swap2\n      sub\n      swap1\n      return\n        /* \"HealthHub.sol\":2890:3010  function getRequestsCount(uint index) public view returns (uint) {\r... */\n    tag_7:\n      tag_34\n      0x04\n      dup1\n      calldatasize\n      sub\n      dup2\n      add\n      swap1\n      tag_35\n      swap2\n      swap1\n      tag_17\n      jump\t// in\n    tag_35:\n      tag_36\n      jump\t// in\n    tag_34:\n      mload(0x40)\n      tag_37\n      swap2\n      swap1\n      tag_38\n      jump\t// in\n    tag_37:\n      mload(0x40)\n      dup1\n      swap2\n      sub\n      swap1\n      return\n        /* \"HealthHub.sol\":2603:2878  function getSummary (uint index) public view returns(string memory, address, uint) {\r... */\n    tag_8:\n      tag_39\n      0x04\n      dup1\n      calldatasize\n      sub\n      dup2\n      add\n      swap1\n      tag_40\n      swap2\n      swap1\n      tag_17\n      jump\t// in\n    tag_40:\n      tag_41\n      jump\t// in\n    tag_39:\n      mload(0x40)\n      tag_42\n      swap4\n      swap3\n      swap2\n      swap1\n      tag_43\n      jump\t// in\n    tag_42:\n      mload(0x40)\n      dup1\n      swap2\n      sub\n      swap1\n      return\n        /* \"HealthHub.sol\":1356:1910  function makeRequest(string memory desc ,address add, uint index) public {\r... */\n    tag_9:\n      tag_44\n      0x04\n      dup1\n      calldatasize\n      sub\n      dup2\n      add\n      swap1\n      tag_45\n      swap2\n      swap1\n      tag_46\n      jump\t// in\n    tag_45:\n      tag_47\n      jump\t// in\n    tag_44:\n      stop\n        /* \"HealthHub.sol\":535:577  mapping(address => bool) public requesters */\n    tag_10:\n      tag_48\n      0x04\n      dup1\n      calldatasize\n      sub\n      dup2\n      add\n      swap1\n      tag_49\n      swap2\n      swap1\n      tag_50\n      jump\t// in\n    tag_49:\n      tag_51\n      jump\t// in\n    tag_48:\n      mload(0x40)\n      tag_52\n      swap2\n      swap1\n      tag_53\n      jump\t// in\n    tag_52:\n      mload(0x40)\n      dup1\n      swap2\n      sub\n      swap1\n      return\n        /* \"HealthHub.sol\":584:611  uint public requestersCount */\n    tag_11:\n      tag_54\n      tag_55\n      jump\t// in\n    tag_54:\n      mload(0x40)\n      tag_56\n      swap2\n      swap1\n      tag_38\n      jump\t// in\n    tag_56:\n      mload(0x40)\n      dup1\n      swap2\n      sub\n      swap1\n      return\n        /* \"HealthHub.sol\":1060:1344  function createData (string memory description) public {\r... */\n    tag_12:\n      tag_57\n      0x04\n      dup1\n      calldatasize\n      sub\n      dup2\n      add\n      swap1\n      tag_58\n      swap2\n      swap1\n      tag_59\n      jump\t// in\n    tag_58:\n      tag_60\n      jump\t// in\n    tag_57:\n      stop\n        /* \"HealthHub.sol\":1013:1047  mapping (uint => Data) public data */\n    tag_13:\n      tag_61\n      0x04\n      dup1\n      calldatasize\n      sub\n      dup2\n      add\n      swap1\n      tag_62\n      swap2\n      swap1\n      tag_17\n      jump\t// in\n    tag_62:\n      tag_63\n      jump\t// in\n    tag_61:\n      mload(0x40)\n      tag_64\n      swap4\n      swap3\n      swap2\n      swap1\n      tag_65\n      jump\t// in\n    tag_64:\n      mload(0x40)\n      dup1\n      swap2\n      sub\n      swap1\n      return\n        /* \"HealthHub.sol\":2384:2595  function dispayData(uint index) public {\r... */\n    tag_18:\n        /* \"HealthHub.sol\":2466:2476  msg.sender */\n      caller\n        /* \"HealthHub.sol\":2443:2476  data[index].manager == msg.sender */\n      0xffffffffffffffffffffffffffffffffffffffff\n      and\n        /* \"HealthHub.sol\":2443:2447  data */\n      0x04\n        /* \"HealthHub.sol\":2443:2454  data[index] */\n      0x00\n        /* \"HealthHub.sol\":2448:2453  index */\n      dup4\n        /* \"HealthHub.sol\":2443:2454  data[index] */\n      dup2\n      mstore\n      0x20\n      add\n      swap1\n      dup2\n      mstore\n      0x20\n      add\n      0x00\n      keccak256\n        /* \"HealthHub.sol\":2443:2462  data[index].manager */\n      0x05\n      add\n      0x00\n      swap1\n      sload\n      swap1\n      0x0100\n      exp\n      swap1\n      div\n      0xffffffffffffffffffffffffffffffffffffffff\n      and\n        /* \"HealthHub.sol\":2443:2476  data[index].manager == msg.sender */\n      0xffffffffffffffffffffffffffffffffffffffff\n      and\n      eq\n        /* \"HealthHub.sol\":2442:2520  (data[index].manager == msg.sender) || (data[index].finalApproved[msg.sender]) */\n      dup1\n      tag_67\n      jumpi\n      pop\n        /* \"HealthHub.sol\":2482:2486  data */\n      0x04\n        /* \"HealthHub.sol\":2482:2493  data[index] */\n      0x00\n        /* \"HealthHub.sol\":2487:2492  index */\n      dup3\n        /* \"HealthHub.sol\":2482:2493  data[index] */\n      dup2\n      mstore\n      0x20\n      add\n      swap1\n      dup2\n      mstore\n      0x20\n      add\n      0x00\n      keccak256\n        /* \"HealthHub.sol\":2482:2507  data[index].finalApproved */\n      0x03\n      add\n        /* \"HealthHub.sol\":2482:2519  data[index].finalApproved[msg.sender] */\n      0x00\n        /* \"HealthHub.sol\":2508:2518  msg.sender */\n      caller\n        /* \"HealthHub.sol\":2482:2519  data[index].finalApproved[msg.sender] */\n      0xffffffffffffffffffffffffffffffffffffffff\n      and\n      0xffffffffffffffffffffffffffffffffffffffff\n      and\n      dup2\n      mstore\n      0x20\n      add\n      swap1\n      dup2\n      mstore\n      0x20\n      add\n      0x00\n      keccak256\n      0x00\n      swap1\n      sload\n      swap1\n      0x0100\n      exp\n      swap1\n      div\n      0xff\n      and\n        /* \"HealthHub.sol\":2442:2520  (data[index].manager == msg.sender) || (data[index].finalApproved[msg.sender]) */\n    tag_67:\n        /* \"HealthHub.sol\":2434:2521  require((data[index].manager == msg.sender) || (data[index].finalApproved[msg.sender])) */\n      tag_68\n      jumpi\n      0x00\n      dup1\n      revert\n    tag_68:\n        /* \"HealthHub.sol\":2537:2587  DATA(data[index].description, data[index].manager) */\n      0x5dd8f520b99936208713d8c2be2e573016bbd1c7ebc3bba173d637bbf9f5e880\n        /* \"HealthHub.sol\":2542:2546  data */\n      0x04\n        /* \"HealthHub.sol\":2542:2553  data[index] */\n      0x00\n        /* \"HealthHub.sol\":2547:2552  index */\n      dup4\n        /* \"HealthHub.sol\":2542:2553  data[index] */\n      dup2\n      mstore\n      0x20\n      add\n      swap1\n      dup2\n      mstore\n      0x20\n      add\n      0x00\n      keccak256\n        /* \"HealthHub.sol\":2542:2565  data[index].description */\n      0x00\n      add\n        /* \"HealthHub.sol\":2567:2571  data */\n      0x04\n        /* \"HealthHub.sol\":2567:2578  data[index] */\n      0x00\n        /* \"HealthHub.sol\":2572:2577  index */\n      dup5\n        /* \"HealthHub.sol\":2567:2578  data[index] */\n      dup2\n      mstore\n      0x20\n      add\n      swap1\n      dup2\n      mstore\n      0x20\n      add\n      0x00\n      keccak256\n        /* \"HealthHub.sol\":2567:2586  data[index].manager */\n      0x05\n      add\n      0x00\n      swap1\n      sload\n      swap1\n      0x0100\n      exp\n      swap1\n      div\n      0xffffffffffffffffffffffffffffffffffffffff\n      and\n        /* \"HealthHub.sol\":2537:2587  DATA(data[index].description, data[index].manager) */\n      mload(0x40)\n      tag_69\n      swap3\n      swap2\n      swap1\n      tag_70\n      jump\t// in\n    tag_69:\n      mload(0x40)\n      dup1\n      swap2\n      sub\n      swap1\n      log1\n        /* \"HealthHub.sol\":2384:2595  function dispayData(uint index) public {\r... */\n      pop\n      jump\t// out\n        /* \"HealthHub.sol\":1922:2088  function finalizeRequest(uint index, address req) public {\r... */\n    tag_22:\n        /* \"HealthHub.sol\":2021:2031  msg.sender */\n      caller\n        /* \"HealthHub.sol\":1998:2031  data[index].manager == msg.sender */\n      0xffffffffffffffffffffffffffffffffffffffff\n      and\n        /* \"HealthHub.sol\":1998:2002  data */\n      0x04\n        /* \"HealthHub.sol\":1998:2009  data[index] */\n      0x00\n        /* \"HealthHub.sol\":2003:2008  index */\n      dup5\n        /* \"HealthHub.sol\":1998:2009  data[index] */\n      dup2\n      mstore\n      0x20\n      add\n      swap1\n      dup2\n      mstore\n      0x20\n      add\n      0x00\n      keccak256\n        /* \"HealthHub.sol\":1998:2017  data[index].manager */\n      0x05\n      add\n      0x00\n      swap1\n      sload\n      swap1\n      0x0100\n      exp\n      swap1\n      div\n      0xffffffffffffffffffffffffffffffffffffffff\n      and\n        /* \"HealthHub.sol\":1998:2031  data[index].manager == msg.sender */\n      0xffffffffffffffffffffffffffffffffffffffff\n      and\n      eq\n        /* \"HealthHub.sol\":1990:2032  require(data[index].manager == msg.sender) */\n      tag_72\n      jumpi\n      0x00\n      dup1\n      revert\n    tag_72:\n        /* \"HealthHub.sol\":2076:2080  true */\n      0x01\n        /* \"HealthHub.sol\":2043:2047  data */\n      0x04\n        /* \"HealthHub.sol\":2043:2054  data[index] */\n      0x00\n        /* \"HealthHub.sol\":2048:2053  index */\n      dup5\n        /* \"HealthHub.sol\":2043:2054  data[index] */\n      dup2\n      mstore\n      0x20\n      add\n      swap1\n      dup2\n      mstore\n      0x20\n      add\n      0x00\n      keccak256\n        /* \"HealthHub.sol\":2043:2068  data[index].finalApproved */\n      0x03\n      add\n        /* \"HealthHub.sol\":2043:2073  data[index].finalApproved[req] */\n      0x00\n        /* \"HealthHub.sol\":2069:2072  req */\n      dup4\n        /* \"HealthHub.sol\":2043:2073  data[index].finalApproved[req] */\n      0xffffffffffffffffffffffffffffffffffffffff\n      and\n      0xffffffffffffffffffffffffffffffffffffffff\n      and\n      dup2\n      mstore\n      0x20\n      add\n      swap1\n      dup2\n      mstore\n      0x20\n      add\n      0x00\n      keccak256\n      0x00\n        /* \"HealthHub.sol\":2043:2080  data[index].finalApproved[req] = true */\n      0x0100\n      exp\n      dup2\n      sload\n      dup2\n      0xff\n      mul\n      not\n      and\n      swap1\n      dup4\n      iszero\n      iszero\n      mul\n      or\n      swap1\n      sstore\n      pop\n        /* \"HealthHub.sol\":1922:2088  function finalizeRequest(uint index, address req) public {\r... */\n      pop\n      pop\n      jump\t// out\n        /* \"HealthHub.sol\":498:528  address[] public requestersAdd */\n    tag_25:\n      0x00\n      dup2\n      dup2\n      sload\n      dup2\n      lt\n      tag_73\n      jumpi\n      0x00\n      dup1\n      revert\n    tag_73:\n      swap1\n      0x00\n      mstore\n      keccak256(0x00, 0x20)\n      add\n      0x00\n      swap2\n      pop\n      sload\n      swap1\n      0x0100\n      exp\n      swap1\n      div\n      0xffffffffffffffffffffffffffffffffffffffff\n      and\n      dup2\n      jump\t// out\n        /* \"HealthHub.sol\":2096:2376  function requests(uint id, uint index) public view returns(string memory, address, bool) {\r... */\n    tag_31:\n        /* \"HealthHub.sol\":2155:2168  string memory */\n      0x60\n        /* \"HealthHub.sol\":2170:2177  address */\n      0x00\n        /* \"HealthHub.sol\":2179:2183  bool */\n      dup1\n        /* \"HealthHub.sol\":2218:2222  data */\n      0x04\n        /* \"HealthHub.sol\":2218:2226  data[id] */\n      0x00\n        /* \"HealthHub.sol\":2223:2225  id */\n      dup7\n        /* \"HealthHub.sol\":2218:2226  data[id] */\n      dup2\n      mstore\n      0x20\n      add\n      swap1\n      dup2\n      mstore\n      0x20\n      add\n      0x00\n      keccak256\n        /* \"HealthHub.sol\":2218:2241  data[id].requestersDesc */\n      0x02\n      add\n        /* \"HealthHub.sol\":2218:2263  data[id].requestersDesc[requestersAdd[index]] */\n      0x00\n        /* \"HealthHub.sol\":2242:2255  requestersAdd */\n      dup1\n        /* \"HealthHub.sol\":2256:2261  index */\n      dup7\n        /* \"HealthHub.sol\":2242:2262  requestersAdd[index] */\n      dup2\n      sload\n      dup2\n      lt\n      tag_76\n      jumpi\n      mstore(0x00, 0x4e487b7100000000000000000000000000000000000000000000000000000000)\n      mstore(0x04, 0x32)\n      revert(0x00, 0x24)\n    tag_76:\n      swap1\n      0x00\n      mstore\n      keccak256(0x00, 0x20)\n      add\n      0x00\n      swap1\n      sload\n      swap1\n      0x0100\n      exp\n      swap1\n      div\n      0xffffffffffffffffffffffffffffffffffffffff\n      and\n        /* \"HealthHub.sol\":2218:2263  data[id].requestersDesc[requestersAdd[index]] */\n      0xffffffffffffffffffffffffffffffffffffffff\n      and\n      0xffffffffffffffffffffffffffffffffffffffff\n      and\n      dup2\n      mstore\n      0x20\n      add\n      swap1\n      dup2\n      mstore\n      0x20\n      add\n      0x00\n      keccak256\n        /* \"HealthHub.sol\":2278:2291  requestersAdd */\n      0x00\n        /* \"HealthHub.sol\":2292:2297  index */\n      dup6\n        /* \"HealthHub.sol\":2278:2298  requestersAdd[index] */\n      dup2\n      sload\n      dup2\n      lt\n      tag_78\n      jumpi\n      mstore(0x00, 0x4e487b7100000000000000000000000000000000000000000000000000000000)\n      mstore(0x04, 0x32)\n      revert(0x00, 0x24)\n    tag_78:\n      swap1\n      0x00\n      mstore\n      keccak256(0x00, 0x20)\n      add\n      0x00\n      swap1\n      sload\n      swap1\n      0x0100\n      exp\n      swap1\n      div\n      0xffffffffffffffffffffffffffffffffffffffff\n      and\n        /* \"HealthHub.sol\":2313:2317  data */\n      0x04\n        /* \"HealthHub.sol\":2313:2321  data[id] */\n      0x00\n        /* \"HealthHub.sol\":2318:2320  id */\n      dup9\n        /* \"HealthHub.sol\":2313:2321  data[id] */\n      dup2\n      mstore\n      0x20\n      add\n      swap1\n      dup2\n      mstore\n      0x20\n      add\n      0x00\n      keccak256\n        /* \"HealthHub.sol\":2313:2335  data[id].finalApproved */\n      0x03\n      add\n        /* \"HealthHub.sol\":2313:2357  data[id].finalApproved[requestersAdd[index]] */\n      0x00\n        /* \"HealthHub.sol\":2336:2349  requestersAdd */\n      dup1\n        /* \"HealthHub.sol\":2350:2355  index */\n      dup9\n        /* \"HealthHub.sol\":2336:2356  requestersAdd[index] */\n      dup2\n      sload\n      dup2\n      lt\n      tag_80\n      jumpi\n      mstore(0x00, 0x4e487b7100000000000000000000000000000000000000000000000000000000)\n      mstore(0x04, 0x32)\n      revert(0x00, 0x24)\n    tag_80:\n      swap1\n      0x00\n      mstore\n      keccak256(0x00, 0x20)\n      add\n      0x00\n      swap1\n      sload\n      swap1\n      0x0100\n      exp\n      swap1\n      div\n      0xffffffffffffffffffffffffffffffffffffffff\n      and\n        /* \"HealthHub.sol\":2313:2357  data[id].finalApproved[requestersAdd[index]] */\n      0xffffffffffffffffffffffffffffffffffffffff\n      and\n      0xffffffffffffffffffffffffffffffffffffffff\n      and\n      dup2\n      mstore\n      0x20\n      add\n      swap1\n      dup2\n      mstore\n      0x20\n      add\n      0x00\n      keccak256\n      0x00\n      swap1\n      sload\n      swap1\n      0x0100\n      exp\n      swap1\n      div\n      0xff\n      and\n        /* \"HealthHub.sol\":2196:2368  return (\r... */\n      dup3\n      dup1\n      sload\n      tag_82\n      swap1\n      tag_83\n      jump\t// in\n    tag_82:\n      dup1\n      0x1f\n      add\n      0x20\n      dup1\n      swap2\n      div\n      mul\n      0x20\n      add\n      mload(0x40)\n      swap1\n      dup2\n      add\n      0x40\n      mstore\n      dup1\n      swap3\n      swap2\n      swap1\n      dup2\n      dup2\n      mstore\n      0x20\n      add\n      dup3\n      dup1\n      sload\n      tag_84\n      swap1\n      tag_83\n      jump\t// in\n    tag_84:\n      dup1\n      iszero\n      tag_85\n      jumpi\n      dup1\n      0x1f\n      lt\n      tag_86\n      jumpi\n      0x0100\n      dup1\n      dup4\n      sload\n      div\n      mul\n      dup4\n      mstore\n      swap2\n      0x20\n      add\n      swap2\n      jump(tag_85)\n    tag_86:\n      dup3\n      add\n      swap2\n      swap1\n      0x00\n      mstore\n      keccak256(0x00, 0x20)\n      swap1\n    tag_87:\n      dup2\n      sload\n      dup2\n      mstore\n      swap1\n      0x01\n      add\n      swap1\n      0x20\n      add\n      dup1\n      dup4\n      gt\n      tag_87\n      jumpi\n      dup3\n      swap1\n      sub\n      0x1f\n      and\n      dup3\n      add\n      swap2\n    tag_85:\n      pop\n      pop\n      pop\n      pop\n      pop\n      swap3\n      pop\n      swap3\n      pop\n      swap3\n      pop\n      swap3\n      pop\n        /* \"HealthHub.sol\":2096:2376  function requests(uint id, uint index) public view returns(string memory, address, bool) {\r... */\n      swap3\n      pop\n      swap3\n      pop\n      swap3\n      jump\t// out\n        /* \"HealthHub.sol\":2890:3010  function getRequestsCount(uint index) public view returns (uint) {\r... */\n    tag_36:\n        /* \"HealthHub.sol\":2949:2953  uint */\n      0x00\n        /* \"HealthHub.sol\":2973:2977  data */\n      0x04\n        /* \"HealthHub.sol\":2973:2984  data[index] */\n      0x00\n        /* \"HealthHub.sol\":2978:2983  index */\n      dup4\n        /* \"HealthHub.sol\":2973:2984  data[index] */\n      dup2\n      mstore\n      0x20\n      add\n      swap1\n      dup2\n      mstore\n      0x20\n      add\n      0x00\n      keccak256\n        /* \"HealthHub.sol\":2973:3002  data[index].requestsMadeCount */\n      0x04\n      add\n      sload\n        /* \"HealthHub.sol\":2966:3002  return data[index].requestsMadeCount */\n      swap1\n      pop\n        /* \"HealthHub.sol\":2890:3010  function getRequestsCount(uint index) public view returns (uint) {\r... */\n      swap2\n      swap1\n      pop\n      jump\t// out\n        /* \"HealthHub.sol\":2603:2878  function getSummary (uint index) public view returns(string memory, address, uint) {\r... */\n    tag_41:\n        /* \"HealthHub.sol\":2656:2669  string memory */\n      0x60\n        /* \"HealthHub.sol\":2671:2678  address */\n      0x00\n        /* \"HealthHub.sol\":2680:2684  uint */\n      dup1\n        /* \"HealthHub.sol\":2697:2711  Data storage r */\n      0x00\n        /* \"HealthHub.sol\":2714:2718  data */\n      0x04\n        /* \"HealthHub.sol\":2714:2725  data[index] */\n      0x00\n        /* \"HealthHub.sol\":2719:2724  index */\n      dup7\n        /* \"HealthHub.sol\":2714:2725  data[index] */\n      dup2\n      mstore\n      0x20\n      add\n      swap1\n      dup2\n      mstore\n      0x20\n      add\n      0x00\n      keccak256\n        /* \"HealthHub.sol\":2697:2725  Data storage r = data[index] */\n      swap1\n      pop\n        /* \"HealthHub.sol\":2788:2789  r */\n      dup1\n        /* \"HealthHub.sol\":2788:2801  r.description */\n      0x00\n      add\n        /* \"HealthHub.sol\":2816:2817  r */\n      dup2\n        /* \"HealthHub.sol\":2816:2825  r.manager */\n      0x05\n      add\n      0x00\n      swap1\n      sload\n      swap1\n      0x0100\n      exp\n      swap1\n      div\n      0xffffffffffffffffffffffffffffffffffffffff\n      and\n        /* \"HealthHub.sol\":2840:2841  r */\n      dup3\n        /* \"HealthHub.sol\":2840:2859  r.requestsMadeCount */\n      0x04\n      add\n      sload\n        /* \"HealthHub.sol\":2736:2870  return (\r... */\n      dup3\n      dup1\n      sload\n      tag_90\n      swap1\n      tag_83\n      jump\t// in\n    tag_90:\n      dup1\n      0x1f\n      add\n      0x20\n      dup1\n      swap2\n      div\n      mul\n      0x20\n      add\n      mload(0x40)\n      swap1\n      dup2\n      add\n      0x40\n      mstore\n      dup1\n      swap3\n      swap2\n      swap1\n      dup2\n      dup2\n      mstore\n      0x20\n      add\n      dup3\n      dup1\n      sload\n      tag_91\n      swap1\n      tag_83\n      jump\t// in\n    tag_91:\n      dup1\n      iszero\n      tag_92\n      jumpi\n      dup1\n      0x1f\n      lt\n      tag_93\n      jumpi\n      0x0100\n      dup1\n      dup4\n      sload\n      div\n      mul\n      dup4\n      mstore\n      swap2\n      0x20\n      add\n      swap2\n      jump(tag_92)\n    tag_93:\n      dup3\n      add\n      swap2\n      swap1\n      0x00\n      mstore\n      keccak256(0x00, 0x20)\n      swap1\n    tag_94:\n      dup2\n      sload\n      dup2\n      mstore\n      swap1\n      0x01\n      add\n      swap1\n      0x20\n      add\n      dup1\n      dup4\n      gt\n      tag_94\n      jumpi\n      dup3\n      swap1\n      sub\n      0x1f\n      and\n      dup3\n      add\n      swap2\n    tag_92:\n      pop\n      pop\n      pop\n      pop\n      pop\n      swap3\n      pop\n      swap4\n      pop\n      swap4\n      pop\n      swap4\n      pop\n      pop\n        /* \"HealthHub.sol\":2603:2878  function getSummary (uint index) public view returns(string memory, address, uint) {\r... */\n      swap2\n      swap4\n      swap1\n      swap3\n      pop\n      jump\t// out\n        /* \"HealthHub.sol\":1356:1910  function makeRequest(string memory desc ,address add, uint index) public {\r... */\n    tag_47:\n        /* \"HealthHub.sol\":1640:1644  data */\n      0x04\n        /* \"HealthHub.sol\":1640:1651  data[index] */\n      0x00\n        /* \"HealthHub.sol\":1645:1650  index */\n      dup3\n        /* \"HealthHub.sol\":1640:1651  data[index] */\n      dup2\n      mstore\n      0x20\n      add\n      swap1\n      dup2\n      mstore\n      0x20\n      add\n      0x00\n      keccak256\n        /* \"HealthHub.sol\":1640:1664  data[index].requestsMade */\n      0x01\n      add\n        /* \"HealthHub.sol\":1640:1669  data[index].requestsMade[add] */\n      0x00\n        /* \"HealthHub.sol\":1665:1668  add */\n      dup4\n        /* \"HealthHub.sol\":1640:1669  data[index].requestsMade[add] */\n      0xffffffffffffffffffffffffffffffffffffffff\n      and\n      0xffffffffffffffffffffffffffffffffffffffff\n      and\n      dup2\n      mstore\n      0x20\n      add\n      swap1\n      dup2\n      mstore\n      0x20\n      add\n      0x00\n      keccak256\n      0x00\n      swap1\n      sload\n      swap1\n      0x0100\n      exp\n      swap1\n      div\n      0xff\n      and\n        /* \"HealthHub.sol\":1639:1669  !data[index].requestsMade[add] */\n      iszero\n        /* \"HealthHub.sol\":1631:1670  require(!data[index].requestsMade[add]) */\n      tag_96\n      jumpi\n      0x00\n      dup1\n      revert\n    tag_96:\n        /* \"HealthHub.sol\":1741:1754  requestersAdd */\n      0x00\n        /* \"HealthHub.sol\":1760:1763  add */\n      dup3\n        /* \"HealthHub.sol\":1741:1764  requestersAdd.push(add) */\n      swap1\n      dup1\n      0x01\n      dup2\n      sload\n      add\n      dup1\n      dup3\n      sstore\n      dup1\n      swap2\n      pop\n      pop\n      0x01\n      swap1\n      sub\n      swap1\n      0x00\n      mstore\n      keccak256(0x00, 0x20)\n      add\n      0x00\n      swap1\n      swap2\n      swap1\n      swap2\n      swap1\n      swap2\n      0x0100\n      exp\n      dup2\n      sload\n      dup2\n      0xffffffffffffffffffffffffffffffffffffffff\n      mul\n      not\n      and\n      swap1\n      dup4\n      0xffffffffffffffffffffffffffffffffffffffff\n      and\n      mul\n      or\n      swap1\n      sstore\n      pop\n        /* \"HealthHub.sol\":1809:1813  desc */\n      dup3\n        /* \"HealthHub.sol\":1775:1779  data */\n      0x04\n        /* \"HealthHub.sol\":1775:1786  data[index] */\n      0x00\n        /* \"HealthHub.sol\":1780:1785  index */\n      dup4\n        /* \"HealthHub.sol\":1775:1786  data[index] */\n      dup2\n      mstore\n      0x20\n      add\n      swap1\n      dup2\n      mstore\n      0x20\n      add\n      0x00\n      keccak256\n        /* \"HealthHub.sol\":1775:1801  data[index].requestersDesc */\n      0x02\n      add\n        /* \"HealthHub.sol\":1775:1806  data[index].requestersDesc[add] */\n      0x00\n        /* \"HealthHub.sol\":1802:1805  add */\n      dup5\n        /* \"HealthHub.sol\":1775:1806  data[index].requestersDesc[add] */\n      0xffffffffffffffffffffffffffffffffffffffff\n      and\n      0xffffffffffffffffffffffffffffffffffffffff\n      and\n      dup2\n      mstore\n      0x20\n      add\n      swap1\n      dup2\n      mstore\n      0x20\n      add\n      0x00\n      keccak256\n        /* \"HealthHub.sol\":1775:1813  data[index].requestersDesc[add] = desc */\n      swap1\n      dup1\n      mload\n      swap1\n      0x20\n      add\n      swap1\n      tag_98\n      swap3\n      swap2\n      swap1\n      tag_99\n      jump\t// in\n    tag_98:\n      pop\n        /* \"HealthHub.sol\":1856:1860  true */\n      0x01\n        /* \"HealthHub.sol\":1824:1828  data */\n      0x04\n        /* \"HealthHub.sol\":1824:1835  data[index] */\n      0x00\n        /* \"HealthHub.sol\":1829:1834  index */\n      dup4\n        /* \"HealthHub.sol\":1824:1835  data[index] */\n      dup2\n      mstore\n      0x20\n      add\n      swap1\n      dup2\n      mstore\n      0x20\n      add\n      0x00\n      keccak256\n        /* \"HealthHub.sol\":1824:1848  data[index].requestsMade */\n      0x01\n      add\n        /* \"HealthHub.sol\":1824:1853  data[index].requestsMade[add] */\n      0x00\n        /* \"HealthHub.sol\":1849:1852  add */\n      dup5\n        /* \"HealthHub.sol\":1824:1853  data[index].requestsMade[add] */\n      0xffffffffffffffffffffffffffffffffffffffff\n      and\n      0xffffffffffffffffffffffffffffffffffffffff\n      and\n      dup2\n      mstore\n      0x20\n      add\n      swap1\n      dup2\n      mstore\n      0x20\n      add\n      0x00\n      keccak256\n      0x00\n        /* \"HealthHub.sol\":1824:1860  data[index].requestsMade[add] = true */\n      0x0100\n      exp\n      dup2\n      sload\n      dup2\n      0xff\n      mul\n      not\n      and\n      swap1\n      dup4\n      iszero\n      iszero\n      mul\n      or\n      swap1\n      sstore\n      pop\n        /* \"HealthHub.sol\":1871:1875  data */\n      0x04\n        /* \"HealthHub.sol\":1871:1882  data[index] */\n      0x00\n        /* \"HealthHub.sol\":1876:1881  index */\n      dup3\n        /* \"HealthHub.sol\":1871:1882  data[index] */\n      dup2\n      mstore\n      0x20\n      add\n      swap1\n      dup2\n      mstore\n      0x20\n      add\n      0x00\n      keccak256\n        /* \"HealthHub.sol\":1871:1900  data[index].requestsMadeCount */\n      0x04\n      add\n      0x00\n        /* \"HealthHub.sol\":1871:1902  data[index].requestsMadeCount++ */\n      dup2\n      sload\n      dup1\n      swap3\n      swap2\n      swap1\n      tag_100\n      swap1\n      tag_101\n      jump\t// in\n    tag_100:\n      swap2\n      swap1\n      pop\n      sstore\n      pop\n        /* \"HealthHub.sol\":1356:1910  function makeRequest(string memory desc ,address add, uint index) public {\r... */\n      pop\n      pop\n      pop\n      jump\t// out\n        /* \"HealthHub.sol\":535:577  mapping(address => bool) public requesters */\n    tag_51:\n      mstore(0x20, 0x01)\n      dup1\n      0x00\n      mstore\n      keccak256(0x00, 0x40)\n      0x00\n      swap2\n      pop\n      sload\n      swap1\n      0x0100\n      exp\n      swap1\n      div\n      0xff\n      and\n      dup2\n      jump\t// out\n        /* \"HealthHub.sol\":584:611  uint public requestersCount */\n    tag_55:\n      sload(0x02)\n      dup2\n      jump\t// out\n        /* \"HealthHub.sol\":1060:1344  function createData (string memory description) public {\r... */\n    tag_60:\n        /* \"HealthHub.sol\":1151:1155  true */\n      0x01\n        /* \"HealthHub.sol\":1126:1136  requesters */\n      dup1\n        /* \"HealthHub.sol\":1126:1148  requesters[msg.sender] */\n      0x00\n        /* \"HealthHub.sol\":1137:1147  msg.sender */\n      caller\n        /* \"HealthHub.sol\":1126:1148  requesters[msg.sender] */\n      0xffffffffffffffffffffffffffffffffffffffff\n      and\n      0xffffffffffffffffffffffffffffffffffffffff\n      and\n      dup2\n      mstore\n      0x20\n      add\n      swap1\n      dup2\n      mstore\n      0x20\n      add\n      0x00\n      keccak256\n      0x00\n        /* \"HealthHub.sol\":1126:1155  requesters[msg.sender] = true */\n      0x0100\n      exp\n      dup2\n      sload\n      dup2\n      0xff\n      mul\n      not\n      and\n      swap1\n      dup4\n      iszero\n      iszero\n      mul\n      or\n      swap1\n      sstore\n      pop\n        /* \"HealthHub.sol\":1166:1181  requestersCount */\n      0x02\n      0x00\n        /* \"HealthHub.sol\":1166:1183  requestersCount++ */\n      dup2\n      sload\n      dup1\n      swap3\n      swap2\n      swap1\n      tag_103\n      swap1\n      tag_101\n      jump\t// in\n    tag_103:\n      swap2\n      swap1\n      pop\n      sstore\n      pop\n        /* \"HealthHub.sol\":1194:1208  Data storage r */\n      0x00\n        /* \"HealthHub.sol\":1211:1215  data */\n      0x04\n        /* \"HealthHub.sol\":1211:1230  data[numRequests++] */\n      0x00\n        /* \"HealthHub.sol\":1216:1227  numRequests */\n      0x03\n      0x00\n        /* \"HealthHub.sol\":1216:1229  numRequests++ */\n      dup2\n      sload\n      dup1\n      swap3\n      swap2\n      swap1\n      tag_104\n      swap1\n      tag_101\n      jump\t// in\n    tag_104:\n      swap2\n      swap1\n      pop\n      sstore\n        /* \"HealthHub.sol\":1211:1230  data[numRequests++] */\n      dup2\n      mstore\n      0x20\n      add\n      swap1\n      dup2\n      mstore\n      0x20\n      add\n      0x00\n      keccak256\n        /* \"HealthHub.sol\":1194:1230  Data storage r = data[numRequests++] */\n      swap1\n      pop\n        /* \"HealthHub.sol\":1257:1268  description */\n      dup2\n        /* \"HealthHub.sol\":1241:1242  r */\n      dup2\n        /* \"HealthHub.sol\":1241:1254  r.description */\n      0x00\n      add\n        /* \"HealthHub.sol\":1241:1268  r.description = description */\n      swap1\n      dup1\n      mload\n      swap1\n      0x20\n      add\n      swap1\n      tag_105\n      swap3\n      swap2\n      swap1\n      tag_99\n      jump\t// in\n    tag_105:\n      pop\n        /* \"HealthHub.sol\":1301:1302  0 */\n      0x00\n        /* \"HealthHub.sol\":1279:1280  r */\n      dup2\n        /* \"HealthHub.sol\":1279:1298  r.requestsMadeCount */\n      0x04\n      add\n        /* \"HealthHub.sol\":1279:1302  r.requestsMadeCount = 0 */\n      dup2\n      swap1\n      sstore\n      pop\n        /* \"HealthHub.sol\":1325:1335  msg.sender */\n      caller\n        /* \"HealthHub.sol\":1313:1314  r */\n      dup2\n        /* \"HealthHub.sol\":1313:1322  r.manager */\n      0x05\n      add\n      0x00\n        /* \"HealthHub.sol\":1313:1335  r.manager = msg.sender */\n      0x0100\n      exp\n      dup2\n      sload\n      dup2\n      0xffffffffffffffffffffffffffffffffffffffff\n      mul\n      not\n      and\n      swap1\n      dup4\n      0xffffffffffffffffffffffffffffffffffffffff\n      and\n      mul\n      or\n      swap1\n      sstore\n      pop\n        /* \"HealthHub.sol\":1060:1344  function createData (string memory description) public {\r... */\n      pop\n      pop\n      jump\t// out\n        /* \"HealthHub.sol\":1013:1047  mapping (uint => Data) public data */\n    tag_63:\n      mstore(0x20, 0x04)\n      dup1\n      0x00\n      mstore\n      keccak256(0x00, 0x40)\n      0x00\n      swap2\n      pop\n      swap1\n      pop\n      dup1\n      0x00\n      add\n      dup1\n      sload\n      tag_106\n      swap1\n      tag_83\n      jump\t// in\n    tag_106:\n      dup1\n      0x1f\n      add\n      0x20\n      dup1\n      swap2\n      div\n      mul\n      0x20\n      add\n      mload(0x40)\n      swap1\n      dup2\n      add\n      0x40\n      mstore\n      dup1\n      swap3\n      swap2\n      swap1\n      dup2\n      dup2\n      mstore\n      0x20\n      add\n      dup3\n      dup1\n      sload\n      tag_107\n      swap1\n      tag_83\n      jump\t// in\n    tag_107:\n      dup1\n      iszero\n      tag_108\n      jumpi\n      dup1\n      0x1f\n      lt\n      tag_109\n      jumpi\n      0x0100\n      dup1\n      dup4\n      sload\n      div\n      mul\n      dup4\n      mstore\n      swap2\n      0x20\n      add\n      swap2\n      jump(tag_108)\n    tag_109:\n      dup3\n      add\n      swap2\n      swap1\n      0x00\n      mstore\n      keccak256(0x00, 0x20)\n      swap1\n    tag_110:\n      dup2\n      sload\n      dup2\n      mstore\n      swap1\n      0x01\n      add\n      swap1\n      0x20\n      add\n      dup1\n      dup4\n      gt\n      tag_110\n      jumpi\n      dup3\n      swap1\n      sub\n      0x1f\n      and\n      dup3\n      add\n      swap2\n    tag_108:\n      pop\n      pop\n      pop\n      pop\n      pop\n      swap1\n      dup1\n      0x04\n      add\n      sload\n      swap1\n      dup1\n      0x05\n      add\n      0x00\n      swap1\n      sload\n      swap1\n      0x0100\n      exp\n      swap1\n      div\n      0xffffffffffffffffffffffffffffffffffffffff\n      and\n      swap1\n      pop\n      dup4\n      jump\t// out\n    tag_99:\n      dup3\n      dup1\n      sload\n      tag_111\n      swap1\n      tag_83\n      jump\t// in\n    tag_111:\n      swap1\n      0x00\n      mstore\n      keccak256(0x00, 0x20)\n      swap1\n      0x1f\n      add\n      0x20\n      swap1\n      div\n      dup2\n      add\n      swap3\n      dup3\n      tag_113\n      jumpi\n      0x00\n      dup6\n      sstore\n      jump(tag_112)\n    tag_113:\n      dup3\n      0x1f\n      lt\n      tag_114\n      jumpi\n      dup1\n      mload\n      not(0xff)\n      and\n      dup4\n      dup1\n      add\n      or\n      dup6\n      sstore\n      jump(tag_112)\n    tag_114:\n      dup3\n      dup1\n      add\n      0x01\n      add\n      dup6\n      sstore\n      dup3\n      iszero\n      tag_112\n      jumpi\n      swap2\n      dup3\n      add\n    tag_115:\n      dup3\n      dup2\n      gt\n      iszero\n      tag_116\n      jumpi\n      dup3\n      mload\n      dup3\n      sstore\n      swap2\n      0x20\n      add\n      swap2\n      swap1\n      0x01\n      add\n      swap1\n      jump(tag_115)\n    tag_116:\n    tag_112:\n      pop\n      swap1\n      pop\n      tag_117\n      swap2\n      swap1\n      tag_118\n      jump\t// in\n    tag_117:\n      pop\n      swap1\n      jump\t// out\n    tag_118:\n    tag_119:\n      dup1\n      dup3\n      gt\n      iszero\n      tag_120\n      jumpi\n      0x00\n      dup2\n      0x00\n      swap1\n      sstore\n      pop\n      0x01\n      add\n      jump(tag_119)\n    tag_120:\n      pop\n      swap1\n      jump\t// out\n        /* \"#utility.yul\":7:352   */\n    tag_122:\n        /* \"#utility.yul\":85:90   */\n      0x00\n        /* \"#utility.yul\":110:176   */\n      tag_124\n        /* \"#utility.yul\":126:175   */\n      tag_125\n        /* \"#utility.yul\":168:174   */\n      dup5\n        /* \"#utility.yul\":126:175   */\n      tag_126\n      jump\t// in\n    tag_125:\n        /* \"#utility.yul\":110:176   */\n      tag_127\n      jump\t// in\n    tag_124:\n        /* \"#utility.yul\":101:176   */\n      swap1\n      pop\n        /* \"#utility.yul\":199:205   */\n      dup3\n        /* \"#utility.yul\":192:197   */\n      dup2\n        /* \"#utility.yul\":185:206   */\n      mstore\n        /* \"#utility.yul\":237:241   */\n      0x20\n        /* \"#utility.yul\":230:235   */\n      dup2\n        /* \"#utility.yul\":226:242   */\n      add\n        /* \"#utility.yul\":275:278   */\n      dup5\n        /* \"#utility.yul\":266:272   */\n      dup5\n        /* \"#utility.yul\":261:264   */\n      dup5\n        /* \"#utility.yul\":257:273   */\n      add\n        /* \"#utility.yul\":254:279   */\n      gt\n        /* \"#utility.yul\":251:253   */\n      iszero\n      tag_128\n      jumpi\n        /* \"#utility.yul\":292:293   */\n      0x00\n        /* \"#utility.yul\":289:290   */\n      dup1\n        /* \"#utility.yul\":282:294   */\n      revert\n        /* \"#utility.yul\":251:253   */\n    tag_128:\n        /* \"#utility.yul\":305:346   */\n      tag_129\n        /* \"#utility.yul\":339:345   */\n      dup5\n        /* \"#utility.yul\":334:337   */\n      dup3\n        /* \"#utility.yul\":329:332   */\n      dup6\n        /* \"#utility.yul\":305:346   */\n      tag_130\n      jump\t// in\n    tag_129:\n        /* \"#utility.yul\":91:352   */\n      pop\n      swap4\n      swap3\n      pop\n      pop\n      pop\n      jump\t// out\n        /* \"#utility.yul\":358:497   */\n    tag_131:\n        /* \"#utility.yul\":404:409   */\n      0x00\n        /* \"#utility.yul\":442:448   */\n      dup2\n        /* \"#utility.yul\":429:449   */\n      calldataload\n        /* \"#utility.yul\":420:449   */\n      swap1\n      pop\n        /* \"#utility.yul\":458:491   */\n      tag_133\n        /* \"#utility.yul\":485:490   */\n      dup2\n        /* \"#utility.yul\":458:491   */\n      tag_134\n      jump\t// in\n    tag_133:\n        /* \"#utility.yul\":410:497   */\n      swap3\n      swap2\n      pop\n      pop\n      jump\t// out\n        /* \"#utility.yul\":517:790   */\n    tag_135:\n        /* \"#utility.yul\":573:578   */\n      0x00\n        /* \"#utility.yul\":622:625   */\n      dup3\n        /* \"#utility.yul\":615:619   */\n      0x1f\n        /* \"#utility.yul\":607:613   */\n      dup4\n        /* \"#utility.yul\":603:620   */\n      add\n        /* \"#utility.yul\":599:626   */\n      slt\n        /* \"#utility.yul\":589:591   */\n      tag_137\n      jumpi\n        /* \"#utility.yul\":640:641   */\n      0x00\n        /* \"#utility.yul\":637:638   */\n      dup1\n        /* \"#utility.yul\":630:642   */\n      revert\n        /* \"#utility.yul\":589:591   */\n    tag_137:\n        /* \"#utility.yul\":680:686   */\n      dup2\n        /* \"#utility.yul\":667:687   */\n      calldataload\n        /* \"#utility.yul\":705:784   */\n      tag_138\n        /* \"#utility.yul\":780:783   */\n      dup5\n        /* \"#utility.yul\":772:778   */\n      dup3\n        /* \"#utility.yul\":765:769   */\n      0x20\n        /* \"#utility.yul\":757:763   */\n      dup7\n        /* \"#utility.yul\":753:770   */\n      add\n        /* \"#utility.yul\":705:784   */\n      tag_122\n      jump\t// in\n    tag_138:\n        /* \"#utility.yul\":696:784   */\n      swap2\n      pop\n        /* \"#utility.yul\":579:790   */\n      pop\n      swap3\n      swap2\n      pop\n      pop\n      jump\t// out\n        /* \"#utility.yul\":796:935   */\n    tag_139:\n        /* \"#utility.yul\":842:847   */\n      0x00\n        /* \"#utility.yul\":880:886   */\n      dup2\n        /* \"#utility.yul\":867:887   */\n      calldataload\n        /* \"#utility.yul\":858:887   */\n      swap1\n      pop\n        /* \"#utility.yul\":896:929   */\n      tag_141\n        /* \"#utility.yul\":923:928   */\n      dup2\n        /* \"#utility.yul\":896:929   */\n      tag_142\n      jump\t// in\n    tag_141:\n        /* \"#utility.yul\":848:935   */\n      swap3\n      swap2\n      pop\n      pop\n      jump\t// out\n        /* \"#utility.yul\":941:1203   */\n    tag_50:\n        /* \"#utility.yul\":1000:1006   */\n      0x00\n        /* \"#utility.yul\":1049:1051   */\n      0x20\n        /* \"#utility.yul\":1037:1046   */\n      dup3\n        /* \"#utility.yul\":1028:1035   */\n      dup5\n        /* \"#utility.yul\":1024:1047   */\n      sub\n        /* \"#utility.yul\":1020:1052   */\n      slt\n        /* \"#utility.yul\":1017:1019   */\n      iszero\n      tag_144\n      jumpi\n        /* \"#utility.yul\":1065:1066   */\n      0x00\n        /* \"#utility.yul\":1062:1063   */\n      dup1\n        /* \"#utility.yul\":1055:1067   */\n      revert\n        /* \"#utility.yul\":1017:1019   */\n    tag_144:\n        /* \"#utility.yul\":1108:1109   */\n      0x00\n        /* \"#utility.yul\":1133:1186   */\n      tag_145\n        /* \"#utility.yul\":1178:1185   */\n      dup5\n        /* \"#utility.yul\":1169:1175   */\n      dup3\n        /* \"#utility.yul\":1158:1167   */\n      dup6\n        /* \"#utility.yul\":1154:1176   */\n      add\n        /* \"#utility.yul\":1133:1186   */\n      tag_131\n      jump\t// in\n    tag_145:\n        /* \"#utility.yul\":1123:1186   */\n      swap2\n      pop\n        /* \"#utility.yul\":1079:1196   */\n      pop\n        /* \"#utility.yul\":1007:1203   */\n      swap3\n      swap2\n      pop\n      pop\n      jump\t// out\n        /* \"#utility.yul\":1209:1584   */\n    tag_59:\n        /* \"#utility.yul\":1278:1284   */\n      0x00\n        /* \"#utility.yul\":1327:1329   */\n      0x20\n        /* \"#utility.yul\":1315:1324   */\n      dup3\n        /* \"#utility.yul\":1306:1313   */\n      dup5\n        /* \"#utility.yul\":1302:1325   */\n      sub\n        /* \"#utility.yul\":1298:1330   */\n      slt\n        /* \"#utility.yul\":1295:1297   */\n      iszero\n      tag_147\n      jumpi\n        /* \"#utility.yul\":1343:1344   */\n      0x00\n        /* \"#utility.yul\":1340:1341   */\n      dup1\n        /* \"#utility.yul\":1333:1345   */\n      revert\n        /* \"#utility.yul\":1295:1297   */\n    tag_147:\n        /* \"#utility.yul\":1414:1415   */\n      0x00\n        /* \"#utility.yul\":1403:1412   */\n      dup3\n        /* \"#utility.yul\":1399:1416   */\n      add\n        /* \"#utility.yul\":1386:1417   */\n      calldataload\n        /* \"#utility.yul\":1444:1462   */\n      0xffffffffffffffff\n        /* \"#utility.yul\":1436:1442   */\n      dup2\n        /* \"#utility.yul\":1433:1463   */\n      gt\n        /* \"#utility.yul\":1430:1432   */\n      iszero\n      tag_148\n      jumpi\n        /* \"#utility.yul\":1476:1477   */\n      0x00\n        /* \"#utility.yul\":1473:1474   */\n      dup1\n        /* \"#utility.yul\":1466:1478   */\n      revert\n        /* \"#utility.yul\":1430:1432   */\n    tag_148:\n        /* \"#utility.yul\":1504:1567   */\n      tag_149\n        /* \"#utility.yul\":1559:1566   */\n      dup5\n        /* \"#utility.yul\":1550:1556   */\n      dup3\n        /* \"#utility.yul\":1539:1548   */\n      dup6\n        /* \"#utility.yul\":1535:1557   */\n      add\n        /* \"#utility.yul\":1504:1567   */\n      tag_135\n      jump\t// in\n    tag_149:\n        /* \"#utility.yul\":1494:1567   */\n      swap2\n      pop\n        /* \"#utility.yul\":1357:1577   */\n      pop\n        /* \"#utility.yul\":1285:1584   */\n      swap3\n      swap2\n      pop\n      pop\n      jump\t// out\n        /* \"#utility.yul\":1590:2255   */\n    tag_46:\n        /* \"#utility.yul\":1677:1683   */\n      0x00\n        /* \"#utility.yul\":1685:1691   */\n      dup1\n        /* \"#utility.yul\":1693:1699   */\n      0x00\n        /* \"#utility.yul\":1742:1744   */\n      0x60\n        /* \"#utility.yul\":1730:1739   */\n      dup5\n        /* \"#utility.yul\":1721:1728   */\n      dup7\n        /* \"#utility.yul\":1717:1740   */\n      sub\n        /* \"#utility.yul\":1713:1745   */\n      slt\n        /* \"#utility.yul\":1710:1712   */\n      iszero\n      tag_151\n      jumpi\n        /* \"#utility.yul\":1758:1759   */\n      0x00\n        /* \"#utility.yul\":1755:1756   */\n      dup1\n        /* \"#utility.yul\":1748:1760   */\n      revert\n        /* \"#utility.yul\":1710:1712   */\n    tag_151:\n        /* \"#utility.yul\":1829:1830   */\n      0x00\n        /* \"#utility.yul\":1818:1827   */\n      dup5\n        /* \"#utility.yul\":1814:1831   */\n      add\n        /* \"#utility.yul\":1801:1832   */\n      calldataload\n        /* \"#utility.yul\":1859:1877   */\n      0xffffffffffffffff\n        /* \"#utility.yul\":1851:1857   */\n      dup2\n        /* \"#utility.yul\":1848:1878   */\n      gt\n        /* \"#utility.yul\":1845:1847   */\n      iszero\n      tag_152\n      jumpi\n        /* \"#utility.yul\":1891:1892   */\n      0x00\n        /* \"#utility.yul\":1888:1889   */\n      dup1\n        /* \"#utility.yul\":1881:1893   */\n      revert\n        /* \"#utility.yul\":1845:1847   */\n    tag_152:\n        /* \"#utility.yul\":1919:1982   */\n      tag_153\n        /* \"#utility.yul\":1974:1981   */\n      dup7\n        /* \"#utility.yul\":1965:1971   */\n      dup3\n        /* \"#utility.yul\":1954:1963   */\n      dup8\n        /* \"#utility.yul\":1950:1972   */\n      add\n        /* \"#utility.yul\":1919:1982   */\n      tag_135\n      jump\t// in\n    tag_153:\n        /* \"#utility.yul\":1909:1982   */\n      swap4\n      pop\n        /* \"#utility.yul\":1772:1992   */\n      pop\n        /* \"#utility.yul\":2031:2033   */\n      0x20\n        /* \"#utility.yul\":2057:2110   */\n      tag_154\n        /* \"#utility.yul\":2102:2109   */\n      dup7\n        /* \"#utility.yul\":2093:2099   */\n      dup3\n        /* \"#utility.yul\":2082:2091   */\n      dup8\n        /* \"#utility.yul\":2078:2100   */\n      add\n        /* \"#utility.yul\":2057:2110   */\n      tag_131\n      jump\t// in\n    tag_154:\n        /* \"#utility.yul\":2047:2110   */\n      swap3\n      pop\n        /* \"#utility.yul\":2002:2120   */\n      pop\n        /* \"#utility.yul\":2159:2161   */\n      0x40\n        /* \"#utility.yul\":2185:2238   */\n      tag_155\n        /* \"#utility.yul\":2230:2237   */\n      dup7\n        /* \"#utility.yul\":2221:2227   */\n      dup3\n        /* \"#utility.yul\":2210:2219   */\n      dup8\n        /* \"#utility.yul\":2206:2228   */\n      add\n        /* \"#utility.yul\":2185:2238   */\n      tag_139\n      jump\t// in\n    tag_155:\n        /* \"#utility.yul\":2175:2238   */\n      swap2\n      pop\n        /* \"#utility.yul\":2130:2248   */\n      pop\n        /* \"#utility.yul\":1700:2255   */\n      swap3\n      pop\n      swap3\n      pop\n      swap3\n      jump\t// out\n        /* \"#utility.yul\":2261:2523   */\n    tag_17:\n        /* \"#utility.yul\":2320:2326   */\n      0x00\n        /* \"#utility.yul\":2369:2371   */\n      0x20\n        /* \"#utility.yul\":2357:2366   */\n      dup3\n        /* \"#utility.yul\":2348:2355   */\n      dup5\n        /* \"#utility.yul\":2344:2367   */\n      sub\n        /* \"#utility.yul\":2340:2372   */\n      slt\n        /* \"#utility.yul\":2337:2339   */\n      iszero\n      tag_157\n      jumpi\n        /* \"#utility.yul\":2385:2386   */\n      0x00\n        /* \"#utility.yul\":2382:2383   */\n      dup1\n        /* \"#utility.yul\":2375:2387   */\n      revert\n        /* \"#utility.yul\":2337:2339   */\n    tag_157:\n        /* \"#utility.yul\":2428:2429   */\n      0x00\n        /* \"#utility.yul\":2453:2506   */\n      tag_158\n        /* \"#utility.yul\":2498:2505   */\n      dup5\n        /* \"#utility.yul\":2489:2495   */\n      dup3\n        /* \"#utility.yul\":2478:2487   */\n      dup6\n        /* \"#utility.yul\":2474:2496   */\n      add\n        /* \"#utility.yul\":2453:2506   */\n      tag_139\n      jump\t// in\n    tag_158:\n        /* \"#utility.yul\":2443:2506   */\n      swap2\n      pop\n        /* \"#utility.yul\":2399:2516   */\n      pop\n        /* \"#utility.yul\":2327:2523   */\n      swap3\n      swap2\n      pop\n      pop\n      jump\t// out\n        /* \"#utility.yul\":2529:2936   */\n    tag_21:\n        /* \"#utility.yul\":2597:2603   */\n      0x00\n        /* \"#utility.yul\":2605:2611   */\n      dup1\n        /* \"#utility.yul\":2654:2656   */\n      0x40\n        /* \"#utility.yul\":2642:2651   */\n      dup4\n        /* \"#utility.yul\":2633:2640   */\n      dup6\n        /* \"#utility.yul\":2629:2652   */\n      sub\n        /* \"#utility.yul\":2625:2657   */\n      slt\n        /* \"#utility.yul\":2622:2624   */\n      iszero\n      tag_160\n      jumpi\n        /* \"#utility.yul\":2670:2671   */\n      0x00\n        /* \"#utility.yul\":2667:2668   */\n      dup1\n        /* \"#utility.yul\":2660:2672   */\n      revert\n        /* \"#utility.yul\":2622:2624   */\n    tag_160:\n        /* \"#utility.yul\":2713:2714   */\n      0x00\n        /* \"#utility.yul\":2738:2791   */\n      tag_161\n        /* \"#utility.yul\":2783:2790   */\n      dup6\n        /* \"#utility.yul\":2774:2780   */\n      dup3\n        /* \"#utility.yul\":2763:2772   */\n      dup7\n        /* \"#utility.yul\":2759:2781   */\n      add\n        /* \"#utility.yul\":2738:2791   */\n      tag_139\n      jump\t// in\n    tag_161:\n        /* \"#utility.yul\":2728:2791   */\n      swap3\n      pop\n        /* \"#utility.yul\":2684:2801   */\n      pop\n        /* \"#utility.yul\":2840:2842   */\n      0x20\n        /* \"#utility.yul\":2866:2919   */\n      tag_162\n        /* \"#utility.yul\":2911:2918   */\n      dup6\n        /* \"#utility.yul\":2902:2908   */\n      dup3\n        /* \"#utility.yul\":2891:2900   */\n      dup7\n        /* \"#utility.yul\":2887:2909   */\n      add\n        /* \"#utility.yul\":2866:2919   */\n      tag_131\n      jump\t// in\n    tag_162:\n        /* \"#utility.yul\":2856:2919   */\n      swap2\n      pop\n        /* \"#utility.yul\":2811:2929   */\n      pop\n        /* \"#utility.yul\":2612:2936   */\n      swap3\n      pop\n      swap3\n      swap1\n      pop\n      jump\t// out\n        /* \"#utility.yul\":2942:3349   */\n    tag_30:\n        /* \"#utility.yul\":3010:3016   */\n      0x00\n        /* \"#utility.yul\":3018:3024   */\n      dup1\n        /* \"#utility.yul\":3067:3069   */\n      0x40\n        /* \"#utility.yul\":3055:3064   */\n      dup4\n        /* \"#utility.yul\":3046:3053   */\n      dup6\n        /* \"#utility.yul\":3042:3065   */\n      sub\n        /* \"#utility.yul\":3038:3070   */\n      slt\n        /* \"#utility.yul\":3035:3037   */\n      iszero\n      tag_164\n      jumpi\n        /* \"#utility.yul\":3083:3084   */\n      0x00\n        /* \"#utility.yul\":3080:3081   */\n      dup1\n        /* \"#utility.yul\":3073:3085   */\n      revert\n        /* \"#utility.yul\":3035:3037   */\n    tag_164:\n        /* \"#utility.yul\":3126:3127   */\n      0x00\n        /* \"#utility.yul\":3151:3204   */\n      tag_165\n        /* \"#utility.yul\":3196:3203   */\n      dup6\n        /* \"#utility.yul\":3187:3193   */\n      dup3\n        /* \"#utility.yul\":3176:3185   */\n      dup7\n        /* \"#utility.yul\":3172:3194   */\n      add\n        /* \"#utility.yul\":3151:3204   */\n      tag_139\n      jump\t// in\n    tag_165:\n        /* \"#utility.yul\":3141:3204   */\n      swap3\n      pop\n        /* \"#utility.yul\":3097:3214   */\n      pop\n        /* \"#utility.yul\":3253:3255   */\n      0x20\n        /* \"#utility.yul\":3279:3332   */\n      tag_166\n        /* \"#utility.yul\":3324:3331   */\n      dup6\n        /* \"#utility.yul\":3315:3321   */\n      dup3\n        /* \"#utility.yul\":3304:3313   */\n      dup7\n        /* \"#utility.yul\":3300:3322   */\n      add\n        /* \"#utility.yul\":3279:3332   */\n      tag_139\n      jump\t// in\n    tag_166:\n        /* \"#utility.yul\":3269:3332   */\n      swap2\n      pop\n        /* \"#utility.yul\":3224:3342   */\n      pop\n        /* \"#utility.yul\":3025:3349   */\n      swap3\n      pop\n      swap3\n      swap1\n      pop\n      jump\t// out\n        /* \"#utility.yul\":3355:3473   */\n    tag_167:\n        /* \"#utility.yul\":3442:3466   */\n      tag_169\n        /* \"#utility.yul\":3460:3465   */\n      dup2\n        /* \"#utility.yul\":3442:3466   */\n      tag_170\n      jump\t// in\n    tag_169:\n        /* \"#utility.yul\":3437:3440   */\n      dup3\n        /* \"#utility.yul\":3430:3467   */\n      mstore\n        /* \"#utility.yul\":3420:3473   */\n      pop\n      pop\n      jump\t// out\n        /* \"#utility.yul\":3479:3588   */\n    tag_171:\n        /* \"#utility.yul\":3560:3581   */\n      tag_173\n        /* \"#utility.yul\":3575:3580   */\n      dup2\n        /* \"#utility.yul\":3560:3581   */\n      tag_174\n      jump\t// in\n    tag_173:\n        /* \"#utility.yul\":3555:3558   */\n      dup3\n        /* \"#utility.yul\":3548:3582   */\n      mstore\n        /* \"#utility.yul\":3538:3588   */\n      pop\n      pop\n      jump\t// out\n        /* \"#utility.yul\":3594:3958   */\n    tag_175:\n        /* \"#utility.yul\":3682:3685   */\n      0x00\n        /* \"#utility.yul\":3710:3749   */\n      tag_177\n        /* \"#utility.yul\":3743:3748   */\n      dup3\n        /* \"#utility.yul\":3710:3749   */\n      tag_178\n      jump\t// in\n    tag_177:\n        /* \"#utility.yul\":3765:3836   */\n      tag_179\n        /* \"#utility.yul\":3829:3835   */\n      dup2\n        /* \"#utility.yul\":3824:3827   */\n      dup6\n        /* \"#utility.yul\":3765:3836   */\n      tag_180\n      jump\t// in\n    tag_179:\n        /* \"#utility.yul\":3758:3836   */\n      swap4\n      pop\n        /* \"#utility.yul\":3845:3897   */\n      tag_181\n        /* \"#utility.yul\":3890:3896   */\n      dup2\n        /* \"#utility.yul\":3885:3888   */\n      dup6\n        /* \"#utility.yul\":3878:3882   */\n      0x20\n        /* \"#utility.yul\":3871:3876   */\n      dup7\n        /* \"#utility.yul\":3867:3883   */\n      add\n        /* \"#utility.yul\":3845:3897   */\n      tag_182\n      jump\t// in\n    tag_181:\n        /* \"#utility.yul\":3922:3951   */\n      tag_183\n        /* \"#utility.yul\":3944:3950   */\n      dup2\n        /* \"#utility.yul\":3922:3951   */\n      tag_184\n      jump\t// in\n    tag_183:\n        /* \"#utility.yul\":3917:3920   */\n      dup5\n        /* \"#utility.yul\":3913:3952   */\n      add\n        /* \"#utility.yul\":3906:3952   */\n      swap2\n      pop\n        /* \"#utility.yul\":3686:3958   */\n      pop\n      swap3\n      swap2\n      pop\n      pop\n      jump\t// out\n        /* \"#utility.yul\":3988:4790   */\n    tag_185:\n        /* \"#utility.yul\":4073:4076   */\n      0x00\n        /* \"#utility.yul\":4110:4115   */\n      dup2\n        /* \"#utility.yul\":4104:4116   */\n      sload\n        /* \"#utility.yul\":4139:4175   */\n      tag_187\n        /* \"#utility.yul\":4165:4174   */\n      dup2\n        /* \"#utility.yul\":4139:4175   */\n      tag_83\n      jump\t// in\n    tag_187:\n        /* \"#utility.yul\":4191:4262   */\n      tag_188\n        /* \"#utility.yul\":4255:4261   */\n      dup2\n        /* \"#utility.yul\":4250:4253   */\n      dup7\n        /* \"#utility.yul\":4191:4262   */\n      tag_180\n      jump\t// in\n    tag_188:\n        /* \"#utility.yul\":4184:4262   */\n      swap5\n      pop\n        /* \"#utility.yul\":4293:4294   */\n      0x01\n        /* \"#utility.yul\":4282:4291   */\n      dup3\n        /* \"#utility.yul\":4278:4295   */\n      and\n        /* \"#utility.yul\":4309:4310   */\n      0x00\n        /* \"#utility.yul\":4304:4439   */\n      dup2\n      eq\n      tag_190\n      jumpi\n        /* \"#utility.yul\":4453:4454   */\n      0x01\n        /* \"#utility.yul\":4448:4784   */\n      dup2\n      eq\n      tag_191\n      jumpi\n        /* \"#utility.yul\":4271:4784   */\n      jump(tag_189)\n        /* \"#utility.yul\":4304:4439   */\n    tag_190:\n        /* \"#utility.yul\":4388:4392   */\n      0xff\n        /* \"#utility.yul\":4384:4393   */\n      not\n        /* \"#utility.yul\":4373:4382   */\n      dup4\n        /* \"#utility.yul\":4369:4394   */\n      and\n        /* \"#utility.yul\":4364:4367   */\n      dup7\n        /* \"#utility.yul\":4357:4395   */\n      mstore\n        /* \"#utility.yul\":4424:4428   */\n      0x20\n        /* \"#utility.yul\":4419:4422   */\n      dup7\n        /* \"#utility.yul\":4415:4429   */\n      add\n        /* \"#utility.yul\":4408:4429   */\n      swap4\n      pop\n        /* \"#utility.yul\":4304:4439   */\n      jump(tag_189)\n        /* \"#utility.yul\":4448:4784   */\n    tag_191:\n        /* \"#utility.yul\":4515:4553   */\n      tag_192\n        /* \"#utility.yul\":4547:4552   */\n      dup6\n        /* \"#utility.yul\":4515:4553   */\n      tag_193\n      jump\t// in\n    tag_192:\n        /* \"#utility.yul\":4575:4576   */\n      0x00\n        /* \"#utility.yul\":4589:4743   */\n    tag_194:\n        /* \"#utility.yul\":4603:4609   */\n      dup4\n        /* \"#utility.yul\":4600:4601   */\n      dup2\n        /* \"#utility.yul\":4597:4610   */\n      lt\n        /* \"#utility.yul\":4589:4743   */\n      iszero\n      tag_196\n      jumpi\n        /* \"#utility.yul\":4677:4684   */\n      dup2\n        /* \"#utility.yul\":4671:4685   */\n      sload\n        /* \"#utility.yul\":4667:4668   */\n      dup2\n        /* \"#utility.yul\":4662:4665   */\n      dup10\n        /* \"#utility.yul\":4658:4669   */\n      add\n        /* \"#utility.yul\":4651:4686   */\n      mstore\n        /* \"#utility.yul\":4727:4728   */\n      0x01\n        /* \"#utility.yul\":4718:4725   */\n      dup3\n        /* \"#utility.yul\":4714:4729   */\n      add\n        /* \"#utility.yul\":4703:4729   */\n      swap2\n      pop\n        /* \"#utility.yul\":4625:4629   */\n      0x20\n        /* \"#utility.yul\":4622:4623   */\n      dup2\n        /* \"#utility.yul\":4618:4630   */\n      add\n        /* \"#utility.yul\":4613:4630   */\n      swap1\n      pop\n        /* \"#utility.yul\":4589:4743   */\n      jump(tag_194)\n    tag_196:\n        /* \"#utility.yul\":4772:4773   */\n      dup1\n        /* \"#utility.yul\":4767:4770   */\n      dup9\n        /* \"#utility.yul\":4763:4774   */\n      add\n        /* \"#utility.yul\":4756:4774   */\n      swap6\n      pop\n        /* \"#utility.yul\":4455:4784   */\n      pop\n      pop\n        /* \"#utility.yul\":4271:4784   */\n    tag_189:\n      pop\n        /* \"#utility.yul\":4077:4790   */\n      pop\n      pop\n      swap3\n      swap2\n      pop\n      pop\n      jump\t// out\n        /* \"#utility.yul\":4796:4914   */\n    tag_197:\n        /* \"#utility.yul\":4883:4907   */\n      tag_199\n        /* \"#utility.yul\":4901:4906   */\n      dup2\n        /* \"#utility.yul\":4883:4907   */\n      tag_200\n      jump\t// in\n    tag_199:\n        /* \"#utility.yul\":4878:4881   */\n      dup3\n        /* \"#utility.yul\":4871:4908   */\n      mstore\n        /* \"#utility.yul\":4861:4914   */\n      pop\n      pop\n      jump\t// out\n        /* \"#utility.yul\":4920:5142   */\n    tag_27:\n        /* \"#utility.yul\":5013:5017   */\n      0x00\n        /* \"#utility.yul\":5051:5053   */\n      0x20\n        /* \"#utility.yul\":5040:5049   */\n      dup3\n        /* \"#utility.yul\":5036:5054   */\n      add\n        /* \"#utility.yul\":5028:5054   */\n      swap1\n      pop\n        /* \"#utility.yul\":5064:5135   */\n      tag_202\n        /* \"#utility.yul\":5132:5133   */\n      0x00\n        /* \"#utility.yul\":5121:5130   */\n      dup4\n        /* \"#utility.yul\":5117:5134   */\n      add\n        /* \"#utility.yul\":5108:5114   */\n      dup5\n        /* \"#utility.yul\":5064:5135   */\n      tag_167\n      jump\t// in\n    tag_202:\n        /* \"#utility.yul\":5018:5142   */\n      swap3\n      swap2\n      pop\n      pop\n      jump\t// out\n        /* \"#utility.yul\":5148:5358   */\n    tag_53:\n        /* \"#utility.yul\":5235:5239   */\n      0x00\n        /* \"#utility.yul\":5273:5275   */\n      0x20\n        /* \"#utility.yul\":5262:5271   */\n      dup3\n        /* \"#utility.yul\":5258:5276   */\n      add\n        /* \"#utility.yul\":5250:5276   */\n      swap1\n      pop\n        /* \"#utility.yul\":5286:5351   */\n      tag_204\n        /* \"#utility.yul\":5348:5349   */\n      0x00\n        /* \"#utility.yul\":5337:5346   */\n      dup4\n        /* \"#utility.yul\":5333:5350   */\n      add\n        /* \"#utility.yul\":5324:5330   */\n      dup5\n        /* \"#utility.yul\":5286:5351   */\n      tag_171\n      jump\t// in\n    tag_204:\n        /* \"#utility.yul\":5240:5358   */\n      swap3\n      swap2\n      pop\n      pop\n      jump\t// out\n        /* \"#utility.yul\":5364:5885   */\n    tag_33:\n        /* \"#utility.yul\":5527:5531   */\n      0x00\n        /* \"#utility.yul\":5565:5567   */\n      0x60\n        /* \"#utility.yul\":5554:5563   */\n      dup3\n        /* \"#utility.yul\":5550:5568   */\n      add\n        /* \"#utility.yul\":5542:5568   */\n      swap1\n      pop\n        /* \"#utility.yul\":5614:5623   */\n      dup2\n        /* \"#utility.yul\":5608:5612   */\n      dup2\n        /* \"#utility.yul\":5604:5624   */\n      sub\n        /* \"#utility.yul\":5600:5601   */\n      0x00\n        /* \"#utility.yul\":5589:5598   */\n      dup4\n        /* \"#utility.yul\":5585:5602   */\n      add\n        /* \"#utility.yul\":5578:5625   */\n      mstore\n        /* \"#utility.yul\":5642:5720   */\n      tag_206\n        /* \"#utility.yul\":5715:5719   */\n      dup2\n        /* \"#utility.yul\":5706:5712   */\n      dup7\n        /* \"#utility.yul\":5642:5720   */\n      tag_175\n      jump\t// in\n    tag_206:\n        /* \"#utility.yul\":5634:5720   */\n      swap1\n      pop\n        /* \"#utility.yul\":5730:5802   */\n      tag_207\n        /* \"#utility.yul\":5798:5800   */\n      0x20\n        /* \"#utility.yul\":5787:5796   */\n      dup4\n        /* \"#utility.yul\":5783:5801   */\n      add\n        /* \"#utility.yul\":5774:5780   */\n      dup6\n        /* \"#utility.yul\":5730:5802   */\n      tag_167\n      jump\t// in\n    tag_207:\n        /* \"#utility.yul\":5812:5878   */\n      tag_208\n        /* \"#utility.yul\":5874:5876   */\n      0x40\n        /* \"#utility.yul\":5863:5872   */\n      dup4\n        /* \"#utility.yul\":5859:5877   */\n      add\n        /* \"#utility.yul\":5850:5856   */\n      dup5\n        /* \"#utility.yul\":5812:5878   */\n      tag_171\n      jump\t// in\n    tag_208:\n        /* \"#utility.yul\":5532:5885   */\n      swap5\n      swap4\n      pop\n      pop\n      pop\n      pop\n      jump\t// out\n        /* \"#utility.yul\":5891:6424   */\n    tag_43:\n        /* \"#utility.yul\":6060:6064   */\n      0x00\n        /* \"#utility.yul\":6098:6100   */\n      0x60\n        /* \"#utility.yul\":6087:6096   */\n      dup3\n        /* \"#utility.yul\":6083:6101   */\n      add\n        /* \"#utility.yul\":6075:6101   */\n      swap1\n      pop\n        /* \"#utility.yul\":6147:6156   */\n      dup2\n        /* \"#utility.yul\":6141:6145   */\n      dup2\n        /* \"#utility.yul\":6137:6157   */\n      sub\n        /* \"#utility.yul\":6133:6134   */\n      0x00\n        /* \"#utility.yul\":6122:6131   */\n      dup4\n        /* \"#utility.yul\":6118:6135   */\n      add\n        /* \"#utility.yul\":6111:6158   */\n      mstore\n        /* \"#utility.yul\":6175:6253   */\n      tag_210\n        /* \"#utility.yul\":6248:6252   */\n      dup2\n        /* \"#utility.yul\":6239:6245   */\n      dup7\n        /* \"#utility.yul\":6175:6253   */\n      tag_175\n      jump\t// in\n    tag_210:\n        /* \"#utility.yul\":6167:6253   */\n      swap1\n      pop\n        /* \"#utility.yul\":6263:6335   */\n      tag_211\n        /* \"#utility.yul\":6331:6333   */\n      0x20\n        /* \"#utility.yul\":6320:6329   */\n      dup4\n        /* \"#utility.yul\":6316:6334   */\n      add\n        /* \"#utility.yul\":6307:6313   */\n      dup6\n        /* \"#utility.yul\":6263:6335   */\n      tag_167\n      jump\t// in\n    tag_211:\n        /* \"#utility.yul\":6345:6417   */\n      tag_212\n        /* \"#utility.yul\":6413:6415   */\n      0x40\n        /* \"#utility.yul\":6402:6411   */\n      dup4\n        /* \"#utility.yul\":6398:6416   */\n      add\n        /* \"#utility.yul\":6389:6395   */\n      dup5\n        /* \"#utility.yul\":6345:6417   */\n      tag_197\n      jump\t// in\n    tag_212:\n        /* \"#utility.yul\":6065:6424   */\n      swap5\n      swap4\n      pop\n      pop\n      pop\n      pop\n      jump\t// out\n        /* \"#utility.yul\":6430:6963   */\n    tag_65:\n        /* \"#utility.yul\":6599:6603   */\n      0x00\n        /* \"#utility.yul\":6637:6639   */\n      0x60\n        /* \"#utility.yul\":6626:6635   */\n      dup3\n        /* \"#utility.yul\":6622:6640   */\n      add\n        /* \"#utility.yul\":6614:6640   */\n      swap1\n      pop\n        /* \"#utility.yul\":6686:6695   */\n      dup2\n        /* \"#utility.yul\":6680:6684   */\n      dup2\n        /* \"#utility.yul\":6676:6696   */\n      sub\n        /* \"#utility.yul\":6672:6673   */\n      0x00\n        /* \"#utility.yul\":6661:6670   */\n      dup4\n        /* \"#utility.yul\":6657:6674   */\n      add\n        /* \"#utility.yul\":6650:6697   */\n      mstore\n        /* \"#utility.yul\":6714:6792   */\n      tag_214\n        /* \"#utility.yul\":6787:6791   */\n      dup2\n        /* \"#utility.yul\":6778:6784   */\n      dup7\n        /* \"#utility.yul\":6714:6792   */\n      tag_175\n      jump\t// in\n    tag_214:\n        /* \"#utility.yul\":6706:6792   */\n      swap1\n      pop\n        /* \"#utility.yul\":6802:6874   */\n      tag_215\n        /* \"#utility.yul\":6870:6872   */\n      0x20\n        /* \"#utility.yul\":6859:6868   */\n      dup4\n        /* \"#utility.yul\":6855:6873   */\n      add\n        /* \"#utility.yul\":6846:6852   */\n      dup6\n        /* \"#utility.yul\":6802:6874   */\n      tag_197\n      jump\t// in\n    tag_215:\n        /* \"#utility.yul\":6884:6956   */\n      tag_216\n        /* \"#utility.yul\":6952:6954   */\n      0x40\n        /* \"#utility.yul\":6941:6950   */\n      dup4\n        /* \"#utility.yul\":6937:6955   */\n      add\n        /* \"#utility.yul\":6928:6934   */\n      dup5\n        /* \"#utility.yul\":6884:6956   */\n      tag_167\n      jump\t// in\n    tag_216:\n        /* \"#utility.yul\":6604:6963   */\n      swap5\n      swap4\n      pop\n      pop\n      pop\n      pop\n      jump\t// out\n        /* \"#utility.yul\":6969:7386   */\n    tag_70:\n        /* \"#utility.yul\":7107:7111   */\n      0x00\n        /* \"#utility.yul\":7145:7147   */\n      0x40\n        /* \"#utility.yul\":7134:7143   */\n      dup3\n        /* \"#utility.yul\":7130:7148   */\n      add\n        /* \"#utility.yul\":7122:7148   */\n      swap1\n      pop\n        /* \"#utility.yul\":7194:7203   */\n      dup2\n        /* \"#utility.yul\":7188:7192   */\n      dup2\n        /* \"#utility.yul\":7184:7204   */\n      sub\n        /* \"#utility.yul\":7180:7181   */\n      0x00\n        /* \"#utility.yul\":7169:7178   */\n      dup4\n        /* \"#utility.yul\":7165:7182   */\n      add\n        /* \"#utility.yul\":7158:7205   */\n      mstore\n        /* \"#utility.yul\":7222:7297   */\n      tag_218\n        /* \"#utility.yul\":7292:7296   */\n      dup2\n        /* \"#utility.yul\":7283:7289   */\n      dup6\n        /* \"#utility.yul\":7222:7297   */\n      tag_185\n      jump\t// in\n    tag_218:\n        /* \"#utility.yul\":7214:7297   */\n      swap1\n      pop\n        /* \"#utility.yul\":7307:7379   */\n      tag_219\n        /* \"#utility.yul\":7375:7377   */\n      0x20\n        /* \"#utility.yul\":7364:7373   */\n      dup4\n        /* \"#utility.yul\":7360:7378   */\n      add\n        /* \"#utility.yul\":7351:7357   */\n      dup5\n        /* \"#utility.yul\":7307:7379   */\n      tag_167\n      jump\t// in\n    tag_219:\n        /* \"#utility.yul\":7112:7386   */\n      swap4\n      swap3\n      pop\n      pop\n      pop\n      jump\t// out\n        /* \"#utility.yul\":7392:7614   */\n    tag_38:\n        /* \"#utility.yul\":7485:7489   */\n      0x00\n        /* \"#utility.yul\":7523:7525   */\n      0x20\n        /* \"#utility.yul\":7512:7521   */\n      dup3\n        /* \"#utility.yul\":7508:7526   */\n      add\n        /* \"#utility.yul\":7500:7526   */\n      swap1\n      pop\n        /* \"#utility.yul\":7536:7607   */\n      tag_221\n        /* \"#utility.yul\":7604:7605   */\n      0x00\n        /* \"#utility.yul\":7593:7602   */\n      dup4\n        /* \"#utility.yul\":7589:7606   */\n      add\n        /* \"#utility.yul\":7580:7586   */\n      dup5\n        /* \"#utility.yul\":7536:7607   */\n      tag_197\n      jump\t// in\n    tag_221:\n        /* \"#utility.yul\":7490:7614   */\n      swap3\n      swap2\n      pop\n      pop\n      jump\t// out\n        /* \"#utility.yul\":7620:7749   */\n    tag_127:\n        /* \"#utility.yul\":7654:7660   */\n      0x00\n        /* \"#utility.yul\":7681:7701   */\n      tag_223\n      tag_224\n      jump\t// in\n    tag_223:\n        /* \"#utility.yul\":7671:7701   */\n      swap1\n      pop\n        /* \"#utility.yul\":7710:7743   */\n      tag_225\n        /* \"#utility.yul\":7738:7742   */\n      dup3\n        /* \"#utility.yul\":7730:7736   */\n      dup3\n        /* \"#utility.yul\":7710:7743   */\n      tag_226\n      jump\t// in\n    tag_225:\n        /* \"#utility.yul\":7661:7749   */\n      swap2\n      swap1\n      pop\n      jump\t// out\n        /* \"#utility.yul\":7755:7830   */\n    tag_224:\n        /* \"#utility.yul\":7788:7794   */\n      0x00\n        /* \"#utility.yul\":7821:7823   */\n      0x40\n        /* \"#utility.yul\":7815:7824   */\n      mload\n        /* \"#utility.yul\":7805:7824   */\n      swap1\n      pop\n        /* \"#utility.yul\":7795:7830   */\n      swap1\n      jump\t// out\n        /* \"#utility.yul\":7836:8144   */\n    tag_126:\n        /* \"#utility.yul\":7898:7902   */\n      0x00\n        /* \"#utility.yul\":7988:8006   */\n      0xffffffffffffffff\n        /* \"#utility.yul\":7980:7986   */\n      dup3\n        /* \"#utility.yul\":7977:8007   */\n      gt\n        /* \"#utility.yul\":7974:7976   */\n      iszero\n      tag_229\n      jumpi\n        /* \"#utility.yul\":8010:8028   */\n      tag_230\n      tag_231\n      jump\t// in\n    tag_230:\n        /* \"#utility.yul\":7974:7976   */\n    tag_229:\n        /* \"#utility.yul\":8048:8077   */\n      tag_232\n        /* \"#utility.yul\":8070:8076   */\n      dup3\n        /* \"#utility.yul\":8048:8077   */\n      tag_184\n      jump\t// in\n    tag_232:\n        /* \"#utility.yul\":8040:8077   */\n      swap1\n      pop\n        /* \"#utility.yul\":8132:8136   */\n      0x20\n        /* \"#utility.yul\":8126:8130   */\n      dup2\n        /* \"#utility.yul\":8122:8137   */\n      add\n        /* \"#utility.yul\":8114:8137   */\n      swap1\n      pop\n        /* \"#utility.yul\":7903:8144   */\n      swap2\n      swap1\n      pop\n      jump\t// out\n        /* \"#utility.yul\":8150:8291   */\n    tag_193:\n        /* \"#utility.yul\":8199:8203   */\n      0x00\n        /* \"#utility.yul\":8222:8225   */\n      dup2\n        /* \"#utility.yul\":8214:8225   */\n      swap1\n      pop\n        /* \"#utility.yul\":8245:8248   */\n      dup2\n        /* \"#utility.yul\":8242:8243   */\n      0x00\n        /* \"#utility.yul\":8235:8249   */\n      mstore\n        /* \"#utility.yul\":8279:8283   */\n      0x20\n        /* \"#utility.yul\":8276:8277   */\n      0x00\n        /* \"#utility.yul\":8266:8284   */\n      keccak256\n        /* \"#utility.yul\":8258:8284   */\n      swap1\n      pop\n        /* \"#utility.yul\":8204:8291   */\n      swap2\n      swap1\n      pop\n      jump\t// out\n        /* \"#utility.yul\":8297:8396   */\n    tag_178:\n        /* \"#utility.yul\":8349:8355   */\n      0x00\n        /* \"#utility.yul\":8383:8388   */\n      dup2\n        /* \"#utility.yul\":8377:8389   */\n      mload\n        /* \"#utility.yul\":8367:8389   */\n      swap1\n      pop\n        /* \"#utility.yul\":8356:8396   */\n      swap2\n      swap1\n      pop\n      jump\t// out\n        /* \"#utility.yul\":8402:8571   */\n    tag_180:\n        /* \"#utility.yul\":8486:8497   */\n      0x00\n        /* \"#utility.yul\":8520:8526   */\n      dup3\n        /* \"#utility.yul\":8515:8518   */\n      dup3\n        /* \"#utility.yul\":8508:8527   */\n      mstore\n        /* \"#utility.yul\":8560:8564   */\n      0x20\n        /* \"#utility.yul\":8555:8558   */\n      dup3\n        /* \"#utility.yul\":8551:8565   */\n      add\n        /* \"#utility.yul\":8536:8565   */\n      swap1\n      pop\n        /* \"#utility.yul\":8498:8571   */\n      swap3\n      swap2\n      pop\n      pop\n      jump\t// out\n        /* \"#utility.yul\":8577:8673   */\n    tag_170:\n        /* \"#utility.yul\":8614:8621   */\n      0x00\n        /* \"#utility.yul\":8643:8667   */\n      tag_237\n        /* \"#utility.yul\":8661:8666   */\n      dup3\n        /* \"#utility.yul\":8643:8667   */\n      tag_238\n      jump\t// in\n    tag_237:\n        /* \"#utility.yul\":8632:8667   */\n      swap1\n      pop\n        /* \"#utility.yul\":8622:8673   */\n      swap2\n      swap1\n      pop\n      jump\t// out\n        /* \"#utility.yul\":8679:8769   */\n    tag_174:\n        /* \"#utility.yul\":8713:8720   */\n      0x00\n        /* \"#utility.yul\":8756:8761   */\n      dup2\n        /* \"#utility.yul\":8749:8762   */\n      iszero\n        /* \"#utility.yul\":8742:8763   */\n      iszero\n        /* \"#utility.yul\":8731:8763   */\n      swap1\n      pop\n        /* \"#utility.yul\":8721:8769   */\n      swap2\n      swap1\n      pop\n      jump\t// out\n        /* \"#utility.yul\":8775:8901   */\n    tag_238:\n        /* \"#utility.yul\":8812:8819   */\n      0x00\n        /* \"#utility.yul\":8852:8894   */\n      0xffffffffffffffffffffffffffffffffffffffff\n        /* \"#utility.yul\":8845:8850   */\n      dup3\n        /* \"#utility.yul\":8841:8895   */\n      and\n        /* \"#utility.yul\":8830:8895   */\n      swap1\n      pop\n        /* \"#utility.yul\":8820:8901   */\n      swap2\n      swap1\n      pop\n      jump\t// out\n        /* \"#utility.yul\":8907:8984   */\n    tag_200:\n        /* \"#utility.yul\":8944:8951   */\n      0x00\n        /* \"#utility.yul\":8973:8978   */\n      dup2\n        /* \"#utility.yul\":8962:8978   */\n      swap1\n      pop\n        /* \"#utility.yul\":8952:8984   */\n      swap2\n      swap1\n      pop\n      jump\t// out\n        /* \"#utility.yul\":8990:9144   */\n    tag_130:\n        /* \"#utility.yul\":9074:9080   */\n      dup3\n        /* \"#utility.yul\":9069:9072   */\n      dup2\n        /* \"#utility.yul\":9064:9067   */\n      dup4\n        /* \"#utility.yul\":9051:9081   */\n      calldatacopy\n        /* \"#utility.yul\":9136:9137   */\n      0x00\n        /* \"#utility.yul\":9127:9133   */\n      dup4\n        /* \"#utility.yul\":9122:9125   */\n      dup4\n        /* \"#utility.yul\":9118:9134   */\n      add\n        /* \"#utility.yul\":9111:9138   */\n      mstore\n        /* \"#utility.yul\":9041:9144   */\n      pop\n      pop\n      pop\n      jump\t// out\n        /* \"#utility.yul\":9150:9457   */\n    tag_182:\n        /* \"#utility.yul\":9218:9219   */\n      0x00\n        /* \"#utility.yul\":9228:9341   */\n    tag_244:\n        /* \"#utility.yul\":9242:9248   */\n      dup4\n        /* \"#utility.yul\":9239:9240   */\n      dup2\n        /* \"#utility.yul\":9236:9249   */\n      lt\n        /* \"#utility.yul\":9228:9341   */\n      iszero\n      tag_246\n      jumpi\n        /* \"#utility.yul\":9327:9328   */\n      dup1\n        /* \"#utility.yul\":9322:9325   */\n      dup3\n        /* \"#utility.yul\":9318:9329   */\n      add\n        /* \"#utility.yul\":9312:9330   */\n      mload\n        /* \"#utility.yul\":9308:9309   */\n      dup2\n        /* \"#utility.yul\":9303:9306   */\n      dup5\n        /* \"#utility.yul\":9299:9310   */\n      add\n        /* \"#utility.yul\":9292:9331   */\n      mstore\n        /* \"#utility.yul\":9264:9266   */\n      0x20\n        /* \"#utility.yul\":9261:9262   */\n      dup2\n        /* \"#utility.yul\":9257:9267   */\n      add\n        /* \"#utility.yul\":9252:9267   */\n      swap1\n      pop\n        /* \"#utility.yul\":9228:9341   */\n      jump(tag_244)\n    tag_246:\n        /* \"#utility.yul\":9359:9365   */\n      dup4\n        /* \"#utility.yul\":9356:9357   */\n      dup2\n        /* \"#utility.yul\":9353:9366   */\n      gt\n        /* \"#utility.yul\":9350:9352   */\n      iszero\n      tag_247\n      jumpi\n        /* \"#utility.yul\":9439:9440   */\n      0x00\n        /* \"#utility.yul\":9430:9436   */\n      dup5\n        /* \"#utility.yul\":9425:9428   */\n      dup5\n        /* \"#utility.yul\":9421:9437   */\n      add\n        /* \"#utility.yul\":9414:9441   */\n      mstore\n        /* \"#utility.yul\":9350:9352   */\n    tag_247:\n        /* \"#utility.yul\":9199:9457   */\n      pop\n      pop\n      pop\n      pop\n      jump\t// out\n        /* \"#utility.yul\":9463:9783   */\n    tag_83:\n        /* \"#utility.yul\":9507:9513   */\n      0x00\n        /* \"#utility.yul\":9544:9545   */\n      0x02\n        /* \"#utility.yul\":9538:9542   */\n      dup3\n        /* \"#utility.yul\":9534:9546   */\n      div\n        /* \"#utility.yul\":9524:9546   */\n      swap1\n      pop\n        /* \"#utility.yul\":9591:9592   */\n      0x01\n        /* \"#utility.yul\":9585:9589   */\n      dup3\n        /* \"#utility.yul\":9581:9593   */\n      and\n        /* \"#utility.yul\":9612:9630   */\n      dup1\n        /* \"#utility.yul\":9602:9604   */\n      tag_249\n      jumpi\n        /* \"#utility.yul\":9668:9672   */\n      0x7f\n        /* \"#utility.yul\":9660:9666   */\n      dup3\n        /* \"#utility.yul\":9656:9673   */\n      and\n        /* \"#utility.yul\":9646:9673   */\n      swap2\n      pop\n        /* \"#utility.yul\":9602:9604   */\n    tag_249:\n        /* \"#utility.yul\":9730:9732   */\n      0x20\n        /* \"#utility.yul\":9722:9728   */\n      dup3\n        /* \"#utility.yul\":9719:9733   */\n      lt\n        /* \"#utility.yul\":9699:9717   */\n      dup2\n        /* \"#utility.yul\":9696:9734   */\n      eq\n        /* \"#utility.yul\":9693:9695   */\n      iszero\n      tag_250\n      jumpi\n        /* \"#utility.yul\":9749:9767   */\n      tag_251\n      tag_252\n      jump\t// in\n    tag_251:\n        /* \"#utility.yul\":9693:9695   */\n    tag_250:\n        /* \"#utility.yul\":9514:9783   */\n      pop\n      swap2\n      swap1\n      pop\n      jump\t// out\n        /* \"#utility.yul\":9789:10070   */\n    tag_226:\n        /* \"#utility.yul\":9872:9899   */\n      tag_254\n        /* \"#utility.yul\":9894:9898   */\n      dup3\n        /* \"#utility.yul\":9872:9899   */\n      tag_184\n      jump\t// in\n    tag_254:\n        /* \"#utility.yul\":9864:9870   */\n      dup2\n        /* \"#utility.yul\":9860:9900   */\n      add\n        /* \"#utility.yul\":10002:10008   */\n      dup2\n        /* \"#utility.yul\":9990:10000   */\n      dup2\n        /* \"#utility.yul\":9987:10009   */\n      lt\n        /* \"#utility.yul\":9966:9984   */\n      0xffffffffffffffff\n        /* \"#utility.yul\":9954:9964   */\n      dup3\n        /* \"#utility.yul\":9951:9985   */\n      gt\n        /* \"#utility.yul\":9948:10010   */\n      or\n        /* \"#utility.yul\":9945:9947   */\n      iszero\n      tag_255\n      jumpi\n        /* \"#utility.yul\":10013:10031   */\n      tag_256\n      tag_231\n      jump\t// in\n    tag_256:\n        /* \"#utility.yul\":9945:9947   */\n    tag_255:\n        /* \"#utility.yul\":10053:10063   */\n      dup1\n        /* \"#utility.yul\":10049:10051   */\n      0x40\n        /* \"#utility.yul\":10042:10064   */\n      mstore\n        /* \"#utility.yul\":9832:10070   */\n      pop\n      pop\n      pop\n      jump\t// out\n        /* \"#utility.yul\":10076:10309   */\n    tag_101:\n        /* \"#utility.yul\":10115:10118   */\n      0x00\n        /* \"#utility.yul\":10138:10162   */\n      tag_258\n        /* \"#utility.yul\":10156:10161   */\n      dup3\n        /* \"#utility.yul\":10138:10162   */\n      tag_200\n      jump\t// in\n    tag_258:\n        /* \"#utility.yul\":10129:10162   */\n      swap2\n      pop\n        /* \"#utility.yul\":10184:10250   */\n      0xffffffffffffffffffffffffffffffffffffffffffffffffffffffffffffffff\n        /* \"#utility.yul\":10177:10182   */\n      dup3\n        /* \"#utility.yul\":10174:10251   */\n      eq\n        /* \"#utility.yul\":10171:10173   */\n      iszero\n      tag_259\n      jumpi\n        /* \"#utility.yul\":10254:10272   */\n      tag_260\n      tag_261\n      jump\t// in\n    tag_260:\n        /* \"#utility.yul\":10171:10173   */\n    tag_259:\n        /* \"#utility.yul\":10301:10302   */\n      0x01\n        /* \"#utility.yul\":10294:10299   */\n      dup3\n        /* \"#utility.yul\":10290:10303   */\n      add\n        /* \"#utility.yul\":10283:10303   */\n      swap1\n      pop\n        /* \"#utility.yul\":10119:10309   */\n      swap2\n      swap1\n      pop\n      jump\t// out\n        /* \"#utility.yul\":10315:10495   */\n    tag_261:\n        /* \"#utility.yul\":10363:10440   */\n      0x4e487b7100000000000000000000000000000000000000000000000000000000\n        /* \"#utility.yul\":10360:10361   */\n      0x00\n        /* \"#utility.yul\":10353:10441   */\n      mstore\n        /* \"#utility.yul\":10460:10464   */\n      0x11\n        /* \"#utility.yul\":10457:10458   */\n      0x04\n        /* \"#utility.yul\":10450:10465   */\n      mstore\n        /* \"#utility.yul\":10484:10488   */\n      0x24\n        /* \"#utility.yul\":10481:10482   */\n      0x00\n        /* \"#utility.yul\":10474:10489   */\n      revert\n        /* \"#utility.yul\":10501:10681   */\n    tag_252:\n        /* \"#utility.yul\":10549:10626   */\n      0x4e487b7100000000000000000000000000000000000000000000000000000000\n        /* \"#utility.yul\":10546:10547   */\n      0x00\n        /* \"#utility.yul\":10539:10627   */\n      mstore\n        /* \"#utility.yul\":10646:10650   */\n      0x22\n        /* \"#utility.yul\":10643:10644   */\n      0x04\n        /* \"#utility.yul\":10636:10651   */\n      mstore\n        /* \"#utility.yul\":10670:10674   */\n      0x24\n        /* \"#utility.yul\":10667:10668   */\n      0x00\n        /* \"#utility.yul\":10660:10675   */\n      revert\n        /* \"#utility.yul\":10687:10867   */\n    tag_231:\n        /* \"#utility.yul\":10735:10812   */\n      0x4e487b7100000000000000000000000000000000000000000000000000000000\n        /* \"#utility.yul\":10732:10733   */\n      0x00\n        /* \"#utility.yul\":10725:10813   */\n      mstore\n        /* \"#utility.yul\":10832:10836   */\n      0x41\n        /* \"#utility.yul\":10829:10830   */\n      0x04\n        /* \"#utility.yul\":10822:10837   */\n      mstore\n        /* \"#utility.yul\":10856:10860   */\n      0x24\n        /* \"#utility.yul\":10853:10854   */\n      0x00\n        /* \"#utility.yul\":10846:10861   */\n      revert\n        /* \"#utility.yul\":10873:10975   */\n    tag_184:\n        /* \"#utility.yul\":10914:10920   */\n      0x00\n        /* \"#utility.yul\":10965:10967   */\n      0x1f\n        /* \"#utility.yul\":10961:10968   */\n      not\n        /* \"#utility.yul\":10956:10958   */\n      0x1f\n        /* \"#utility.yul\":10949:10954   */\n      dup4\n        /* \"#utility.yul\":10945:10959   */\n      add\n        /* \"#utility.yul\":10941:10969   */\n      and\n        /* \"#utility.yul\":10931:10969   */\n      swap1\n      pop\n        /* \"#utility.yul\":10921:10975   */\n      swap2\n      swap1\n      pop\n      jump\t// out\n        /* \"#utility.yul\":10981:11103   */\n    tag_134:\n        /* \"#utility.yul\":11054:11078   */\n      tag_267\n        /* \"#utility.yul\":11072:11077   */\n      dup2\n        /* \"#utility.yul\":11054:11078   */\n      tag_170\n      jump\t// in\n    tag_267:\n        /* \"#utility.yul\":11047:11052   */\n      dup2\n        /* \"#utility.yul\":11044:11079   */\n      eq\n        /* \"#utility.yul\":11034:11036   */\n      tag_268\n      jumpi\n        /* \"#utility.yul\":11093:11094   */\n      0x00\n        /* \"#utility.yul\":11090:11091   */\n      dup1\n        /* \"#utility.yul\":11083:11095   */\n      revert\n        /* \"#utility.yul\":11034:11036   */\n    tag_268:\n        /* \"#utility.yul\":11024:11103   */\n      pop\n      jump\t// out\n        /* \"#utility.yul\":11109:11231   */\n    tag_142:\n        /* \"#utility.yul\":11182:11206   */\n      tag_270\n        /* \"#utility.yul\":11200:11205   */\n      dup2\n        /* \"#utility.yul\":11182:11206   */\n      tag_200\n      jump\t// in\n    tag_270:\n        /* \"#utility.yul\":11175:11180   */\n      dup2\n        /* \"#utility.yul\":11172:11207   */\n      eq\n        /* \"#utility.yul\":11162:11164   */\n      tag_271\n      jumpi\n        /* \"#utility.yul\":11221:11222   */\n      0x00\n        /* \"#utility.yul\":11218:11219   */\n      dup1\n        /* \"#utility.yul\":11211:11223   */\n      revert\n        /* \"#utility.yul\":11162:11164   */\n    tag_271:\n        /* \"#utility.yul\":11152:11231   */\n      pop\n      jump\t// out\n\n    auxdata: 0xa2646970667358221220eb27c8e46c803e9d8d9bc404e84821a05dd1e8b7588e0dae6764b7797f8bc75664736f6c63430008040033\n}\n",
    "bytecode": {
      "linkReferences": {},
      "object": "608060405234801561001057600080fd5b506113b5806100206000396000f3fe608060405234801561001057600080fd5b50600436106100a95760003560e01c8063aee1446011610071578063aee1446014610178578063b5fdcfa3146101aa578063d6f8307f146101c6578063de58f1b6146101f6578063eecd6bc214610214578063f0ba844014610230576100a9565b806319a32989146100ae5780631da000ec146100ca5780632eeca2cc146100e65780639089add8146101165780639a5e5b7714610148575b600080fd5b6100c860048036038101906100c39190610e34565b610262565b005b6100e460048036038101906100df9190610e5d565b6103bf565b005b61010060048036038101906100fb9190610e34565b61049d565b60405161010d9190610fbb565b60405180910390f35b610130600480360381019061012b9190610e99565b6104dc565b60405161013f93929190610ff1565b60405180910390f35b610162600480360381019061015d9190610e34565b610759565b60405161016f91906110db565b60405180910390f35b610192600480360381019061018d9190610e34565b610779565b6040516101a19392919061102f565b60405180910390f35b6101c460048036038101906101bf9190610dcd565b61085d565b005b6101e060048036038101906101db9190610d63565b610a30565b6040516101ed9190610fd6565b60405180910390f35b6101fe610a50565b60405161020b91906110db565b60405180910390f35b61022e60048036038101906102299190610d8c565b610a56565b005b61024a60048036038101906102459190610e34565b610b5c565b6040516102599392919061106d565b60405180910390f35b3373ffffffffffffffffffffffffffffffffffffffff166004600083815260200190815260200160002060050160009054906101000a900473ffffffffffffffffffffffffffffffffffffffff1673ffffffffffffffffffffffffffffffffffffffff16148061032f57506004600082815260200190815260200160002060030160003373ffffffffffffffffffffffffffffffffffffffff1673ffffffffffffffffffffffffffffffffffffffff16815260200190815260200160002060009054906101000a900460ff165b61033857600080fd5b7f5dd8f520b99936208713d8c2be2e573016bbd1c7ebc3bba173d637bbf9f5e880600460008381526020019081526020016000206000016004600084815260200190815260200160002060050160009054906101000a900473ffffffffffffffffffffffffffffffffffffffff166040516103b49291906110ab565b60405180910390a150565b3373ffffffffffffffffffffffffffffffffffffffff166004600084815260200190815260200160002060050160009054906101000a900473ffffffffffffffffffffffffffffffffffffffff1673ffffffffffffffffffffffffffffffffffffffff161461042d57600080fd5b60016004600084815260200190815260200160002060030160008373ffffffffffffffffffffffffffffffffffffffff1673ffffffffffffffffffffffffffffffffffffffff16815260200190815260200160002060006101000a81548160ff0219169083151502179055505050565b600081815481106104ad57600080fd5b906000526020600020016000915054906101000a900473ffffffffffffffffffffffffffffffffffffffff1681565b6060600080600460008681526020019081526020016000206002016000808681548110610532577f4e487b7100000000000000000000000000000000000000000000000000000000600052603260045260246000fd5b9060005260206000200160009054906101000a900473ffffffffffffffffffffffffffffffffffffffff1673ffffffffffffffffffffffffffffffffffffffff1673ffffffffffffffffffffffffffffffffffffffff168152602001908152602001600020600085815481106105d1577f4e487b7100000000000000000000000000000000000000000000000000000000600052603260045260246000fd5b9060005260206000200160009054906101000a900473ffffffffffffffffffffffffffffffffffffffff1660046000888152602001908152602001600020600301600080888154811061064d577f4e487b7100000000000000000000000000000000000000000000000000000000600052603260045260246000fd5b9060005260206000200160009054906101000a900473ffffffffffffffffffffffffffffffffffffffff1673ffffffffffffffffffffffffffffffffffffffff1673ffffffffffffffffffffffffffffffffffffffff16815260200190815260200160002060009054906101000a900460ff168280546106cc90611207565b80601f01602080910402602001604051908101604052809291908181526020018280546106f890611207565b80156107455780601f1061071a57610100808354040283529160200191610745565b820191906000526020600020905b81548152906001019060200180831161072857829003601f168201915b505050505092509250925092509250925092565b600060046000838152602001908152602001600020600401549050919050565b60606000806000600460008681526020019081526020016000209050806000018160050160009054906101000a900473ffffffffffffffffffffffffffffffffffffffff1682600401548280546107cf90611207565b80601f01602080910402602001604051908101604052809291908181526020018280546107fb90611207565b80156108485780601f1061081d57610100808354040283529160200191610848565b820191906000526020600020905b81548152906001019060200180831161082b57829003601f168201915b50505050509250935093509350509193909250565b6004600082815260200190815260200160002060010160008373ffffffffffffffffffffffffffffffffffffffff1673ffffffffffffffffffffffffffffffffffffffff16815260200190815260200160002060009054906101000a900460ff16156108c857600080fd5b6000829080600181540180825580915050600190039060005260206000200160009091909190916101000a81548173ffffffffffffffffffffffffffffffffffffffff021916908373ffffffffffffffffffffffffffffffffffffffff160217905550826004600083815260200190815260200160002060020160008473ffffffffffffffffffffffffffffffffffffffff1673ffffffffffffffffffffffffffffffffffffffff1681526020019081526020016000209080519060200190610992929190610c2e565b5060016004600083815260200190815260200160002060010160008473ffffffffffffffffffffffffffffffffffffffff1673ffffffffffffffffffffffffffffffffffffffff16815260200190815260200160002060006101000a81548160ff021916908315150217905550600460008281526020019081526020016000206004016000815480929190610a269061126a565b9190505550505050565b60016020528060005260406000206000915054906101000a900460ff1681565b60025481565b60018060003373ffffffffffffffffffffffffffffffffffffffff1673ffffffffffffffffffffffffffffffffffffffff16815260200190815260200160002060006101000a81548160ff02191690831515021790555060026000815480929190610ac09061126a565b919050555060006004600060036000815480929190610ade9061126a565b919050558152602001908152602001600020905081816000019080519060200190610b0a929190610c2e565b5060008160040181905550338160050160006101000a81548173ffffffffffffffffffffffffffffffffffffffff021916908373ffffffffffffffffffffffffffffffffffffffff1602179055505050565b6004602052806000526040600020600091509050806000018054610b7f90611207565b80601f0160208091040260200160405190810160405280929190818152602001828054610bab90611207565b8015610bf85780601f10610bcd57610100808354040283529160200191610bf8565b820191906000526020600020905b815481529060010190602001808311610bdb57829003601f168201915b5050505050908060040154908060050160009054906101000a900473ffffffffffffffffffffffffffffffffffffffff16905083565b828054610c3a90611207565b90600052602060002090601f016020900481019282610c5c5760008555610ca3565b82601f10610c7557805160ff1916838001178555610ca3565b82800160010185558215610ca3579182015b82811115610ca2578251825591602001919060010190610c87565b5b509050610cb09190610cb4565b5090565b5b80821115610ccd576000816000905550600101610cb5565b5090565b6000610ce4610cdf8461111b565b6110f6565b905082815260208101848484011115610cfc57600080fd5b610d078482856111c5565b509392505050565b600081359050610d1e81611351565b92915050565b600082601f830112610d3557600080fd5b8135610d45848260208601610cd1565b91505092915050565b600081359050610d5d81611368565b92915050565b600060208284031215610d7557600080fd5b6000610d8384828501610d0f565b91505092915050565b600060208284031215610d9e57600080fd5b600082013567ffffffffffffffff811115610db857600080fd5b610dc484828501610d24565b91505092915050565b600080600060608486031215610de257600080fd5b600084013567ffffffffffffffff811115610dfc57600080fd5b610e0886828701610d24565b9350506020610e1986828701610d0f565b9250506040610e2a86828701610d4e565b9150509250925092565b600060208284031215610e4657600080fd5b6000610e5484828501610d4e565b91505092915050565b60008060408385031215610e7057600080fd5b6000610e7e85828601610d4e565b9250506020610e8f85828601610d0f565b9150509250929050565b60008060408385031215610eac57600080fd5b6000610eba85828601610d4e565b9250506020610ecb85828601610d4e565b9150509250929050565b610ede8161117d565b82525050565b610eed8161118f565b82525050565b6000610efe82611161565b610f08818561116c565b9350610f188185602086016111d4565b610f2181611340565b840191505092915050565b60008154610f3981611207565b610f43818661116c565b94506001821660008114610f5e5760018114610f7057610fa3565b60ff1983168652602086019350610fa3565b610f798561114c565b60005b83811015610f9b57815481890152600182019150602081019050610f7c565b808801955050505b50505092915050565b610fb5816111bb565b82525050565b6000602082019050610fd06000830184610ed5565b92915050565b6000602082019050610feb6000830184610ee4565b92915050565b6000606082019050818103600083015261100b8186610ef3565b905061101a6020830185610ed5565b6110276040830184610ee4565b949350505050565b600060608201905081810360008301526110498186610ef3565b90506110586020830185610ed5565b6110656040830184610fac565b949350505050565b600060608201905081810360008301526110878186610ef3565b90506110966020830185610fac565b6110a36040830184610ed5565b949350505050565b600060408201905081810360008301526110c58185610f2c565b90506110d46020830184610ed5565b9392505050565b60006020820190506110f06000830184610fac565b92915050565b6000611100611111565b905061110c8282611239565b919050565b6000604051905090565b600067ffffffffffffffff82111561113657611135611311565b5b61113f82611340565b9050602081019050919050565b60008190508160005260206000209050919050565b600081519050919050565b600082825260208201905092915050565b60006111888261119b565b9050919050565b60008115159050919050565b600073ffffffffffffffffffffffffffffffffffffffff82169050919050565b6000819050919050565b82818337600083830152505050565b60005b838110156111f25780820151818401526020810190506111d7565b83811115611201576000848401525b50505050565b6000600282049050600182168061121f57607f821691505b60208210811415611233576112326112e2565b5b50919050565b61124282611340565b810181811067ffffffffffffffff8211171561126157611260611311565b5b80604052505050565b6000611275826111bb565b91507fffffffffffffffffffffffffffffffffffffffffffffffffffffffffffffffff8214156112a8576112a76112b3565b5b600182019050919050565b7f4e487b7100000000000000000000000000000000000000000000000000000000600052601160045260246000fd5b7f4e487b7100000000000000000000000000000000000000000000000000000000600052602260045260246000fd5b7f4e487b7100000000000000000000000000000000000000000000000000000000600052604160045260246000fd5b6000601f19601f8301169050919050565b61135a8161117d565b811461136557600080fd5b50565b611371816111bb565b811461137c57600080fd5b5056fea2646970667358221220eb27c8e46c803e9d8d9bc404e84821a05dd1e8b7588e0dae6764b7797f8bc75664736f6c63430008040033",
      "opcodes": "PUSH1 0x80 PUSH1 0x40 MSTORE CALLVALUE DUP1 ISZERO PUSH2 0x10 JUMPI PUSH1 0x0 DUP1 REVERT JUMPDEST POP PUSH2 0x13B5 DUP1 PUSH2 0x20 PUSH1 0x0 CODECOPY PUSH1 0x0 RETURN INVALID PUSH1 0x80 PUSH1 0x40 MSTORE CALLVALUE DUP1 ISZERO PUSH2 0x10 JUMPI PUSH1 0x0 DUP1 REVERT JUMPDEST POP PUSH1 0x4 CALLDATASIZE LT PUSH2 0xA9 JUMPI PUSH1 0x0 CALLDATALOAD PUSH1 0xE0 SHR DUP1 PUSH4 0xAEE14460 GT PUSH2 0x71 JUMPI DUP1 PUSH4 0xAEE14460 EQ PUSH2 0x178 JUMPI DUP1 PUSH4 0xB5FDCFA3 EQ PUSH2 0x1AA JUMPI DUP1 PUSH4 0xD6F8307F EQ PUSH2 0x1C6 JUMPI DUP1 PUSH4 0xDE58F1B6 EQ PUSH2 0x1F6 JUMPI DUP1 PUSH4 0xEECD6BC2 EQ PUSH2 0x214 JUMPI DUP1 PUSH4 0xF0BA8440 EQ PUSH2 0x230 JUMPI PUSH2 0xA9 JUMP JUMPDEST DUP1 PUSH4 0x19A32989 EQ PUSH2 0xAE JUMPI DUP1 PUSH4 0x1DA000EC EQ PUSH2 0xCA JUMPI DUP1 PUSH4 0x2EECA2CC EQ PUSH2 0xE6 JUMPI DUP1 PUSH4 0x9089ADD8 EQ PUSH2 0x116 JUMPI DUP1 PUSH4 0x9A5E5B77 EQ PUSH2 0x148 JUMPI JUMPDEST PUSH1 0x0 DUP1 REVERT JUMPDEST PUSH2 0xC8 PUSH1 0x4 DUP1 CALLDATASIZE SUB DUP2 ADD SWAP1 PUSH2 0xC3 SWAP2 SWAP1 PUSH2 0xE34 JUMP JUMPDEST PUSH2 0x262 JUMP JUMPDEST STOP JUMPDEST PUSH2 0xE4 PUSH1 0x4 DUP1 CALLDATASIZE SUB DUP2 ADD SWAP1 PUSH2 0xDF SWAP2 SWAP1 PUSH2 0xE5D JUMP JUMPDEST PUSH2 0x3BF JUMP JUMPDEST STOP JUMPDEST PUSH2 0x100 PUSH1 0x4 DUP1 CALLDATASIZE SUB DUP2 ADD SWAP1 PUSH2 0xFB SWAP2 SWAP1 PUSH2 0xE34 JUMP JUMPDEST PUSH2 0x49D JUMP JUMPDEST PUSH1 0x40 MLOAD PUSH2 0x10D SWAP2 SWAP1 PUSH2 0xFBB JUMP JUMPDEST PUSH1 0x40 MLOAD DUP1 SWAP2 SUB SWAP1 RETURN JUMPDEST PUSH2 0x130 PUSH1 0x4 DUP1 CALLDATASIZE SUB DUP2 ADD SWAP1 PUSH2 0x12B SWAP2 SWAP1 PUSH2 0xE99 JUMP JUMPDEST PUSH2 0x4DC JUMP JUMPDEST PUSH1 0x40 MLOAD PUSH2 0x13F SWAP4 SWAP3 SWAP2 SWAP1 PUSH2 0xFF1 JUMP JUMPDEST PUSH1 0x40 MLOAD DUP1 SWAP2 SUB SWAP1 RETURN JUMPDEST PUSH2 0x162 PUSH1 0x4 DUP1 CALLDATASIZE SUB DUP2 ADD SWAP1 PUSH2 0x15D SWAP2 SWAP1 PUSH2 0xE34 JUMP JUMPDEST PUSH2 0x759 JUMP JUMPDEST PUSH1 0x40 MLOAD PUSH2 0x16F SWAP2 SWAP1 PUSH2 0x10DB JUMP JUMPDEST PUSH1 0x40 MLOAD DUP1 SWAP2 SUB SWAP1 RETURN JUMPDEST PUSH2 0x192 PUSH1 0x4 DUP1 CALLDATASIZE SUB DUP2 ADD SWAP1 PUSH2 0x18D SWAP2 SWAP1 PUSH2 0xE34 JUMP JUMPDEST PUSH2 0x779 JUMP JUMPDEST PUSH1 0x40 MLOAD PUSH2 0x1A1 SWAP4 SWAP3 SWAP2 SWAP1 PUSH2 0x102F JUMP JUMPDEST PUSH1 0x40 MLOAD DUP1 SWAP2 SUB SWAP1 RETURN JUMPDEST PUSH2 0x1C4 PUSH1 0x4 DUP1 CALLDATASIZE SUB DUP2 ADD SWAP1 PUSH2 0x1BF SWAP2 SWAP1 PUSH2 0xDCD JUMP JUMPDEST PUSH2 0x85D JUMP JUMPDEST STOP JUMPDEST PUSH2 0x1E0 PUSH1 0x4 DUP1 CALLDATASIZE SUB DUP2 ADD SWAP1 PUSH2 0x1DB SWAP2 SWAP1 PUSH2 0xD63 JUMP JUMPDEST PUSH2 0xA30 JUMP JUMPDEST PUSH1 0x40 MLOAD PUSH2 0x1ED SWAP2 SWAP1 PUSH2 0xFD6 JUMP JUMPDEST PUSH1 0x40 MLOAD DUP1 SWAP2 SUB SWAP1 RETURN JUMPDEST PUSH2 0x1FE PUSH2 0xA50 JUMP JUMPDEST PUSH1 0x40 MLOAD PUSH2 0x20B SWAP2 SWAP1 PUSH2 0x10DB JUMP JUMPDEST PUSH1 0x40 MLOAD DUP1 SWAP2 SUB SWAP1 RETURN JUMPDEST PUSH2 0x22E PUSH1 0x4 DUP1 CALLDATASIZE SUB DUP2 ADD SWAP1 PUSH2 0x229 SWAP2 SWAP1 PUSH2 0xD8C JUMP JUMPDEST PUSH2 0xA56 JUMP JUMPDEST STOP JUMPDEST PUSH2 0x24A PUSH1 0x4 DUP1 CALLDATASIZE SUB DUP2 ADD SWAP1 PUSH2 0x245 SWAP2 SWAP1 PUSH2 0xE34 JUMP JUMPDEST PUSH2 0xB5C JUMP JUMPDEST PUSH1 0x40 MLOAD PUSH2 0x259 SWAP4 SWAP3 SWAP2 SWAP1 PUSH2 0x106D JUMP JUMPDEST PUSH1 0x40 MLOAD DUP1 SWAP2 SUB SWAP1 RETURN JUMPDEST CALLER PUSH20 0xFFFFFFFFFFFFFFFFFFFFFFFFFFFFFFFFFFFFFFFF AND PUSH1 0x4 PUSH1 0x0 DUP4 DUP2 MSTORE PUSH1 0x20 ADD SWAP1 DUP2 MSTORE PUSH1 0x20 ADD PUSH1 0x0 KECCAK256 PUSH1 0x5 ADD PUSH1 0x0 SWAP1 SLOAD SWAP1 PUSH2 0x100 EXP SWAP1 DIV PUSH20 0xFFFFFFFFFFFFFFFFFFFFFFFFFFFFFFFFFFFFFFFF AND PUSH20 0xFFFFFFFFFFFFFFFFFFFFFFFFFFFFFFFFFFFFFFFF AND EQ DUP1 PUSH2 0x32F JUMPI POP PUSH1 0x4 PUSH1 0x0 DUP3 DUP2 MSTORE PUSH1 0x20 ADD SWAP1 DUP2 MSTORE PUSH1 0x20 ADD PUSH1 0x0 KECCAK256 PUSH1 0x3 ADD PUSH1 0x0 CALLER PUSH20 0xFFFFFFFFFFFFFFFFFFFFFFFFFFFFFFFFFFFFFFFF AND PUSH20 0xFFFFFFFFFFFFFFFFFFFFFFFFFFFFFFFFFFFFFFFF AND DUP2 MSTORE PUSH1 0x20 ADD SWAP1 DUP2 MSTORE PUSH1 0x20 ADD PUSH1 0x0 KECCAK256 PUSH1 0x0 SWAP1 SLOAD SWAP1 PUSH2 0x100 EXP SWAP1 DIV PUSH1 0xFF AND JUMPDEST PUSH2 0x338 JUMPI PUSH1 0x0 DUP1 REVERT JUMPDEST PUSH32 0x5DD8F520B99936208713D8C2BE2E573016BBD1C7EBC3BBA173D637BBF9F5E880 PUSH1 0x4 PUSH1 0x0 DUP4 DUP2 MSTORE PUSH1 0x20 ADD SWAP1 DUP2 MSTORE PUSH1 0x20 ADD PUSH1 0x0 KECCAK256 PUSH1 0x0 ADD PUSH1 0x4 PUSH1 0x0 DUP5 DUP2 MSTORE PUSH1 0x20 ADD SWAP1 DUP2 MSTORE PUSH1 0x20 ADD PUSH1 0x0 KECCAK256 PUSH1 0x5 ADD PUSH1 0x0 SWAP1 SLOAD SWAP1 PUSH2 0x100 EXP SWAP1 DIV PUSH20 0xFFFFFFFFFFFFFFFFFFFFFFFFFFFFFFFFFFFFFFFF AND PUSH1 0x40 MLOAD PUSH2 0x3B4 SWAP3 SWAP2 SWAP1 PUSH2 0x10AB JUMP JUMPDEST PUSH1 0x40 MLOAD DUP1 SWAP2 SUB SWAP1 LOG1 POP JUMP JUMPDEST CALLER PUSH20 0xFFFFFFFFFFFFFFFFFFFFFFFFFFFFFFFFFFFFFFFF AND PUSH1 0x4 PUSH1 0x0 DUP5 DUP2 MSTORE PUSH1 0x20 ADD SWAP1 DUP2 MSTORE PUSH1 0x20 ADD PUSH1 0x0 KECCAK256 PUSH1 0x5 ADD PUSH1 0x0 SWAP1 SLOAD SWAP1 PUSH2 0x100 EXP SWAP1 DIV PUSH20 0xFFFFFFFFFFFFFFFFFFFFFFFFFFFFFFFFFFFFFFFF AND PUSH20 0xFFFFFFFFFFFFFFFFFFFFFFFFFFFFFFFFFFFFFFFF AND EQ PUSH2 0x42D JUMPI PUSH1 0x0 DUP1 REVERT JUMPDEST PUSH1 0x1 PUSH1 0x4 PUSH1 0x0 DUP5 DUP2 MSTORE PUSH1 0x20 ADD SWAP1 DUP2 MSTORE PUSH1 0x20 ADD PUSH1 0x0 KECCAK256 PUSH1 0x3 ADD PUSH1 0x0 DUP4 PUSH20 0xFFFFFFFFFFFFFFFFFFFFFFFFFFFFFFFFFFFFFFFF AND PUSH20 0xFFFFFFFFFFFFFFFFFFFFFFFFFFFFFFFFFFFFFFFF AND DUP2 MSTORE PUSH1 0x20 ADD SWAP1 DUP2 MSTORE PUSH1 0x20 ADD PUSH1 0x0 KECCAK256 PUSH1 0x0 PUSH2 0x100 EXP DUP2 SLOAD DUP2 PUSH1 0xFF MUL NOT AND SWAP1 DUP4 ISZERO ISZERO MUL OR SWAP1 SSTORE POP POP POP JUMP JUMPDEST PUSH1 0x0 DUP2 DUP2 SLOAD DUP2 LT PUSH2 0x4AD JUMPI PUSH1 0x0 DUP1 REVERT JUMPDEST SWAP1 PUSH1 0x0 MSTORE PUSH1 0x20 PUSH1 0x0 KECCAK256 ADD PUSH1 0x0 SWAP2 POP SLOAD SWAP1 PUSH2 0x100 EXP SWAP1 DIV PUSH20 0xFFFFFFFFFFFFFFFFFFFFFFFFFFFFFFFFFFFFFFFF AND DUP2 JUMP JUMPDEST PUSH1 0x60 PUSH1 0x0 DUP1 PUSH1 0x4 PUSH1 0x0 DUP7 DUP2 MSTORE PUSH1 0x20 ADD SWAP1 DUP2 MSTORE PUSH1 0x20 ADD PUSH1 0x0 KECCAK256 PUSH1 0x2 ADD PUSH1 0x0 DUP1 DUP7 DUP2 SLOAD DUP2 LT PUSH2 0x532 JUMPI PUSH32 0x4E487B7100000000000000000000000000000000000000000000000000000000 PUSH1 0x0 MSTORE PUSH1 0x32 PUSH1 0x4 MSTORE PUSH1 0x24 PUSH1 0x0 REVERT JUMPDEST SWAP1 PUSH1 0x0 MSTORE PUSH1 0x20 PUSH1 0x0 KECCAK256 ADD PUSH1 0x0 SWAP1 SLOAD SWAP1 PUSH2 0x100 EXP SWAP1 DIV PUSH20 0xFFFFFFFFFFFFFFFFFFFFFFFFFFFFFFFFFFFFFFFF AND PUSH20 0xFFFFFFFFFFFFFFFFFFFFFFFFFFFFFFFFFFFFFFFF AND PUSH20 0xFFFFFFFFFFFFFFFFFFFFFFFFFFFFFFFFFFFFFFFF AND DUP2 MSTORE PUSH1 0x20 ADD SWAP1 DUP2 MSTORE PUSH1 0x20 ADD PUSH1 0x0 KECCAK256 PUSH1 0x0 DUP6 DUP2 SLOAD DUP2 LT PUSH2 0x5D1 JUMPI PUSH32 0x4E487B7100000000000000000000000000000000000000000000000000000000 PUSH1 0x0 MSTORE PUSH1 0x32 PUSH1 0x4 MSTORE PUSH1 0x24 PUSH1 0x0 REVERT JUMPDEST SWAP1 PUSH1 0x0 MSTORE PUSH1 0x20 PUSH1 0x0 KECCAK256 ADD PUSH1 0x0 SWAP1 SLOAD SWAP1 PUSH2 0x100 EXP SWAP1 DIV PUSH20 0xFFFFFFFFFFFFFFFFFFFFFFFFFFFFFFFFFFFFFFFF AND PUSH1 0x4 PUSH1 0x0 DUP9 DUP2 MSTORE PUSH1 0x20 ADD SWAP1 DUP2 MSTORE PUSH1 0x20 ADD PUSH1 0x0 KECCAK256 PUSH1 0x3 ADD PUSH1 0x0 DUP1 DUP9 DUP2 SLOAD DUP2 LT PUSH2 0x64D JUMPI PUSH32 0x4E487B7100000000000000000000000000000000000000000000000000000000 PUSH1 0x0 MSTORE PUSH1 0x32 PUSH1 0x4 MSTORE PUSH1 0x24 PUSH1 0x0 REVERT JUMPDEST SWAP1 PUSH1 0x0 MSTORE PUSH1 0x20 PUSH1 0x0 KECCAK256 ADD PUSH1 0x0 SWAP1 SLOAD SWAP1 PUSH2 0x100 EXP SWAP1 DIV PUSH20 0xFFFFFFFFFFFFFFFFFFFFFFFFFFFFFFFFFFFFFFFF AND PUSH20 0xFFFFFFFFFFFFFFFFFFFFFFFFFFFFFFFFFFFFFFFF AND PUSH20 0xFFFFFFFFFFFFFFFFFFFFFFFFFFFFFFFFFFFFFFFF AND DUP2 MSTORE PUSH1 0x20 ADD SWAP1 DUP2 MSTORE PUSH1 0x20 ADD PUSH1 0x0 KECCAK256 PUSH1 0x0 SWAP1 SLOAD SWAP1 PUSH2 0x100 EXP SWAP1 DIV PUSH1 0xFF AND DUP3 DUP1 SLOAD PUSH2 0x6CC SWAP1 PUSH2 0x1207 JUMP JUMPDEST DUP1 PUSH1 0x1F ADD PUSH1 0x20 DUP1 SWAP2 DIV MUL PUSH1 0x20 ADD PUSH1 0x40 MLOAD SWAP1 DUP2 ADD PUSH1 0x40 MSTORE DUP1 SWAP3 SWAP2 SWAP1 DUP2 DUP2 MSTORE PUSH1 0x20 ADD DUP3 DUP1 SLOAD PUSH2 0x6F8 SWAP1 PUSH2 0x1207 JUMP JUMPDEST DUP1 ISZERO PUSH2 0x745 JUMPI DUP1 PUSH1 0x1F LT PUSH2 0x71A JUMPI PUSH2 0x100 DUP1 DUP4 SLOAD DIV MUL DUP4 MSTORE SWAP2 PUSH1 0x20 ADD SWAP2 PUSH2 0x745 JUMP JUMPDEST DUP3 ADD SWAP2 SWAP1 PUSH1 0x0 MSTORE PUSH1 0x20 PUSH1 0x0 KECCAK256 SWAP1 JUMPDEST DUP2 SLOAD DUP2 MSTORE SWAP1 PUSH1 0x1 ADD SWAP1 PUSH1 0x20 ADD DUP1 DUP4 GT PUSH2 0x728 JUMPI DUP3 SWAP1 SUB PUSH1 0x1F AND DUP3 ADD SWAP2 JUMPDEST POP POP POP POP POP SWAP3 POP SWAP3 POP SWAP3 POP SWAP3 POP SWAP3 POP SWAP3 POP SWAP3 JUMP JUMPDEST PUSH1 0x0 PUSH1 0x4 PUSH1 0x0 DUP4 DUP2 MSTORE PUSH1 0x20 ADD SWAP1 DUP2 MSTORE PUSH1 0x20 ADD PUSH1 0x0 KECCAK256 PUSH1 0x4 ADD SLOAD SWAP1 POP SWAP2 SWAP1 POP JUMP JUMPDEST PUSH1 0x60 PUSH1 0x0 DUP1 PUSH1 0x0 PUSH1 0x4 PUSH1 0x0 DUP7 DUP2 MSTORE PUSH1 0x20 ADD SWAP1 DUP2 MSTORE PUSH1 0x20 ADD PUSH1 0x0 KECCAK256 SWAP1 POP DUP1 PUSH1 0x0 ADD DUP2 PUSH1 0x5 ADD PUSH1 0x0 SWAP1 SLOAD SWAP1 PUSH2 0x100 EXP SWAP1 DIV PUSH20 0xFFFFFFFFFFFFFFFFFFFFFFFFFFFFFFFFFFFFFFFF AND DUP3 PUSH1 0x4 ADD SLOAD DUP3 DUP1 SLOAD PUSH2 0x7CF SWAP1 PUSH2 0x1207 JUMP JUMPDEST DUP1 PUSH1 0x1F ADD PUSH1 0x20 DUP1 SWAP2 DIV MUL PUSH1 0x20 ADD PUSH1 0x40 MLOAD SWAP1 DUP2 ADD PUSH1 0x40 MSTORE DUP1 SWAP3 SWAP2 SWAP1 DUP2 DUP2 MSTORE PUSH1 0x20 ADD DUP3 DUP1 SLOAD PUSH2 0x7FB SWAP1 PUSH2 0x1207 JUMP JUMPDEST DUP1 ISZERO PUSH2 0x848 JUMPI DUP1 PUSH1 0x1F LT PUSH2 0x81D JUMPI PUSH2 0x100 DUP1 DUP4 SLOAD DIV MUL DUP4 MSTORE SWAP2 PUSH1 0x20 ADD SWAP2 PUSH2 0x848 JUMP JUMPDEST DUP3 ADD SWAP2 SWAP1 PUSH1 0x0 MSTORE PUSH1 0x20 PUSH1 0x0 KECCAK256 SWAP1 JUMPDEST DUP2 SLOAD DUP2 MSTORE SWAP1 PUSH1 0x1 ADD SWAP1 PUSH1 0x20 ADD DUP1 DUP4 GT PUSH2 0x82B JUMPI DUP3 SWAP1 SUB PUSH1 0x1F AND DUP3 ADD SWAP2 JUMPDEST POP POP POP POP POP SWAP3 POP SWAP4 POP SWAP4 POP SWAP4 POP POP SWAP2 SWAP4 SWAP1 SWAP3 POP JUMP JUMPDEST PUSH1 0x4 PUSH1 0x0 DUP3 DUP2 MSTORE PUSH1 0x20 ADD SWAP1 DUP2 MSTORE PUSH1 0x20 ADD PUSH1 0x0 KECCAK256 PUSH1 0x1 ADD PUSH1 0x0 DUP4 PUSH20 0xFFFFFFFFFFFFFFFFFFFFFFFFFFFFFFFFFFFFFFFF AND PUSH20 0xFFFFFFFFFFFFFFFFFFFFFFFFFFFFFFFFFFFFFFFF AND DUP2 MSTORE PUSH1 0x20 ADD SWAP1 DUP2 MSTORE PUSH1 0x20 ADD PUSH1 0x0 KECCAK256 PUSH1 0x0 SWAP1 SLOAD SWAP1 PUSH2 0x100 EXP SWAP1 DIV PUSH1 0xFF AND ISZERO PUSH2 0x8C8 JUMPI PUSH1 0x0 DUP1 REVERT JUMPDEST PUSH1 0x0 DUP3 SWAP1 DUP1 PUSH1 0x1 DUP2 SLOAD ADD DUP1 DUP3 SSTORE DUP1 SWAP2 POP POP PUSH1 0x1 SWAP1 SUB SWAP1 PUSH1 0x0 MSTORE PUSH1 0x20 PUSH1 0x0 KECCAK256 ADD PUSH1 0x0 SWAP1 SWAP2 SWAP1 SWAP2 SWAP1 SWAP2 PUSH2 0x100 EXP DUP2 SLOAD DUP2 PUSH20 0xFFFFFFFFFFFFFFFFFFFFFFFFFFFFFFFFFFFFFFFF MUL NOT AND SWAP1 DUP4 PUSH20 0xFFFFFFFFFFFFFFFFFFFFFFFFFFFFFFFFFFFFFFFF AND MUL OR SWAP1 SSTORE POP DUP3 PUSH1 0x4 PUSH1 0x0 DUP4 DUP2 MSTORE PUSH1 0x20 ADD SWAP1 DUP2 MSTORE PUSH1 0x20 ADD PUSH1 0x0 KECCAK256 PUSH1 0x2 ADD PUSH1 0x0 DUP5 PUSH20 0xFFFFFFFFFFFFFFFFFFFFFFFFFFFFFFFFFFFFFFFF AND PUSH20 0xFFFFFFFFFFFFFFFFFFFFFFFFFFFFFFFFFFFFFFFF AND DUP2 MSTORE PUSH1 0x20 ADD SWAP1 DUP2 MSTORE PUSH1 0x20 ADD PUSH1 0x0 KECCAK256 SWAP1 DUP1 MLOAD SWAP1 PUSH1 0x20 ADD SWAP1 PUSH2 0x992 SWAP3 SWAP2 SWAP1 PUSH2 0xC2E JUMP JUMPDEST POP PUSH1 0x1 PUSH1 0x4 PUSH1 0x0 DUP4 DUP2 MSTORE PUSH1 0x20 ADD SWAP1 DUP2 MSTORE PUSH1 0x20 ADD PUSH1 0x0 KECCAK256 PUSH1 0x1 ADD PUSH1 0x0 DUP5 PUSH20 0xFFFFFFFFFFFFFFFFFFFFFFFFFFFFFFFFFFFFFFFF AND PUSH20 0xFFFFFFFFFFFFFFFFFFFFFFFFFFFFFFFFFFFFFFFF AND DUP2 MSTORE PUSH1 0x20 ADD SWAP1 DUP2 MSTORE PUSH1 0x20 ADD PUSH1 0x0 KECCAK256 PUSH1 0x0 PUSH2 0x100 EXP DUP2 SLOAD DUP2 PUSH1 0xFF MUL NOT AND SWAP1 DUP4 ISZERO ISZERO MUL OR SWAP1 SSTORE POP PUSH1 0x4 PUSH1 0x0 DUP3 DUP2 MSTORE PUSH1 0x20 ADD SWAP1 DUP2 MSTORE PUSH1 0x20 ADD PUSH1 0x0 KECCAK256 PUSH1 0x4 ADD PUSH1 0x0 DUP2 SLOAD DUP1 SWAP3 SWAP2 SWAP1 PUSH2 0xA26 SWAP1 PUSH2 0x126A JUMP JUMPDEST SWAP2 SWAP1 POP SSTORE POP POP POP POP JUMP JUMPDEST PUSH1 0x1 PUSH1 0x20 MSTORE DUP1 PUSH1 0x0 MSTORE PUSH1 0x40 PUSH1 0x0 KECCAK256 PUSH1 0x0 SWAP2 POP SLOAD SWAP1 PUSH2 0x100 EXP SWAP1 DIV PUSH1 0xFF AND DUP2 JUMP JUMPDEST PUSH1 0x2 SLOAD DUP2 JUMP JUMPDEST PUSH1 0x1 DUP1 PUSH1 0x0 CALLER PUSH20 0xFFFFFFFFFFFFFFFFFFFFFFFFFFFFFFFFFFFFFFFF AND PUSH20 0xFFFFFFFFFFFFFFFFFFFFFFFFFFFFFFFFFFFFFFFF AND DUP2 MSTORE PUSH1 0x20 ADD SWAP1 DUP2 MSTORE PUSH1 0x20 ADD PUSH1 0x0 KECCAK256 PUSH1 0x0 PUSH2 0x100 EXP DUP2 SLOAD DUP2 PUSH1 0xFF MUL NOT AND SWAP1 DUP4 ISZERO ISZERO MUL OR SWAP1 SSTORE POP PUSH1 0x2 PUSH1 0x0 DUP2 SLOAD DUP1 SWAP3 SWAP2 SWAP1 PUSH2 0xAC0 SWAP1 PUSH2 0x126A JUMP JUMPDEST SWAP2 SWAP1 POP SSTORE POP PUSH1 0x0 PUSH1 0x4 PUSH1 0x0 PUSH1 0x3 PUSH1 0x0 DUP2 SLOAD DUP1 SWAP3 SWAP2 SWAP1 PUSH2 0xADE SWAP1 PUSH2 0x126A JUMP JUMPDEST SWAP2 SWAP1 POP SSTORE DUP2 MSTORE PUSH1 0x20 ADD SWAP1 DUP2 MSTORE PUSH1 0x20 ADD PUSH1 0x0 KECCAK256 SWAP1 POP DUP2 DUP2 PUSH1 0x0 ADD SWAP1 DUP1 MLOAD SWAP1 PUSH1 0x20 ADD SWAP1 PUSH2 0xB0A SWAP3 SWAP2 SWAP1 PUSH2 0xC2E JUMP JUMPDEST POP PUSH1 0x0 DUP2 PUSH1 0x4 ADD DUP2 SWAP1 SSTORE POP CALLER DUP2 PUSH1 0x5 ADD PUSH1 0x0 PUSH2 0x100 EXP DUP2 SLOAD DUP2 PUSH20 0xFFFFFFFFFFFFFFFFFFFFFFFFFFFFFFFFFFFFFFFF MUL NOT AND SWAP1 DUP4 PUSH20 0xFFFFFFFFFFFFFFFFFFFFFFFFFFFFFFFFFFFFFFFF AND MUL OR SWAP1 SSTORE POP POP POP JUMP JUMPDEST PUSH1 0x4 PUSH1 0x20 MSTORE DUP1 PUSH1 0x0 MSTORE PUSH1 0x40 PUSH1 0x0 KECCAK256 PUSH1 0x0 SWAP2 POP SWAP1 POP DUP1 PUSH1 0x0 ADD DUP1 SLOAD PUSH2 0xB7F SWAP1 PUSH2 0x1207 JUMP JUMPDEST DUP1 PUSH1 0x1F ADD PUSH1 0x20 DUP1 SWAP2 DIV MUL PUSH1 0x20 ADD PUSH1 0x40 MLOAD SWAP1 DUP2 ADD PUSH1 0x40 MSTORE DUP1 SWAP3 SWAP2 SWAP1 DUP2 DUP2 MSTORE PUSH1 0x20 ADD DUP3 DUP1 SLOAD PUSH2 0xBAB SWAP1 PUSH2 0x1207 JUMP JUMPDEST DUP1 ISZERO PUSH2 0xBF8 JUMPI DUP1 PUSH1 0x1F LT PUSH2 0xBCD JUMPI PUSH2 0x100 DUP1 DUP4 SLOAD DIV MUL DUP4 MSTORE SWAP2 PUSH1 0x20 ADD SWAP2 PUSH2 0xBF8 JUMP JUMPDEST DUP3 ADD SWAP2 SWAP1 PUSH1 0x0 MSTORE PUSH1 0x20 PUSH1 0x0 KECCAK256 SWAP1 JUMPDEST DUP2 SLOAD DUP2 MSTORE SWAP1 PUSH1 0x1 ADD SWAP1 PUSH1 0x20 ADD DUP1 DUP4 GT PUSH2 0xBDB JUMPI DUP3 SWAP1 SUB PUSH1 0x1F AND DUP3 ADD SWAP2 JUMPDEST POP POP POP POP POP SWAP1 DUP1 PUSH1 0x4 ADD SLOAD SWAP1 DUP1 PUSH1 0x5 ADD PUSH1 0x0 SWAP1 SLOAD SWAP1 PUSH2 0x100 EXP SWAP1 DIV PUSH20 0xFFFFFFFFFFFFFFFFFFFFFFFFFFFFFFFFFFFFFFFF AND SWAP1 POP DUP4 JUMP JUMPDEST DUP3 DUP1 SLOAD PUSH2 0xC3A SWAP1 PUSH2 0x1207 JUMP JUMPDEST SWAP1 PUSH1 0x0 MSTORE PUSH1 0x20 PUSH1 0x0 KECCAK256 SWAP1 PUSH1 0x1F ADD PUSH1 0x20 SWAP1 DIV DUP2 ADD SWAP3 DUP3 PUSH2 0xC5C JUMPI PUSH1 0x0 DUP6 SSTORE PUSH2 0xCA3 JUMP JUMPDEST DUP3 PUSH1 0x1F LT PUSH2 0xC75 JUMPI DUP1 MLOAD PUSH1 0xFF NOT AND DUP4 DUP1 ADD OR DUP6 SSTORE PUSH2 0xCA3 JUMP JUMPDEST DUP3 DUP1 ADD PUSH1 0x1 ADD DUP6 SSTORE DUP3 ISZERO PUSH2 0xCA3 JUMPI SWAP2 DUP3 ADD JUMPDEST DUP3 DUP2 GT ISZERO PUSH2 0xCA2 JUMPI DUP3 MLOAD DUP3 SSTORE SWAP2 PUSH1 0x20 ADD SWAP2 SWAP1 PUSH1 0x1 ADD SWAP1 PUSH2 0xC87 JUMP JUMPDEST JUMPDEST POP SWAP1 POP PUSH2 0xCB0 SWAP2 SWAP1 PUSH2 0xCB4 JUMP JUMPDEST POP SWAP1 JUMP JUMPDEST JUMPDEST DUP1 DUP3 GT ISZERO PUSH2 0xCCD JUMPI PUSH1 0x0 DUP2 PUSH1 0x0 SWAP1 SSTORE POP PUSH1 0x1 ADD PUSH2 0xCB5 JUMP JUMPDEST POP SWAP1 JUMP JUMPDEST PUSH1 0x0 PUSH2 0xCE4 PUSH2 0xCDF DUP5 PUSH2 0x111B JUMP JUMPDEST PUSH2 0x10F6 JUMP JUMPDEST SWAP1 POP DUP3 DUP2 MSTORE PUSH1 0x20 DUP2 ADD DUP5 DUP5 DUP5 ADD GT ISZERO PUSH2 0xCFC JUMPI PUSH1 0x0 DUP1 REVERT JUMPDEST PUSH2 0xD07 DUP5 DUP3 DUP6 PUSH2 0x11C5 JUMP JUMPDEST POP SWAP4 SWAP3 POP POP POP JUMP JUMPDEST PUSH1 0x0 DUP2 CALLDATALOAD SWAP1 POP PUSH2 0xD1E DUP2 PUSH2 0x1351 JUMP JUMPDEST SWAP3 SWAP2 POP POP JUMP JUMPDEST PUSH1 0x0 DUP3 PUSH1 0x1F DUP4 ADD SLT PUSH2 0xD35 JUMPI PUSH1 0x0 DUP1 REVERT JUMPDEST DUP2 CALLDATALOAD PUSH2 0xD45 DUP5 DUP3 PUSH1 0x20 DUP7 ADD PUSH2 0xCD1 JUMP JUMPDEST SWAP2 POP POP SWAP3 SWAP2 POP POP JUMP JUMPDEST PUSH1 0x0 DUP2 CALLDATALOAD SWAP1 POP PUSH2 0xD5D DUP2 PUSH2 0x1368 JUMP JUMPDEST SWAP3 SWAP2 POP POP JUMP JUMPDEST PUSH1 0x0 PUSH1 0x20 DUP3 DUP5 SUB SLT ISZERO PUSH2 0xD75 JUMPI PUSH1 0x0 DUP1 REVERT JUMPDEST PUSH1 0x0 PUSH2 0xD83 DUP5 DUP3 DUP6 ADD PUSH2 0xD0F JUMP JUMPDEST SWAP2 POP POP SWAP3 SWAP2 POP POP JUMP JUMPDEST PUSH1 0x0 PUSH1 0x20 DUP3 DUP5 SUB SLT ISZERO PUSH2 0xD9E JUMPI PUSH1 0x0 DUP1 REVERT JUMPDEST PUSH1 0x0 DUP3 ADD CALLDATALOAD PUSH8 0xFFFFFFFFFFFFFFFF DUP2 GT ISZERO PUSH2 0xDB8 JUMPI PUSH1 0x0 DUP1 REVERT JUMPDEST PUSH2 0xDC4 DUP5 DUP3 DUP6 ADD PUSH2 0xD24 JUMP JUMPDEST SWAP2 POP POP SWAP3 SWAP2 POP POP JUMP JUMPDEST PUSH1 0x0 DUP1 PUSH1 0x0 PUSH1 0x60 DUP5 DUP7 SUB SLT ISZERO PUSH2 0xDE2 JUMPI PUSH1 0x0 DUP1 REVERT JUMPDEST PUSH1 0x0 DUP5 ADD CALLDATALOAD PUSH8 0xFFFFFFFFFFFFFFFF DUP2 GT ISZERO PUSH2 0xDFC JUMPI PUSH1 0x0 DUP1 REVERT JUMPDEST PUSH2 0xE08 DUP7 DUP3 DUP8 ADD PUSH2 0xD24 JUMP JUMPDEST SWAP4 POP POP PUSH1 0x20 PUSH2 0xE19 DUP7 DUP3 DUP8 ADD PUSH2 0xD0F JUMP JUMPDEST SWAP3 POP POP PUSH1 0x40 PUSH2 0xE2A DUP7 DUP3 DUP8 ADD PUSH2 0xD4E JUMP JUMPDEST SWAP2 POP POP SWAP3 POP SWAP3 POP SWAP3 JUMP JUMPDEST PUSH1 0x0 PUSH1 0x20 DUP3 DUP5 SUB SLT ISZERO PUSH2 0xE46 JUMPI PUSH1 0x0 DUP1 REVERT JUMPDEST PUSH1 0x0 PUSH2 0xE54 DUP5 DUP3 DUP6 ADD PUSH2 0xD4E JUMP JUMPDEST SWAP2 POP POP SWAP3 SWAP2 POP POP JUMP JUMPDEST PUSH1 0x0 DUP1 PUSH1 0x40 DUP4 DUP6 SUB SLT ISZERO PUSH2 0xE70 JUMPI PUSH1 0x0 DUP1 REVERT JUMPDEST PUSH1 0x0 PUSH2 0xE7E DUP6 DUP3 DUP7 ADD PUSH2 0xD4E JUMP JUMPDEST SWAP3 POP POP PUSH1 0x20 PUSH2 0xE8F DUP6 DUP3 DUP7 ADD PUSH2 0xD0F JUMP JUMPDEST SWAP2 POP POP SWAP3 POP SWAP3 SWAP1 POP JUMP JUMPDEST PUSH1 0x0 DUP1 PUSH1 0x40 DUP4 DUP6 SUB SLT ISZERO PUSH2 0xEAC JUMPI PUSH1 0x0 DUP1 REVERT JUMPDEST PUSH1 0x0 PUSH2 0xEBA DUP6 DUP3 DUP7 ADD PUSH2 0xD4E JUMP JUMPDEST SWAP3 POP POP PUSH1 0x20 PUSH2 0xECB DUP6 DUP3 DUP7 ADD PUSH2 0xD4E JUMP JUMPDEST SWAP2 POP POP SWAP3 POP SWAP3 SWAP1 POP JUMP JUMPDEST PUSH2 0xEDE DUP2 PUSH2 0x117D JUMP JUMPDEST DUP3 MSTORE POP POP JUMP JUMPDEST PUSH2 0xEED DUP2 PUSH2 0x118F JUMP JUMPDEST DUP3 MSTORE POP POP JUMP JUMPDEST PUSH1 0x0 PUSH2 0xEFE DUP3 PUSH2 0x1161 JUMP JUMPDEST PUSH2 0xF08 DUP2 DUP6 PUSH2 0x116C JUMP JUMPDEST SWAP4 POP PUSH2 0xF18 DUP2 DUP6 PUSH1 0x20 DUP7 ADD PUSH2 0x11D4 JUMP JUMPDEST PUSH2 0xF21 DUP2 PUSH2 0x1340 JUMP JUMPDEST DUP5 ADD SWAP2 POP POP SWAP3 SWAP2 POP POP JUMP JUMPDEST PUSH1 0x0 DUP2 SLOAD PUSH2 0xF39 DUP2 PUSH2 0x1207 JUMP JUMPDEST PUSH2 0xF43 DUP2 DUP7 PUSH2 0x116C JUMP JUMPDEST SWAP5 POP PUSH1 0x1 DUP3 AND PUSH1 0x0 DUP2 EQ PUSH2 0xF5E JUMPI PUSH1 0x1 DUP2 EQ PUSH2 0xF70 JUMPI PUSH2 0xFA3 JUMP JUMPDEST PUSH1 0xFF NOT DUP4 AND DUP7 MSTORE PUSH1 0x20 DUP7 ADD SWAP4 POP PUSH2 0xFA3 JUMP JUMPDEST PUSH2 0xF79 DUP6 PUSH2 0x114C JUMP JUMPDEST PUSH1 0x0 JUMPDEST DUP4 DUP2 LT ISZERO PUSH2 0xF9B JUMPI DUP2 SLOAD DUP2 DUP10 ADD MSTORE PUSH1 0x1 DUP3 ADD SWAP2 POP PUSH1 0x20 DUP2 ADD SWAP1 POP PUSH2 0xF7C JUMP JUMPDEST DUP1 DUP9 ADD SWAP6 POP POP POP JUMPDEST POP POP POP SWAP3 SWAP2 POP POP JUMP JUMPDEST PUSH2 0xFB5 DUP2 PUSH2 0x11BB JUMP JUMPDEST DUP3 MSTORE POP POP JUMP JUMPDEST PUSH1 0x0 PUSH1 0x20 DUP3 ADD SWAP1 POP PUSH2 0xFD0 PUSH1 0x0 DUP4 ADD DUP5 PUSH2 0xED5 JUMP JUMPDEST SWAP3 SWAP2 POP POP JUMP JUMPDEST PUSH1 0x0 PUSH1 0x20 DUP3 ADD SWAP1 POP PUSH2 0xFEB PUSH1 0x0 DUP4 ADD DUP5 PUSH2 0xEE4 JUMP JUMPDEST SWAP3 SWAP2 POP POP JUMP JUMPDEST PUSH1 0x0 PUSH1 0x60 DUP3 ADD SWAP1 POP DUP2 DUP2 SUB PUSH1 0x0 DUP4 ADD MSTORE PUSH2 0x100B DUP2 DUP7 PUSH2 0xEF3 JUMP JUMPDEST SWAP1 POP PUSH2 0x101A PUSH1 0x20 DUP4 ADD DUP6 PUSH2 0xED5 JUMP JUMPDEST PUSH2 0x1027 PUSH1 0x40 DUP4 ADD DUP5 PUSH2 0xEE4 JUMP JUMPDEST SWAP5 SWAP4 POP POP POP POP JUMP JUMPDEST PUSH1 0x0 PUSH1 0x60 DUP3 ADD SWAP1 POP DUP2 DUP2 SUB PUSH1 0x0 DUP4 ADD MSTORE PUSH2 0x1049 DUP2 DUP7 PUSH2 0xEF3 JUMP JUMPDEST SWAP1 POP PUSH2 0x1058 PUSH1 0x20 DUP4 ADD DUP6 PUSH2 0xED5 JUMP JUMPDEST PUSH2 0x1065 PUSH1 0x40 DUP4 ADD DUP5 PUSH2 0xFAC JUMP JUMPDEST SWAP5 SWAP4 POP POP POP POP JUMP JUMPDEST PUSH1 0x0 PUSH1 0x60 DUP3 ADD SWAP1 POP DUP2 DUP2 SUB PUSH1 0x0 DUP4 ADD MSTORE PUSH2 0x1087 DUP2 DUP7 PUSH2 0xEF3 JUMP JUMPDEST SWAP1 POP PUSH2 0x1096 PUSH1 0x20 DUP4 ADD DUP6 PUSH2 0xFAC JUMP JUMPDEST PUSH2 0x10A3 PUSH1 0x40 DUP4 ADD DUP5 PUSH2 0xED5 JUMP JUMPDEST SWAP5 SWAP4 POP POP POP POP JUMP JUMPDEST PUSH1 0x0 PUSH1 0x40 DUP3 ADD SWAP1 POP DUP2 DUP2 SUB PUSH1 0x0 DUP4 ADD MSTORE PUSH2 0x10C5 DUP2 DUP6 PUSH2 0xF2C JUMP JUMPDEST SWAP1 POP PUSH2 0x10D4 PUSH1 0x20 DUP4 ADD DUP5 PUSH2 0xED5 JUMP JUMPDEST SWAP4 SWAP3 POP POP POP JUMP JUMPDEST PUSH1 0x0 PUSH1 0x20 DUP3 ADD SWAP1 POP PUSH2 0x10F0 PUSH1 0x0 DUP4 ADD DUP5 PUSH2 0xFAC JUMP JUMPDEST SWAP3 SWAP2 POP POP JUMP JUMPDEST PUSH1 0x0 PUSH2 0x1100 PUSH2 0x1111 JUMP JUMPDEST SWAP1 POP PUSH2 0x110C DUP3 DUP3 PUSH2 0x1239 JUMP JUMPDEST SWAP2 SWAP1 POP JUMP JUMPDEST PUSH1 0x0 PUSH1 0x40 MLOAD SWAP1 POP SWAP1 JUMP JUMPDEST PUSH1 0x0 PUSH8 0xFFFFFFFFFFFFFFFF DUP3 GT ISZERO PUSH2 0x1136 JUMPI PUSH2 0x1135 PUSH2 0x1311 JUMP JUMPDEST JUMPDEST PUSH2 0x113F DUP3 PUSH2 0x1340 JUMP JUMPDEST SWAP1 POP PUSH1 0x20 DUP2 ADD SWAP1 POP SWAP2 SWAP1 POP JUMP JUMPDEST PUSH1 0x0 DUP2 SWAP1 POP DUP2 PUSH1 0x0 MSTORE PUSH1 0x20 PUSH1 0x0 KECCAK256 SWAP1 POP SWAP2 SWAP1 POP JUMP JUMPDEST PUSH1 0x0 DUP2 MLOAD SWAP1 POP SWAP2 SWAP1 POP JUMP JUMPDEST PUSH1 0x0 DUP3 DUP3 MSTORE PUSH1 0x20 DUP3 ADD SWAP1 POP SWAP3 SWAP2 POP POP JUMP JUMPDEST PUSH1 0x0 PUSH2 0x1188 DUP3 PUSH2 0x119B JUMP JUMPDEST SWAP1 POP SWAP2 SWAP1 POP JUMP JUMPDEST PUSH1 0x0 DUP2 ISZERO ISZERO SWAP1 POP SWAP2 SWAP1 POP JUMP JUMPDEST PUSH1 0x0 PUSH20 0xFFFFFFFFFFFFFFFFFFFFFFFFFFFFFFFFFFFFFFFF DUP3 AND SWAP1 POP SWAP2 SWAP1 POP JUMP JUMPDEST PUSH1 0x0 DUP2 SWAP1 POP SWAP2 SWAP1 POP JUMP JUMPDEST DUP3 DUP2 DUP4 CALLDATACOPY PUSH1 0x0 DUP4 DUP4 ADD MSTORE POP POP POP JUMP JUMPDEST PUSH1 0x0 JUMPDEST DUP4 DUP2 LT ISZERO PUSH2 0x11F2 JUMPI DUP1 DUP3 ADD MLOAD DUP2 DUP5 ADD MSTORE PUSH1 0x20 DUP2 ADD SWAP1 POP PUSH2 0x11D7 JUMP JUMPDEST DUP4 DUP2 GT ISZERO PUSH2 0x1201 JUMPI PUSH1 0x0 DUP5 DUP5 ADD MSTORE JUMPDEST POP POP POP POP JUMP JUMPDEST PUSH1 0x0 PUSH1 0x2 DUP3 DIV SWAP1 POP PUSH1 0x1 DUP3 AND DUP1 PUSH2 0x121F JUMPI PUSH1 0x7F DUP3 AND SWAP2 POP JUMPDEST PUSH1 0x20 DUP3 LT DUP2 EQ ISZERO PUSH2 0x1233 JUMPI PUSH2 0x1232 PUSH2 0x12E2 JUMP JUMPDEST JUMPDEST POP SWAP2 SWAP1 POP JUMP JUMPDEST PUSH2 0x1242 DUP3 PUSH2 0x1340 JUMP JUMPDEST DUP2 ADD DUP2 DUP2 LT PUSH8 0xFFFFFFFFFFFFFFFF DUP3 GT OR ISZERO PUSH2 0x1261 JUMPI PUSH2 0x1260 PUSH2 0x1311 JUMP JUMPDEST JUMPDEST DUP1 PUSH1 0x40 MSTORE POP POP POP JUMP JUMPDEST PUSH1 0x0 PUSH2 0x1275 DUP3 PUSH2 0x11BB JUMP JUMPDEST SWAP2 POP PUSH32 0xFFFFFFFFFFFFFFFFFFFFFFFFFFFFFFFFFFFFFFFFFFFFFFFFFFFFFFFFFFFFFFFF DUP3 EQ ISZERO PUSH2 0x12A8 JUMPI PUSH2 0x12A7 PUSH2 0x12B3 JUMP JUMPDEST JUMPDEST PUSH1 0x1 DUP3 ADD SWAP1 POP SWAP2 SWAP1 POP JUMP JUMPDEST PUSH32 0x4E487B7100000000000000000000000000000000000000000000000000000000 PUSH1 0x0 MSTORE PUSH1 0x11 PUSH1 0x4 MSTORE PUSH1 0x24 PUSH1 0x0 REVERT JUMPDEST PUSH32 0x4E487B7100000000000000000000000000000000000000000000000000000000 PUSH1 0x0 MSTORE PUSH1 0x22 PUSH1 0x4 MSTORE PUSH1 0x24 PUSH1 0x0 REVERT JUMPDEST PUSH32 0x4E487B7100000000000000000000000000000000000000000000000000000000 PUSH1 0x0 MSTORE PUSH1 0x41 PUSH1 0x4 MSTORE PUSH1 0x24 PUSH1 0x0 REVERT JUMPDEST PUSH1 0x0 PUSH1 0x1F NOT PUSH1 0x1F DUP4 ADD AND SWAP1 POP SWAP2 SWAP1 POP JUMP JUMPDEST PUSH2 0x135A DUP2 PUSH2 0x117D JUMP JUMPDEST DUP2 EQ PUSH2 0x1365 JUMPI PUSH1 0x0 DUP1 REVERT JUMPDEST POP JUMP JUMPDEST PUSH2 0x1371 DUP2 PUSH2 0x11BB JUMP JUMPDEST DUP2 EQ PUSH2 0x137C JUMPI PUSH1 0x0 DUP1 REVERT JUMPDEST POP JUMP INVALID LOG2 PUSH5 0x6970667358 0x22 SLT KECCAK256 0xEB 0x27 0xC8 0xE4 PUSH13 0x803E9D8D9BC404E84821A05DD1 0xE8 0xB7 PC DUP15 0xD 0xAE PUSH8 0x64B7797F8BC75664 PUSH20 0x6F6C634300080400330000000000000000000000 "
    },
    "gasEstimates": {
      "creation": {
        "codeDepositCost": "1009000",
        "executionCost": "1047",
        "totalCost": "1010047"
      },
      "external": {
        "createData(string)": "infinite",
        "data(uint256)": "infinite",
        "dispayData(uint256)": "infinite",
        "finalizeRequest(uint256,address)": "22646",
        "getRequestsCount(uint256)": "infinite",
        "getSummary(uint256)": "infinite",
        "makeRequest(string,address,uint256)": "infinite",
        "requesters(address)": "1589",
        "requestersAdd(uint256)": "2401",
        "requestersCount()": "1195",
        "requests(uint256,uint256)": "infinite"
      }
    },
    "methodIdentifiers": {
      "createData(string)": "eecd6bc2",
      "data(uint256)": "f0ba8440",
      "dispayData(uint256)": "19a32989",
      "finalizeRequest(uint256,address)": "1da000ec",
      "getRequestsCount(uint256)": "9a5e5b77",
      "getSummary(uint256)": "aee14460",
      "makeRequest(string,address,uint256)": "b5fdcfa3",
      "requesters(address)": "d6f8307f",
      "requestersAdd(uint256)": "2eeca2cc",
      "requestersCount()": "de58f1b6",
      "requests(uint256,uint256)": "9089add8"
    }
  },
  "storageLayout": {
    "storage": [
      {
        "astId": 46,
        "contract": "HealthHub.sol:HealthHub",
        "label": "requestersAdd",
        "offset": 0,
        "slot": "0",
        "type": "t_array(t_address)dyn_storage"
      },
      {
        "astId": 50,
        "contract": "HealthHub.sol:HealthHub",
        "label": "requesters",
        "offset": 0,
        "slot": "1",
        "type": "t_mapping(t_address,t_bool)"
      },
      {
        "astId": 52,
        "contract": "HealthHub.sol:HealthHub",
        "label": "requestersCount",
        "offset": 0,
        "slot": "2",
        "type": "t_uint256"
      },
      {
        "astId": 79,
        "contract": "HealthHub.sol:HealthHub",
        "label": "numRequests",
        "offset": 0,
        "slot": "3",
        "type": "t_uint256"
      },
      {
        "astId": 84,
        "contract": "HealthHub.sol:HealthHub",
        "label": "data",
        "offset": 0,
        "slot": "4",
        "type": "t_mapping(t_uint256,t_struct(Data)71_storage)"
      }
    ],
    "types": {
      "t_address": {
        "encoding": "inplace",
        "label": "address",
        "numberOfBytes": "20"
      },
      "t_array(t_address)dyn_storage": {
        "base": "t_address",
        "encoding": "dynamic_array",
        "label": "address[]",
        "numberOfBytes": "32"
      },
      "t_bool": {
        "encoding": "inplace",
        "label": "bool",
        "numberOfBytes": "1"
      },
      "t_mapping(t_address,t_bool)": {
        "encoding": "mapping",
        "key": "t_address",
        "label": "mapping(address => bool)",
        "numberOfBytes": "32",
        "value": "t_bool"
      },
      "t_mapping(t_address,t_string_storage)": {
        "encoding": "mapping",
        "key": "t_address",
        "label": "mapping(address => string)",
        "numberOfBytes": "32",
        "value": "t_string_storage"
      },
      "t_mapping(t_uint256,t_struct(Data)71_storage)": {
        "encoding": "mapping",
        "key": "t_uint256",
        "label": "mapping(uint256 => struct HealthHub.Data)",
        "numberOfBytes": "32",
        "value": "t_struct(Data)71_storage"
      },
      "t_string_storage": {
        "encoding": "bytes",
        "label": "string",
        "numberOfBytes": "32"
      },
      "t_struct(Data)71_storage": {
        "encoding": "inplace",
        "label": "struct HealthHub.Data",
        "members": [
          {
            "astId": 54,
            "contract": "HealthHub.sol:HealthHub",
            "label": "description",
            "offset": 0,
            "slot": "0",
            "type": "t_string_storage"
          },
          {
            "astId": 58,
            "contract": "HealthHub.sol:HealthHub",
            "label": "requestsMade",
            "offset": 0,
            "slot": "1",
            "type": "t_mapping(t_address,t_bool)"
          },
          {
            "astId": 62,
            "contract": "HealthHub.sol:HealthHub",
            "label": "requestersDesc",
            "offset": 0,
            "slot": "2",
            "type": "t_mapping(t_address,t_string_storage)"
          },
          {
            "astId": 66,
            "contract": "HealthHub.sol:HealthHub",
            "label": "finalApproved",
            "offset": 0,
            "slot": "3",
            "type": "t_mapping(t_address,t_bool)"
          },
          {
            "astId": 68,
            "contract": "HealthHub.sol:HealthHub",
            "label": "requestsMadeCount",
            "offset": 0,
            "slot": "4",
            "type": "t_uint256"
          },
          {
            "astId": 70,
            "contract": "HealthHub.sol:HealthHub",
            "label": "manager",
            "offset": 0,
            "slot": "5",
            "type": "t_address"
          }
        ],
        "numberOfBytes": "192"
      },
      "t_uint256": {
        "encoding": "inplace",
        "label": "uint256",
        "numberOfBytes": "32"
      }
    }
  },
  "userdoc": {
    "kind": "user",
    "methods": {},
    "version": 1
  }
}